{
  "transactions": [
    {
      "hash": "0x5355e033b570dddc322f97fabb2cf3f974e66132233b8f1a4997ae43d5ac7403",
      "transactionType": "CALL",
      "contractName": null,
      "contractAddress": "0x498581ff718922c3f8e6a244956af099b2652b2b",
      "function": "initialize((address,address,uint24,int24,address),uint160)",
      "arguments": [
        "(0x4200000000000000000000000000000000000006, 0x833589fCD6eDb6E08f4c7C32D4f71b54bdA02913, 3000, 60, 0x02C72A5E1125AD6f4B8D71E87af14BC8663b0040)",
        "4687201305027700636778496"
      ],
      "transaction": {
        "from": "0x8114cdc7ddea2be36435351db2115887daef5e12",
        "to": "0x498581ff718922c3f8e6a244956af099b2652b2b",
        "gas": "0x128ce",
        "value": "0x0",
        "input": "0x6276cbbe0000000000000000000000004200000000000000000000000000000000000006000000000000000000000000833589fcd6edb6e08f4c7c32d4f71b54bda029130000000000000000000000000000000000000000000000000000000000000bb8000000000000000000000000000000000000000000000000000000000000003c00000000000000000000000002c72a5e1125ad6f4b8d71e87af14bc8663b004000000000000000000000000000000000000000000003e08db11fa9d940000000",
        "nonce": "0x1",
        "chainId": "0x2105"
      },
      "additionalContracts": [],
      "isFixedGasLimit": false
    }
  ],
  "receipts": [
    {
      "status": "0x1",
      "cumulativeGasUsed": "0x1edd4b9",
      "logs": [
        {
          "address": "0x498581ff718922c3f8e6a244956af099b2652b2b",
          "topics": [
            "0xdd466e674ea557f56295e2d0218a125ea4b4f0f6f3307b95f85e6110838d6438",
            "0x9ab80bf349a3a10edc42141e23d29ab0cbaf02e7d43c75a3b30ebf0088faaa60",
            "0x0000000000000000000000004200000000000000000000000000000000000006",
            "0x000000000000000000000000833589fcd6edb6e08f4c7c32d4f71b54bda02913"
          ],
          "data": "0x0000000000000000000000000000000000000000000000000000000000000bb8000000000000000000000000000000000000000000000000000000000000003c00000000000000000000000002c72a5e1125ad6f4b8d71e87af14bc8663b004000000000000000000000000000000000000000000003e08db11fa9d940000000fffffffffffffffffffffffffffffffffffffffffffffffffffffffffffd0765",
          "blockHash": "0x0000000000000000000000000000000000000000000000000000000000000000",
          "blockNumber": "0x29eb1be",
          "blockTimestamp": "0x69c7c05f",
          "transactionHash": "0x5355e033b570dddc322f97fabb2cf3f974e66132233b8f1a4997ae43d5ac7403",
          "transactionIndex": "0x81",
          "logIndex": "0x349",
          "removed": false
        }
      ],
      "logsBloom": "0x00000000000000000000000000000000000000000000000000000000000000000000000000000000000000000000000000000000000000000020000000000000000000000000040000000000000000000000000000000000000000000000000000000000000000000000000000000000010010000000000000000000000000000000000000004008400000000000000000000001000000000000000000200000000000000000000000000000000000000000000800000000000000000000020000000000000004000000000000000000400800000000000000000000000000000000000000000000000000000000000000000400000000000000000000000000",
      "type": "0x2",
      "transactionHash": "0x5355e033b570dddc322f97fabb2cf3f974e66132233b8f1a4997ae43d5ac7403",
      "transactionIndex": "0x81",
      "blockHash": "0x0000000000000000000000000000000000000000000000000000000000000000",
      "blockNumber": "0x29eb1be",
      "gasUsed": "0xcaf2",
      "effectiveGasPrice": "0x4c4b41",
      "blobGasUsed": "0x4d78",
      "from": "0x8114cdc7ddea2be36435351db2115887daef5e12",
      "to": "0x498581ff718922c3f8e6a244956af099b2652b2b",
      "contractAddress": null,
      "daFootprintGasScalar": "0x94",
      "l1BaseFeeScalar": "0x8dd",
      "l1BlobBaseFee": "0x279f1c",
      "l1BlobBaseFeeScalar": "0x101c12",
      "l1Fee": "0x19f57317",
      "l1GasPrice": "0x2a642e7",
      "l1GasUsed": "0x86c"
    }
  ],
  "libraries": [],
  "pending": [],
  "returns": {},
  "timestamp": 1774698590795,
  "chain": 8453,
  "commit": "d5d7b99"
}