{
  "transactions": [
    {
      "hash": "0xbe93310b0a7a6396889b6f9467fe81e3f7401a5787054f1c3010e4c735e71e04",
      "transactionType": "CREATE",
      "contractName": "LiquidityRouterUnichain",
      "contractAddress": "0x099f0570b20475f611e64658acc368320ec5b39c",
      "function": null,
      "arguments": [
        "0x1F98400000000000000000000000000000000004"
      ],
      "transaction": {
        "from": "0x8114cdc7ddea2be36435351db2115887daef5e12",
        "gas": "0x118184",
        "value": "0x0",
        "input": "0x60c034608757601f610fb438819003918201601f19168301916001600160401b03831184841017608b57808492602094604052833981010312608757516001600160a01b03811681036087576080523360a052604051610f1490816100a082396080518181816094015281816102350152610430015260a0518181816101020152610d040152f35b5f80fd5b634e487b7160e01b5f52604160045260245ffdfe6080806040526004361015610012575f80fd5b5f905f3560e01c9081638da5cb5b14610cbc5750806391dd7346146103ab578063b6d681f2146100bb5763dc4c90d31461004a575f80fd5b346100b857807ffffffffffffffffffffffffffffffffffffffffffffffffffffffffffffffffc3601126100b857602060405173ffffffffffffffffffffffffffffffffffffffff7f0000000000000000000000000000000000000000000000000000000000000000168152f35b80fd5b50346100b85760a07ffffffffffffffffffffffffffffffffffffffffffffffffffffffffffffffffc3601126100b85773ffffffffffffffffffffffffffffffffffffffff7f000000000000000000000000000000000000000000000000000000000000000016330361034d5760405160043573ffffffffffffffffffffffffffffffffffffffff811680910361033e57602082015260243573ffffffffffffffffffffffffffffffffffffffff811680910361033e57604082015260443562ffffff811680910361033e5760608201526064358060020b80910361033e576080820152816084359173ffffffffffffffffffffffffffffffffffffffff831680930361033a5761021b9260a08201523360c082015260c081526101e060e082610d6b565b604051809381927f48c89491000000000000000000000000000000000000000000000000000000008352602060048401526024830190610d28565b03818373ffffffffffffffffffffffffffffffffffffffff7f0000000000000000000000000000000000000000000000000000000000000000165af1801561034257610265575080f35b903d8082843e6102758184610d6b565b82019160208184031261033a5780519067ffffffffffffffff821161033e570182601f8201121561033a57805167ffffffffffffffff811161030d57829360207fffffffffffffffffffffffffffffffffffffffffffffffffffffffffffffffe0601f84011601906102ea6040519283610d6b565b82825260208385010111610308578160208094018483015e01015280f35b505050fd5b6024837f4e487b710000000000000000000000000000000000000000000000000000000081526041600452fd5b5080fd5b8280fd5b6040513d84823e3d90fd5b60646040517f08c379a000000000000000000000000000000000000000000000000000000000815260206004820152600a60248201527f4f6e6c79206f776e6572000000000000000000000000000000000000000000006044820152fd5b5034610bee5760207ffffffffffffffffffffffffffffffffffffffffffffffffffffffffffffffffc360112610bee5760043567ffffffffffffffff8111610bee5736602382011215610bee57806004013567ffffffffffffffff8111610bee57810190366024830111610bee5773ffffffffffffffffffffffffffffffffffffffff7f00000000000000000000000000000000000000000000000000000000000000001691823303610c5e5781900360c08112610bee5760a013610bee576040519160a0830183811067ffffffffffffffff821117610c315760405261049460248301610dac565b83526104a260448301610dac565b906020840191825260648301359162ffffff83168303610bee57604085019283526084840135928360020b8403610bee576060860193845260c46104e860a48701610dac565b956080880196875201359373ffffffffffffffffffffffffffffffffffffffff8516809503610bee5760405195608087019680881067ffffffffffffffff891117610c315773ffffffffffffffffffffffffffffffffffffffff976040527ffffffffffffffffffffffffffffffffffffffffffffffffffffffffffff2764c8152876020820192620d89b4845260408301946402540be400865262ffffff60608501975f89528d60046040519e8f927f5a6bcfda00000000000000000000000000000000000000000000000000000000845251169101528c6024868c5116910152511660448c01525160020b60648b0152511660848901525160020b60a48801525160020b60c48701525160e4860152516101048501526101406101248501525f610144850152604084610164815f865af1938415610c26575f94610bf2575b50858460801d80600f0b90604097610675838a516106468c82610d6b565b601581527f44656c746120616d6f756e7430202855534443293a00000000000000000000006020820152610e50565b87600f0b926106b9848b5161068a8d82610d6b565b601581527f44656c746120616d6f756e7431202857455448293a00000000000000000000006020820152610e50565b5f8112610a44575b8490818512610885575b136107cf575b505013610704575b61070086868051916106ec602084610d6b565b825251918291602083526020830190610d28565b0390f35b9073ffffffffffffffffffffffffffffffffffffffff869392511693813b156107cb5785517f0b0d9c0900000000000000000000000000000000000000000000000000000000815273ffffffffffffffffffffffffffffffffffffffff95861660048201529290941660248301526fffffffffffffffffffffffffffffffff9093166044820152918290606490829084905af180156107bf576107aa575b8080806106d9565b6107b5838092610d6b565b61033a575f6107a2565b505051903d90823e3d90fd5b8380fd5b5173ffffffffffffffffffffffffffffffffffffffff1690853b156107cb5788517f0b0d9c0900000000000000000000000000000000000000000000000000000000815273ffffffffffffffffffffffffffffffffffffffff928316600482015291871660248301526fffffffffffffffffffffffffffffffff166044820152828160648183895af190811561087b578391156106d1578161087091610d6b565b61033a57815f6106d1565b88513d85823e3d90fd5b90506fffffffffffffffffffffffffffffffff6108a185610dcd565b1673ffffffffffffffffffffffffffffffffffffffff875116883b15610a40578b51907fa584119400000000000000000000000000000000000000000000000000000000825260048201528681602481838d5af1908115610a36578791610a1d575b5087518c517f23b872dd00000000000000000000000000000000000000000000000000000000815273ffffffffffffffffffffffffffffffffffffffff8c811660048301528b811660248301526044820194909452926020928492606492849291165af180156109e6576109f0575b508951907f11da60b4000000000000000000000000000000000000000000000000000000008252602082600481898c5af19182156109e65786926109b7575b506106cb565b6109d89060203d6020116109df575b6109d08183610d6b565b810190610e41565b505f6109b1565b503d6109c6565b8b513d88823e3d90fd5b610a119060203d602011610a16575b610a098183610d6b565b810190610e29565b610972565b503d6109ff565b81610a2791610d6b565b610a3257855f610903565b8580fd5b8c513d89823e3d90fd5b8680fd5b90919293506fffffffffffffffffffffffffffffffff610a6384610dcd565b1673ffffffffffffffffffffffffffffffffffffffff835116873b15610bee578a51907fa584119400000000000000000000000000000000000000000000000000000000825260048201525f81602481838c5af18015610be457610bbf575b5082518a517f23b872dd00000000000000000000000000000000000000000000000000000000815273ffffffffffffffffffffffffffffffffffffffff808b166004830152808a16602483015260448201939093528c96959493929091602091839116818981606481015b03925af180156109e657610ba2575b508951907f11da60b4000000000000000000000000000000000000000000000000000000008252602082600481898c5af19182156109e6578692610b83575b5090506106c1565b610b9b9060203d6020116109df576109d08183610d6b565b505f610b7b565b610bba9060203d602011610a1657610a098183610d6b565b610b3c565b60209b505f610bd391969594939296610d6b565b610b2d5f9b50949091929394610ac2565b8b513d5f823e3d90fd5b5f80fd5b9093506040813d604011610c1e575b81610c0e60409383610d6b565b81010312610bee5751925f610628565b3d9150610c01565b6040513d5f823e3d90fd5b7f4e487b71000000000000000000000000000000000000000000000000000000005f52604160045260245ffd5b60646040517f08c379a000000000000000000000000000000000000000000000000000000000815260206004820152601060248201527f4f6e6c7920506f6f6c4d616e61676572000000000000000000000000000000006044820152fd5b34610bee575f7ffffffffffffffffffffffffffffffffffffffffffffffffffffffffffffffffc360112610bee5760209073ffffffffffffffffffffffffffffffffffffffff7f0000000000000000000000000000000000000000000000000000000000000000168152f35b907fffffffffffffffffffffffffffffffffffffffffffffffffffffffffffffffe0601f602080948051918291828752018686015e5f8582860101520116010190565b90601f7fffffffffffffffffffffffffffffffffffffffffffffffffffffffffffffffe0910116810190811067ffffffffffffffff821117610c3157604052565b359073ffffffffffffffffffffffffffffffffffffffff82168203610bee57565b600f0b7fffffffffffffffffffffffffffffffff800000000000000000000000000000008114610dfc575f0390565b7f4e487b71000000000000000000000000000000000000000000000000000000005f52601160045260245ffd5b90816020910312610bee57518015158103610bee5790565b90816020910312610bee575190565b5f91908291610ecb6040518092610e9960208301957f3ca6268e000000000000000000000000000000000000000000000000000000008752604060248501526064840190610d28565b906044830152037fffffffffffffffffffffffffffffffffffffffffffffffffffffffffffffffe08101835282610d6b565b51906a636f6e736f6c652e6c6f675afa5056fea26469706673582212209b73ba73cbca03701dd2cb8e6587f39b71dd85b9f29bef9053460411e76143ce64736f6c634300081a00330000000000000000000000001f98400000000000000000000000000000000004",
        "nonce": "0x11",
        "chainId": "0x82"
      },
      "additionalContracts": [],
      "isFixedGasLimit": false
    },
    {
      "hash": "0x6be54d5aeb67fbde00cf42c2f569b449ff13192244c4edb1b524672204bd2f04",
      "transactionType": "CALL",
      "contractName": null,
      "contractAddress": "0x078d782b760474a361dda0af3839290b0ef57ad6",
      "function": "approve(address,uint256)",
      "arguments": [
        "0x099F0570B20475F611e64658AcC368320ec5B39c",
        "115792089237316195423570985008687907853269984665640564039457584007913129639935"
      ],
      "transaction": {
        "from": "0x8114cdc7ddea2be36435351db2115887daef5e12",
        "to": "0x078d782b760474a361dda0af3839290b0ef57ad6",
        "gas": "0x13eb1",
        "value": "0x0",
        "input": "0x095ea7b3000000000000000000000000099f0570b20475f611e64658acc368320ec5b39cffffffffffffffffffffffffffffffffffffffffffffffffffffffffffffffff",
        "nonce": "0x12",
        "chainId": "0x82"
      },
      "additionalContracts": [],
      "isFixedGasLimit": false
    },
    {
      "hash": "0xee0e8f51b2d123ce80c1c7163a7173918dc2879eb930fae2d9f79c6c7fb75686",
      "transactionType": "CALL",
      "contractName": null,
      "contractAddress": "0x4200000000000000000000000000000000000006",
      "function": "approve(address,uint256)",
      "arguments": [
        "0x099F0570B20475F611e64658AcC368320ec5B39c",
        "115792089237316195423570985008687907853269984665640564039457584007913129639935"
      ],
      "transaction": {
        "from": "0x8114cdc7ddea2be36435351db2115887daef5e12",
        "to": "0x4200000000000000000000000000000000000006",
        "gas": "0x10972",
        "value": "0x0",
        "input": "0x095ea7b3000000000000000000000000099f0570b20475f611e64658acc368320ec5b39cffffffffffffffffffffffffffffffffffffffffffffffffffffffffffffffff",
        "nonce": "0x13",
        "chainId": "0x82"
      },
      "additionalContracts": [],
      "isFixedGasLimit": false
    },
    {
      "hash": "0xf4ef8ee405c0591e69239297ecec2fff1f36e6a1bf4c327b1f283cf66f004723",
      "transactionType": "CALL",
      "contractName": null,
      "contractAddress": "0x078d782b760474a361dda0af3839290b0ef57ad6",
      "function": "approve(address,uint256)",
      "arguments": [
        "0x1F98400000000000000000000000000000000004",
        "115792089237316195423570985008687907853269984665640564039457584007913129639935"
      ],
      "transaction": {
        "from": "0x8114cdc7ddea2be36435351db2115887daef5e12",
        "to": "0x078d782b760474a361dda0af3839290b0ef57ad6",
        "gas": "0xc093",
        "value": "0x0",
        "input": "0x095ea7b30000000000000000000000001f98400000000000000000000000000000000004ffffffffffffffffffffffffffffffffffffffffffffffffffffffffffffffff",
        "nonce": "0x14",
        "chainId": "0x82"
      },
      "additionalContracts": [],
      "isFixedGasLimit": false
    },
    {
      "hash": "0x53980925a410a5012f1e11132cf011d8b335e0ce532c658a07f3e120b391cac5",
      "transactionType": "CALL",
      "contractName": null,
      "contractAddress": "0x4200000000000000000000000000000000000006",
      "function": "approve(address,uint256)",
      "arguments": [
        "0x1F98400000000000000000000000000000000004",
        "115792089237316195423570985008687907853269984665640564039457584007913129639935"
      ],
      "transaction": {
        "from": "0x8114cdc7ddea2be36435351db2115887daef5e12",
        "to": "0x4200000000000000000000000000000000000006",
        "gas": "0x8e4b",
        "value": "0x0",
        "input": "0x095ea7b30000000000000000000000001f98400000000000000000000000000000000004ffffffffffffffffffffffffffffffffffffffffffffffffffffffffffffffff",
        "nonce": "0x15",
        "chainId": "0x82"
      },
      "additionalContracts": [],
      "isFixedGasLimit": false
    },
    {
      "hash": "0x57d9e8cdf05c70112c57572f37c4e030e5343681a0ba26e5d7eeddbfb955bb0e",
      "transactionType": "CALL",
      "contractName": "LiquidityRouterUnichain",
      "contractAddress": "0x099f0570b20475f611e64658acc368320ec5b39c",
      "function": "addLiquidity((address,address,uint24,int24,address))",
      "arguments": [
        "(0x078D782b760474a361dDA0AF3839290b0EF57AD6, 0x4200000000000000000000000000000000000006, 0, 60, 0x9138F699F5F5AB19ed8271c3B143B229781A8040)"
      ],
      "transaction": {
        "from": "0x8114cdc7ddea2be36435351db2115887daef5e12",
        "to": "0x099f0570b20475f611e64658acc368320ec5b39c",
        "gas": "0x38a4b",
        "value": "0x0",
        "input": "0xb6d681f2000000000000000000000000078d782b760474a361dda0af3839290b0ef57ad600000000000000000000000042000000000000000000000000000000000000060000000000000000000000000000000000000000000000000000000000000000000000000000000000000000000000000000000000000000000000000000003c0000000000000000000000009138f699f5f5ab19ed8271c3b143b229781a8040",
        "nonce": "0x16",
        "chainId": "0x82"
      },
      "additionalContracts": [],
      "isFixedGasLimit": false
    }
  ],
  "receipts": [
    {
      "status": "0x1",
      "cumulativeGasUsed": "0xff186",
      "logs": [],
      "logsBloom": "0x00000000000000000000000000000000000000000000000000000000000000000000000000000000000000000000000000000000000000000000000000000000000000000000000000000000000000000000000000000000000000000000000000000000000000000000000000000000000000000000000000000000000000000000000000000000000000000000000000000000000000000000000000000000000000000000000000000000000000000000000000000000000000000000000000000000000000000000000000000000000000000000000000000000000000000000000000000000000000000000000000000000000000000000000000000000",
      "type": "0x2",
      "transactionHash": "0xf4ef8ee405c0591e69239297ecec2fff1f36e6a1bf4c327b1f283cf66f004723",
      "transactionIndex": "0x3",
      "blockHash": "0x0000000000000000000000000000000000000000000000000000000000000000",
      "blockNumber": "0x2a70cb1",
      "gasUsed": "0xd7752",
      "effectiveGasPrice": "0x7a121",
      "blobGasUsed": "0xbcf70",
      "from": "0x8114cdc7ddea2be36435351db2115887daef5e12",
      "to": null,
      "contractAddress": "0x099f0570b20475f611e64658acc368320ec5b39c",
      "daFootprintGasScalar": "0x190",
      "l1BaseFeeScalar": "0x7d0",
      "l1BlobBaseFee": "0x4fa77b",
      "l1BlobBaseFeeScalar": "0xdbba0",
      "l1Fee": "0x4206b107",
      "l1GasPrice": "0x6309999",
      "l1GasUsed": "0x78fb"
    },
    {
      "status": "0x1",
      "cumulativeGasUsed": "0x10cb6f",
      "logs": [
        {
          "address": "0x078d782b760474a361dda0af3839290b0ef57ad6",
          "topics": [
            "0x8c5be1e5ebec7d5bd14f71427d1e84f3dd0314c0f7b2291e5b200ac8c7c3b925",
            "0x0000000000000000000000008114cdc7ddea2be36435351db2115887daef5e12",
            "0x000000000000000000000000099f0570b20475f611e64658acc368320ec5b39c"
          ],
          "data": "0xffffffffffffffffffffffffffffffffffffffffffffffffffffffffffffffff",
          "blockHash": "0x0000000000000000000000000000000000000000000000000000000000000000",
          "blockNumber": "0x2a70cb1",
          "blockTimestamp": "0x69d02c78",
          "transactionHash": "0xbe93310b0a7a6396889b6f9467fe81e3f7401a5787054f1c3010e4c735e71e04",
          "transactionIndex": "0x4",
          "logIndex": "0x1",
          "removed": false
        }
      ],
      "logsBloom": "0x00000000000000004000000000000000000000000000000000000000000000000000000000020000000002001000000000000000000000000000000000200000000000000000000000000000000000000000200000000000000000000000000000000000000000000000000000000000000000000000000000000008000000000000000000000000000000000000000000000000000000000000000000000000020000000000000000000000000000000000000000000000000000000000000000000000000000000040000000000000000000000000000000000000000000000010000000000000000000000000000000402000000000000000000000000000",
      "type": "0x2",
      "transactionHash": "0xbe93310b0a7a6396889b6f9467fe81e3f7401a5787054f1c3010e4c735e71e04",
      "transactionIndex": "0x4",
      "blockHash": "0x0000000000000000000000000000000000000000000000000000000000000000",
      "blockNumber": "0x2a70cb1",
      "gasUsed": "0xd9e9",
      "effectiveGasPrice": "0x7a121",
      "blobGasUsed": "0x9c40",
      "from": "0x8114cdc7ddea2be36435351db2115887daef5e12",
      "to": "0x078d782b760474a361dda0af3839290b0ef57ad6",
      "contractAddress": null,
      "daFootprintGasScalar": "0x190",
      "l1BaseFeeScalar": "0x7d0",
      "l1BlobBaseFee": "0x4fa77b",
      "l1BlobBaseFeeScalar": "0xdbba0",
      "l1Fee": "0x4206b107",
      "l1GasPrice": "0x6309999",
      "l1GasUsed": "0x640"
    },
    {
      "status": "0x1",
      "cumulativeGasUsed": "0x1180f0",
      "logs": [
        {
          "address": "0x4200000000000000000000000000000000000006",
          "topics": [
            "0x8c5be1e5ebec7d5bd14f71427d1e84f3dd0314c0f7b2291e5b200ac8c7c3b925",
            "0x0000000000000000000000008114cdc7ddea2be36435351db2115887daef5e12",
            "0x000000000000000000000000099f0570b20475f611e64658acc368320ec5b39c"
          ],
          "data": "0xffffffffffffffffffffffffffffffffffffffffffffffffffffffffffffffff",
          "blockHash": "0x0000000000000000000000000000000000000000000000000000000000000000",
          "blockNumber": "0x2a70cb1",
          "blockTimestamp": "0x69d02c78",
          "transactionHash": "0x6be54d5aeb67fbde00cf42c2f569b449ff13192244c4edb1b524672204bd2f04",
          "transactionIndex": "0x5",
          "logIndex": "0x2",
          "removed": false
        }
      ],
      "logsBloom": "0x00000000000000004000000000000000000000000000000000040000000000000000000000020000000002101000000000000000000000000000000000200000000000000000000000000000000000000000000000000000000000000000000000000000000000000000000000000000000000000000000000000008000000000000000000000000000000000000000000000000002000000000000000000000020000000000000000000000000000000000000000000000000000000000000000000000000000000040000000000000000000000000000000000000000000000010000000000000000000000000000000000000000000000000000000000000",
      "type": "0x2",
      "transactionHash": "0x6be54d5aeb67fbde00cf42c2f569b449ff13192244c4edb1b524672204bd2f04",
      "transactionIndex": "0x5",
      "blockHash": "0x0000000000000000000000000000000000000000000000000000000000000000",
      "blockNumber": "0x2a70cb1",
      "gasUsed": "0xb581",
      "effectiveGasPrice": "0x7a121",
      "blobGasUsed": "0x9c40",
      "from": "0x8114cdc7ddea2be36435351db2115887daef5e12",
      "to": "0x4200000000000000000000000000000000000006",
      "contractAddress": null,
      "daFootprintGasScalar": "0x190",
      "l1BaseFeeScalar": "0x7d0",
      "l1BlobBaseFee": "0x4fa77b",
      "l1BlobBaseFeeScalar": "0xdbba0",
      "l1Fee": "0x4206b107",
      "l1GasPrice": "0x6309999",
      "l1GasUsed": "0x640"
    },
    {
      "status": "0x1",
      "cumulativeGasUsed": "0x120c5d",
      "logs": [
        {
          "address": "0x078d782b760474a361dda0af3839290b0ef57ad6",
          "topics": [
            "0x8c5be1e5ebec7d5bd14f71427d1e84f3dd0314c0f7b2291e5b200ac8c7c3b925",
            "0x0000000000000000000000008114cdc7ddea2be36435351db2115887daef5e12",
            "0x0000000000000000000000001f98400000000000000000000000000000000004"
          ],
          "data": "0xffffffffffffffffffffffffffffffffffffffffffffffffffffffffffffffff",
          "blockHash": "0x0000000000000000000000000000000000000000000000000000000000000000",
          "blockNumber": "0x2a70cb1",
          "blockTimestamp": "0x69d02c78",
          "transactionHash": "0xee0e8f51b2d123ce80c1c7163a7173918dc2879eb930fae2d9f79c6c7fb75686",
          "transactionIndex": "0x6",
          "logIndex": "0x3",
          "removed": false
        }
      ],
      "logsBloom": "0x00000000000000000000000000000000000000000000000000000000000000000000000000020000000002001000000000000000000000000000000000200000000000000000000000000000000000000400200000000000000000000000000000000000000002000000000000000000000000000000000000000000000000000000000000000000000000000000000000000000000000000000000000000000020000008000000000000000000000000000000000000000000000000000000000000000000000000000000000000000000000000000000000000000000000000010000000000000000000000000000000402000000000000000000000000000",
      "type": "0x2",
      "transactionHash": "0xee0e8f51b2d123ce80c1c7163a7173918dc2879eb930fae2d9f79c6c7fb75686",
      "transactionIndex": "0x6",
      "blockHash": "0x0000000000000000000000000000000000000000000000000000000000000000",
      "blockNumber": "0x2a70cb1",
      "gasUsed": "0x8b6d",
      "effectiveGasPrice": "0x7a121",
      "blobGasUsed": "0x9c40",
      "from": "0x8114cdc7ddea2be36435351db2115887daef5e12",
      "to": "0x078d782b760474a361dda0af3839290b0ef57ad6",
      "contractAddress": null,
      "daFootprintGasScalar": "0x190",
      "l1BaseFeeScalar": "0x7d0",
      "l1BlobBaseFee": "0x4fa77b",
      "l1BlobBaseFeeScalar": "0xdbba0",
      "l1Fee": "0x4206b107",
      "l1GasPrice": "0x6309999",
      "l1GasUsed": "0x640"
    },
    {
      "status": "0x1",
      "cumulativeGasUsed": "0x127362",
      "logs": [
        {
          "address": "0x4200000000000000000000000000000000000006",
          "topics": [
            "0x8c5be1e5ebec7d5bd14f71427d1e84f3dd0314c0f7b2291e5b200ac8c7c3b925",
            "0x0000000000000000000000008114cdc7ddea2be36435351db2115887daef5e12",
            "0x0000000000000000000000001f98400000000000000000000000000000000004"
          ],
          "data": "0xffffffffffffffffffffffffffffffffffffffffffffffffffffffffffffffff",
          "blockHash": "0x0000000000000000000000000000000000000000000000000000000000000000",
          "blockNumber": "0x2a70cb1",
          "blockTimestamp": "0x69d02c78",
          "transactionHash": "0x53980925a410a5012f1e11132cf011d8b335e0ce532c658a07f3e120b391cac5",
          "transactionIndex": "0x7",
          "logIndex": "0x4",
          "removed": false
        }
      ],
      "logsBloom": "0x00000000000000000000000000000000000000000000000000040000000000000000000000020000000002101000000000000000000000000000000000200000000000000000000000000000000000000400000000000000000000000000000000000000000002000000000000000000000000000000000000000000000000000000000000000000000000000000000000000000002000000000000000000000020000008000000000000000000000000000000000000000000000000000000000000000000000000000000000000000000000000000000000000000000000000010000000000000000000000000000000000000000000000000000000000000",
      "type": "0x2",
      "transactionHash": "0x53980925a410a5012f1e11132cf011d8b335e0ce532c658a07f3e120b391cac5",
      "transactionIndex": "0x7",
      "blockHash": "0x0000000000000000000000000000000000000000000000000000000000000000",
      "blockNumber": "0x2a70cb1",
      "gasUsed": "0x6705",
      "effectiveGasPrice": "0x7a121",
      "blobGasUsed": "0x9c40",
      "from": "0x8114cdc7ddea2be36435351db2115887daef5e12",
      "to": "0x4200000000000000000000000000000000000006",
      "contractAddress": null,
      "daFootprintGasScalar": "0x190",
      "l1BaseFeeScalar": "0x7d0",
      "l1BlobBaseFee": "0x4fa77b",
      "l1BlobBaseFeeScalar": "0xdbba0",
      "l1Fee": "0x4206b107",
      "l1GasPrice": "0x6309999",
      "l1GasUsed": "0x640"
    },
    {
      "status": "0x1",
      "cumulativeGasUsed": "0x150386",
      "logs": [
        {
          "address": "0x1f98400000000000000000000000000000000004",
          "topics": [
            "0xf208f4912782fd25c7f114ca3723a2d5dd6f3bcc3ac8db5af63baa85f711d5ec",
            "0x0c8e31465c4023ec1f6c0becd753cf2a955051b2c6c502d1adb204d2595331fc",
            "0x000000000000000000000000099f0570b20475f611e64658acc368320ec5b39c"
          ],
          "data": "0xfffffffffffffffffffffffffffffffffffffffffffffffffffffffffff2764c00000000000000000000000000000000000000000000000000000000000d89b400000000000000000000000000000000000000000000000000000002540be4000000000000000000000000000000000000000000000000000000000000000000",
          "blockHash": "0x0000000000000000000000000000000000000000000000000000000000000000",
          "blockNumber": "0x2a70cb1",
          "blockTimestamp": "0x69d02c78",
          "transactionHash": "0x57d9e8cdf05c70112c57572f37c4e030e5343681a0ba26e5d7eeddbfb955bb0e",
          "transactionIndex": "0x8",
          "logIndex": "0x5",
          "removed": false
        },
        {
          "address": "0x078d782b760474a361dda0af3839290b0ef57ad6",
          "topics": [
            "0xddf252ad1be2c89b69c2b068fc378daa952ba7f163c4a11628f55a4df523b3ef",
            "0x0000000000000000000000008114cdc7ddea2be36435351db2115887daef5e12",
            "0x0000000000000000000000001f98400000000000000000000000000000000004"
          ],
          "data": "0x000000000000000000000000000000000000000000000000000000000006e9e3",
          "blockHash": "0x0000000000000000000000000000000000000000000000000000000000000000",
          "blockNumber": "0x2a70cb1",
          "blockTimestamp": "0x69d02c78",
          "transactionHash": "0x57d9e8cdf05c70112c57572f37c4e030e5343681a0ba26e5d7eeddbfb955bb0e",
          "transactionIndex": "0x8",
          "logIndex": "0x6",
          "removed": false
        },
        {
          "address": "0x4200000000000000000000000000000000000006",
          "topics": [
            "0xddf252ad1be2c89b69c2b068fc378daa952ba7f163c4a11628f55a4df523b3ef",
            "0x0000000000000000000000008114cdc7ddea2be36435351db2115887daef5e12",
            "0x0000000000000000000000001f98400000000000000000000000000000000004"
          ],
          "data": "0x0000000000000000000000000000000000000000000000000000c8bb2d05d347",
          "blockHash": "0x0000000000000000000000000000000000000000000000000000000000000000",
          "blockNumber": "0x2a70cb1",
          "blockTimestamp": "0x69d02c78",
          "transactionHash": "0x57d9e8cdf05c70112c57572f37c4e030e5343681a0ba26e5d7eeddbfb955bb0e",
          "transactionIndex": "0x8",
          "logIndex": "0x7",
          "removed": false
        }
      ],
      "logsBloom": "0x00000000000000004000000000000000000000000000000000040000000000000000000000020000000002101000000000000000000000000000000000000000000000000000000000000008000000000400200000000000000000000000100000000000000402000000000000000000000000000000000000000018020000000000010001000000000000000000000000000000002000000000000000000000000004008000000000000000100000000000000000000000000000000000000000000002000000000040000000000000000000000000000000000000000000040000000000000000000000000000000004402000000000000000000000000000",
      "type": "0x2",
      "transactionHash": "0x57d9e8cdf05c70112c57572f37c4e030e5343681a0ba26e5d7eeddbfb955bb0e",
      "transactionIndex": "0x8",
      "blockHash": "0x0000000000000000000000000000000000000000000000000000000000000000",
      "blockNumber": "0x2a70cb1",
      "gasUsed": "0x29024",
      "effectiveGasPrice": "0x7a121",
      "blobGasUsed": "0xb090",
      "from": "0x8114cdc7ddea2be36435351db2115887daef5e12",
      "to": "0x099f0570b20475f611e64658acc368320ec5b39c",
      "contractAddress": null,
      "daFootprintGasScalar": "0x190",
      "l1BaseFeeScalar": "0x7d0",
      "l1BlobBaseFee": "0x4fa77b",
      "l1BlobBaseFeeScalar": "0xdbba0",
      "l1Fee": "0x4206b107",
      "l1GasPrice": "0x6309999",
      "l1GasUsed": "0x710"
    }
  ],
  "libraries": [],
  "pending": [],
  "returns": {},
  "timestamp": 1775250551614,
  "chain": 130,
  "commit": "edd30e8"
}