{
  "transactions": [
    {
      "hash": "0x21be91dba48d58f202b178db3507a0fc221ad475425917fd7d90e8b039b1e4d1",
      "transactionType": "CREATE",
      "contractName": "SwapRouter",
      "contractAddress": "0xe1e422963508482c3c68c4a4be6e84c5bcc42c18",
      "function": null,
      "arguments": [
        "0x498581fF718922c3f8e6A244956aF099B2652b2b"
      ],
      "transaction": {
        "from": "0x8114cdc7ddea2be36435351db2115887daef5e12",
        "gas": "0xf31c9",
        "value": "0x0",
        "input": "0x60c034608e57601f610d9a38819003918201601f19168301916001600160401b03831184841017609257808492602094604052833981010312608e57516001600160a01b0381168103608e576080523360a052604051610cf390816100a7823960805181818160940152818161012a015281816108120152610af4015260a05181818161066c01526106de0152f35b5f80fd5b634e487b7160e01b5f52604160045260245ffdfe6080806040526004361015610012575f80fd5b5f905f3560e01c90816307a4cef714610690575080638da5cb5b1461062257806391dd7346146100bb5763dc4c90d31461004a575f80fd5b346100b857807ffffffffffffffffffffffffffffffffffffffffffffffffffffffffffffffffc3601126100b857602060405173ffffffffffffffffffffffffffffffffffffffff7f0000000000000000000000000000000000000000000000000000000000000000168152f35b80fd5b503461050a5760207ffffffffffffffffffffffffffffffffffffffffffffffffffffffffffffffffc36011261050a5760043567ffffffffffffffff811161050a573660238201121561050a57806004013567ffffffffffffffff811161050a57810136602482011161050a577f00000000000000000000000000000000000000000000000000000000000000009073ffffffffffffffffffffffffffffffffffffffff8216908133036105c45783900360e0811261050a5760a01361050a576040519160a0830183811067ffffffffffffffff821117610597576040526101a560248501610984565b83526101b360448501610984565b9060208401918252606485013562ffffff8116810361050a576040850190815260848601358060020b810361050a57606086019081526101f560a48801610984565b916080870192835260c48801359773ffffffffffffffffffffffffffffffffffffffff891680990361050a5760e461022e9101356109e6565b6040516060810181811067ffffffffffffffff82111761059757899573ffffffffffffffffffffffffffffffffffffffff9586926040525f84526020840194855262ffffff604085019673fffd8963efd1fc6a506488495d951d5263988d258852846040519a7ff3cd914c000000000000000000000000000000000000000000000000000000008c52511660048b0152848c511660248b0152511660448901525160020b60648801525116608486015251151560a48501525160c4840152511660e48201526101206101048201525f610124820152602081610144815f885af180156104ff57610568575b5061036061033f73ffffffffffffffffffffffffffffffffffffffff8651163084610a3f565b9173ffffffffffffffffffffffffffffffffffffffff845116903090610a3f565b935f821261053e575b5f851261050e575b5f821361045f575b50508483136103a8575b6103a485604051906103966020836109a5565b81526040519182918261093c565b0390f35b9073ffffffffffffffffffffffffffffffffffffffff859392511693813b1561045b576040517f0b0d9c0900000000000000000000000000000000000000000000000000000000815273ffffffffffffffffffffffffffffffffffffffff95861660048201529416602485015260448401919091528290606490829084905af180156104505761043b575b808080610383565b6104468280926109a5565b6100b8575f610433565b6040513d84823e3d90fd5b8380fd5b5173ffffffffffffffffffffffffffffffffffffffff16833b1561050a576040517f0b0d9c0900000000000000000000000000000000000000000000000000000000815273ffffffffffffffffffffffffffffffffffffffff9182166004820152908616602482015260448101919091525f8160648183875af180156104ff576104ea575b80610379565b6104f79195505f906109a5565b5f935f6104e4565b6040513d5f823e3d90fd5b5f80fd5b61053973ffffffffffffffffffffffffffffffffffffffff84511687610533886109e6565b91610ad9565b610371565b61056373ffffffffffffffffffffffffffffffffffffffff82511687610533856109e6565b610369565b6020813d60201161058f575b81610581602093836109a5565b8101031261050a5751610319565b3d9150610574565b7f4e487b71000000000000000000000000000000000000000000000000000000005f52604160045260245ffd5b60646040517f08c379a000000000000000000000000000000000000000000000000000000000815260206004820152601060248201527f4f6e6c7920506f6f6c4d616e61676572000000000000000000000000000000006044820152fd5b3461050a575f7ffffffffffffffffffffffffffffffffffffffffffffffffffffffffffffffffc36011261050a57602060405173ffffffffffffffffffffffffffffffffffffffff7f0000000000000000000000000000000000000000000000000000000000000000168152f35b3461050a577ffffffffffffffffffffffffffffffffffffffffffffffffffffffffffffffffc360160c0811261050a5760a01361050a5773ffffffffffffffffffffffffffffffffffffffff7f00000000000000000000000000000000000000000000000000000000000000001633036108e05760405160043573ffffffffffffffffffffffffffffffffffffffff811680910361050a57602082015260243573ffffffffffffffffffffffffffffffffffffffff811680910361050a57604082015260443562ffffff811680910361050a5760608201526064358060020b80910361050a57608082015260843573ffffffffffffffffffffffffffffffffffffffff811680910361050a57815f9160a06107f89401523360c082015260a43560e082015260e081526107c5610100826109a5565b604051809381927f48c894910000000000000000000000000000000000000000000000000000000083526004830161093c565b03818373ffffffffffffffffffffffffffffffffffffffff7f0000000000000000000000000000000000000000000000000000000000000000165af180156104ff5761084057005b3d805f833e61084f81836109a5565b81019060208183031261050a5780519067ffffffffffffffff821161050a570181601f8201121561050a57805167ffffffffffffffff811161059757604051926108c1601f83017fffffffffffffffffffffffffffffffffffffffffffffffffffffffffffffffe016602001856109a5565b8184526020828401011161050a575f928160208094018483015e010152005b807f08c379a0000000000000000000000000000000000000000000000000000000006064925260206004820152600a60248201527f4f6e6c79206f776e6572000000000000000000000000000000000000000000006044820152fd5b7fffffffffffffffffffffffffffffffffffffffffffffffffffffffffffffffe0601f602060409481855280519182918282880152018686015e5f8582860101520116010190565b359073ffffffffffffffffffffffffffffffffffffffff8216820361050a57565b90601f7fffffffffffffffffffffffffffffffffffffffffffffffffffffffffffffffe0910116810190811067ffffffffffffffff82111761059757604052565b7f80000000000000000000000000000000000000000000000000000000000000008114610a12575f0390565b7f4e487b71000000000000000000000000000000000000000000000000000000005f52601160045260245ffd5b73ffffffffffffffffffffffffffffffffffffffff809381602094165f52168252602460405f2060405194859384927ff135baaa0000000000000000000000000000000000000000000000000000000084526004840152165afa9081156104ff575f91610aaa575090565b90506020813d602011610ad1575b81610ac5602093836109a5565b8101031261050a575190565b3d9150610ab8565b9092919273ffffffffffffffffffffffffffffffffffffffff7f00000000000000000000000000000000000000000000000000000000000000001690813b1561050a576040517fa584119400000000000000000000000000000000000000000000000000000000815273ffffffffffffffffffffffffffffffffffffffff5f9416908160048201525f8160248183885af180156104ff57610c8b575b5060646020928573ffffffffffffffffffffffffffffffffffffffff93604051998a9586947f23b872dd00000000000000000000000000000000000000000000000000000000865216600485015287602485015260448401525af193841561045057829394610c47575b506020906004604051809481937f11da60b40000000000000000000000000000000000000000000000000000000083525af1801561045057610c1f575050565b602090813d8311610c40575b610c3581836109a5565b810103126100b85750565b503d610c2b565b9091506020813d602011610c83575b81610c63602093836109a5565b81010312610c7f57518015158103610c7f575081906020610bdf565b8280fd5b3d9150610c56565b73ffffffffffffffffffffffffffffffffffffffff919450602092610cb25f6064936109a5565b5f9592509250610b7556fea2646970667358221220553e6e2fba629afb8d7e0facffd64c0f34840e94aef6d3f85308c6999c054dc564736f6c634300081a0033000000000000000000000000498581ff718922c3f8e6a244956af099b2652b2b",
        "nonce": "0x13",
        "chainId": "0x2105"
      },
      "additionalContracts": [],
      "isFixedGasLimit": false
    },
    {
      "hash": "0x5816756035fb343e092fa678c8c965475d599249b3057ec8b18ef3fb944bc394",
      "transactionType": "CALL",
      "contractName": null,
      "contractAddress": "0x833589fcd6edb6e08f4c7c32d4f71b54bda02913",
      "function": "approve(address,uint256)",
      "arguments": [
        "0xe1e422963508482c3c68C4A4BE6e84C5bcC42C18",
        "115792089237316195423570985008687907853269984665640564039457584007913129639935"
      ],
      "transaction": {
        "from": "0x8114cdc7ddea2be36435351db2115887daef5e12",
        "to": "0x833589fcd6edb6e08f4c7c32d4f71b54bda02913",
        "gas": "0x13eb1",
        "value": "0x0",
        "input": "0x095ea7b3000000000000000000000000e1e422963508482c3c68c4a4be6e84c5bcc42c18ffffffffffffffffffffffffffffffffffffffffffffffffffffffffffffffff",
        "nonce": "0x14",
        "chainId": "0x2105"
      },
      "additionalContracts": [],
      "isFixedGasLimit": false
    },
    {
      "hash": "0x7376077d500d089fcced160041eecdac9ec112157fd04572f0b96d2f20c5ffaa",
      "transactionType": "CALL",
      "contractName": null,
      "contractAddress": "0x4200000000000000000000000000000000000006",
      "function": "approve(address,uint256)",
      "arguments": [
        "0xe1e422963508482c3c68C4A4BE6e84C5bcC42C18",
        "115792089237316195423570985008687907853269984665640564039457584007913129639935"
      ],
      "transaction": {
        "from": "0x8114cdc7ddea2be36435351db2115887daef5e12",
        "to": "0x4200000000000000000000000000000000000006",
        "gas": "0xfa0a",
        "value": "0x0",
        "input": "0x095ea7b3000000000000000000000000e1e422963508482c3c68c4a4be6e84c5bcc42c18ffffffffffffffffffffffffffffffffffffffffffffffffffffffffffffffff",
        "nonce": "0x15",
        "chainId": "0x2105"
      },
      "additionalContracts": [],
      "isFixedGasLimit": false
    },
    {
      "hash": "0xc54406dca5aac72dab7606749a08ea4de9fbf413dc1099d3832ee0b4e5579622",
      "transactionType": "CALL",
      "contractName": "SwapRouter",
      "contractAddress": "0xe1e422963508482c3c68c4a4be6e84c5bcc42c18",
      "function": "executeSwap((address,address,uint24,int24,address),uint256)",
      "arguments": [
        "(0x4200000000000000000000000000000000000006, 0x833589fCD6eDb6E08f4c7C32D4f71b54bdA02913, 3000, 60, 0x45d971BdE51dd5E109036aB70a4E0b0eD2Dc4040)",
        "500000"
      ],
      "transaction": {
        "from": "0x8114cdc7ddea2be36435351db2115887daef5e12",
        "to": "0xe1e422963508482c3c68c4a4be6e84c5bcc42c18",
        "gas": "0x6372e",
        "value": "0x0",
        "input": "0x07a4cef70000000000000000000000004200000000000000000000000000000000000006000000000000000000000000833589fcd6edb6e08f4c7c32d4f71b54bda029130000000000000000000000000000000000000000000000000000000000000bb8000000000000000000000000000000000000000000000000000000000000003c00000000000000000000000045d971bde51dd5e109036ab70a4e0b0ed2dc4040000000000000000000000000000000000000000000000000000000000007a120",
        "nonce": "0x16",
        "chainId": "0x2105"
      },
      "additionalContracts": [],
      "isFixedGasLimit": false
    }
  ],
  "receipts": [
    {
      "status": "0x1",
      "cumulativeGasUsed": "0x11adc5a",
      "logs": [],
      "logsBloom": "0x00000000000000000000000000000000000000000000000000000000000000000000000000000000000000000000000000000000000000000000000000000000000000000000000000000000000000000000000000000000000000000000000000000000000000000000000000000000000000000000000000000000000000000000000000000000000000000000000000000000000000000000000000000000000000000000000000000000000000000000000000000000000000000000000000000000000000000000000000000000000000000000000000000000000000000000000000000000000000000000000000000000000000000000000000000000",
      "type": "0x2",
      "transactionHash": "0x21be91dba48d58f202b178db3507a0fc221ad475425917fd7d90e8b039b1e4d1",
      "transactionIndex": "0x49",
      "blockHash": "0x0000000000000000000000000000000000000000000000000000000000000000",
      "blockNumber": "0x29f8fd4",
      "gasUsed": "0xbb025",
      "effectiveGasPrice": "0x4c4b41",
      "blobGasUsed": "0x3c3bc",
      "from": "0x8114cdc7ddea2be36435351db2115887daef5e12",
      "to": null,
      "contractAddress": "0xe1e422963508482c3c68c4a4be6e84c5bcc42c18",
      "daFootprintGasScalar": "0x94",
      "l1BaseFeeScalar": "0x8dd",
      "l1BlobBaseFee": "0x6df1b6",
      "l1BlobBaseFeeScalar": "0x101c12",
      "l1Fee": "0x44842914",
      "l1GasPrice": "0x6622a27",
      "l1GasUsed": "0x6833"
    },
    {
      "status": "0x1",
      "cumulativeGasUsed": "0x2040fdb",
      "logs": [
        {
          "address": "0x833589fcd6edb6e08f4c7c32d4f71b54bda02913",
          "topics": [
            "0x8c5be1e5ebec7d5bd14f71427d1e84f3dd0314c0f7b2291e5b200ac8c7c3b925",
            "0x0000000000000000000000008114cdc7ddea2be36435351db2115887daef5e12",
            "0x000000000000000000000000e1e422963508482c3c68c4a4be6e84c5bcc42c18"
          ],
          "data": "0xffffffffffffffffffffffffffffffffffffffffffffffffffffffffffffffff",
          "blockHash": "0x0000000000000000000000000000000000000000000000000000000000000000",
          "blockNumber": "0x29f8fd5",
          "blockTimestamp": "0x69c97c8d",
          "transactionHash": "0x5816756035fb343e092fa678c8c965475d599249b3057ec8b18ef3fb944bc394",
          "transactionIndex": "0x49",
          "logIndex": "0x486",
          "removed": false
        }
      ],
      "logsBloom": "0x00000000000000000000000000000000000000000000000000000000000000000000000000020000000002001000500000000002000000000000000000200000000000000000000000000000000000000000000000080000000000000000000000800000000000000000000000000000000000000000000000000000000000000000000000000000000000000000000000000000000000000000000000000000020000000000000000000000000000000000000000000000100000000000000000000000000000000000000000000000000000000000000000000000000000000010000000000000000000000000000000000000000000000000000000000000",
      "type": "0x2",
      "transactionHash": "0x5816756035fb343e092fa678c8c965475d599249b3057ec8b18ef3fb944bc394",
      "transactionIndex": "0x49",
      "blockHash": "0x0000000000000000000000000000000000000000000000000000000000000000",
      "blockNumber": "0x29f8fd5",
      "gasUsed": "0xd9e9",
      "effectiveGasPrice": "0x4c4b41",
      "blobGasUsed": "0x39d0",
      "from": "0x8114cdc7ddea2be36435351db2115887daef5e12",
      "to": "0x833589fcd6edb6e08f4c7c32d4f71b54bda02913",
      "contractAddress": null,
      "daFootprintGasScalar": "0x94",
      "l1BaseFeeScalar": "0x8dd",
      "l1BlobBaseFee": "0x6df1b6",
      "l1BlobBaseFeeScalar": "0x101c12",
      "l1Fee": "0x44842914",
      "l1GasPrice": "0x6622a27",
      "l1GasUsed": "0x640"
    },
    {
      "status": "0x1",
      "cumulativeGasUsed": "0x145a9c9",
      "logs": [
        {
          "address": "0x4200000000000000000000000000000000000006",
          "topics": [
            "0x8c5be1e5ebec7d5bd14f71427d1e84f3dd0314c0f7b2291e5b200ac8c7c3b925",
            "0x0000000000000000000000008114cdc7ddea2be36435351db2115887daef5e12",
            "0x000000000000000000000000e1e422963508482c3c68c4a4be6e84c5bcc42c18"
          ],
          "data": "0xffffffffffffffffffffffffffffffffffffffffffffffffffffffffffffffff",
          "blockHash": "0x0000000000000000000000000000000000000000000000000000000000000000",
          "blockNumber": "0x29f8fd6",
          "blockTimestamp": "0x69c97c8f",
          "transactionHash": "0x7376077d500d089fcced160041eecdac9ec112157fd04572f0b96d2f20c5ffaa",
          "transactionIndex": "0x68",
          "logIndex": "0x242",
          "removed": false
        }
      ],
      "logsBloom": "0x00000000000000000000000000000000000000000000000000040000000000000000000000020000000002101000400000000002000000000000000000200000000000000000000000000000000000000000000000000000000000000000000000000000000000000000000000000000000000000000000000000000000000000000000000000000000000000000000000000000002000000000000000000000020000000000000000000000000000000000000000000000100000000000000000000000000000000000000000000000000000000000000000000000000000000010000000000000000000000000000000000000000000000000000000000000",
      "type": "0x2",
      "transactionHash": "0x7376077d500d089fcced160041eecdac9ec112157fd04572f0b96d2f20c5ffaa",
      "transactionIndex": "0x68",
      "blockHash": "0x0000000000000000000000000000000000000000000000000000000000000000",
      "blockNumber": "0x29f8fd6",
      "gasUsed": "0xb507",
      "effectiveGasPrice": "0x4c4b41",
      "blobGasUsed": "0x39d0",
      "from": "0x8114cdc7ddea2be36435351db2115887daef5e12",
      "to": "0x4200000000000000000000000000000000000006",
      "contractAddress": null,
      "daFootprintGasScalar": "0x94",
      "l1BaseFeeScalar": "0x8dd",
      "l1BlobBaseFee": "0x6df1b6",
      "l1BlobBaseFeeScalar": "0x101c12",
      "l1Fee": "0x3368173e0",
      "l1GasPrice": "0x6622a27",
      "l1GasUsed": "0x640"
    },
    {
      "status": "0x1",
      "cumulativeGasUsed": "0x1747bf9",
      "logs": [
        {
          "address": "0x498581ff718922c3f8e6a244956af099b2652b2b",
          "topics": [
            "0x40e9cecb9f5f1f1c5b9c97dec2917b7ee92e57ba5563708daca94dd84ad7112f",
            "0x46d245ea80a77f75aa95f84bdcea9a706f7af1e25168ce25102c268a93432148",
            "0x000000000000000000000000e1e422963508482c3c68c4a4be6e84c5bcc42c18"
          ],
          "data": "0x00000000000000000000000000000000000000000000000000006a27215e2dcdfffffffffffffffffffffffffffffffffffffffffffffffffffffffffff85ee00000000000000000000000000000000000000000000637a67cadf5f23f54257e00000000000000000000000000000000000000000000000000000002540be400fffffffffffffffffffffffffffffffffffffffffffffffffffffffffffd2c4a0000000000000000000000000000000000000000000000000000000000000bb8",
          "blockHash": "0x0000000000000000000000000000000000000000000000000000000000000000",
          "blockNumber": "0x29f8fd7",
          "blockTimestamp": "0x69c97c91",
          "transactionHash": "0xc54406dca5aac72dab7606749a08ea4de9fbf413dc1099d3832ee0b4e5579622",
          "transactionIndex": "0x4d",
          "logIndex": "0x272",
          "removed": false
        },
        {
          "address": "0x498581ff718922c3f8e6a244956af099b2652b2b",
          "topics": [
            "0x40e9cecb9f5f1f1c5b9c97dec2917b7ee92e57ba5563708daca94dd84ad7112f",
            "0x46d245ea80a77f75aa95f84bdcea9a706f7af1e25168ce25102c268a93432148",
            "0x00000000000000000000000045d971bde51dd5e109036ab70a4e0b0ed2dc4040"
          ],
          "data": "0xfffffffffffffffffffffffffffffffffffffffffffffffffffffaf06bff8520000000000000000000000000000000000000000000000000000000000000b94a00000000000000000000000000000000000000000005e8115cd87672ef5cbd3700000000000000000000000000000000000000000000000000000002540be400fffffffffffffffffffffffffffffffffffffffffffffffffffffffffffd28480000000000000000000000000000000000000000000000000000000000000bb8",
          "blockHash": "0x0000000000000000000000000000000000000000000000000000000000000000",
          "blockNumber": "0x29f8fd7",
          "blockTimestamp": "0x69c97c91",
          "transactionHash": "0xc54406dca5aac72dab7606749a08ea4de9fbf413dc1099d3832ee0b4e5579622",
          "transactionIndex": "0x4d",
          "logIndex": "0x273",
          "removed": false
        },
        {
          "address": "0x4200000000000000000000000000000000000006",
          "topics": [
            "0xddf252ad1be2c89b69c2b068fc378daa952ba7f163c4a11628f55a4df523b3ef",
            "0x00000000000000000000000045d971bde51dd5e109036ab70a4e0b0ed2dc4040",
            "0x000000000000000000000000498581ff718922c3f8e6a244956af099b2652b2b"
          ],
          "data": "0x0000000000000000000000000000000000000000000000000000050f94007ae0",
          "blockHash": "0x0000000000000000000000000000000000000000000000000000000000000000",
          "blockNumber": "0x29f8fd7",
          "blockTimestamp": "0x69c97c91",
          "transactionHash": "0xc54406dca5aac72dab7606749a08ea4de9fbf413dc1099d3832ee0b4e5579622",
          "transactionIndex": "0x4d",
          "logIndex": "0x274",
          "removed": false
        },
        {
          "address": "0x833589fcd6edb6e08f4c7c32d4f71b54bda02913",
          "topics": [
            "0xddf252ad1be2c89b69c2b068fc378daa952ba7f163c4a11628f55a4df523b3ef",
            "0x000000000000000000000000498581ff718922c3f8e6a244956af099b2652b2b",
            "0x00000000000000000000000073192db84fb29d54a4090e3ab62f3bcc39888d5a"
          ],
          "data": "0x000000000000000000000000000000000000000000000000000000000000b933",
          "blockHash": "0x0000000000000000000000000000000000000000000000000000000000000000",
          "blockNumber": "0x29f8fd7",
          "blockTimestamp": "0x69c97c91",
          "transactionHash": "0xc54406dca5aac72dab7606749a08ea4de9fbf413dc1099d3832ee0b4e5579622",
          "transactionIndex": "0x4d",
          "logIndex": "0x275",
          "removed": false
        },
        {
          "address": "0x833589fcd6edb6e08f4c7c32d4f71b54bda02913",
          "topics": [
            "0xddf252ad1be2c89b69c2b068fc378daa952ba7f163c4a11628f55a4df523b3ef",
            "0x000000000000000000000000498581ff718922c3f8e6a244956af099b2652b2b",
            "0x00000000000000000000000045d971bde51dd5e109036ab70a4e0b0ed2dc4040"
          ],
          "data": "0x0000000000000000000000000000000000000000000000000000000000000017",
          "blockHash": "0x0000000000000000000000000000000000000000000000000000000000000000",
          "blockNumber": "0x29f8fd7",
          "blockTimestamp": "0x69c97c91",
          "transactionHash": "0xc54406dca5aac72dab7606749a08ea4de9fbf413dc1099d3832ee0b4e5579622",
          "transactionIndex": "0x4d",
          "logIndex": "0x276",
          "removed": false
        },
        {
          "address": "0x45d971bde51dd5e109036ab70a4e0b0ed2dc4040",
          "topics": [
            "0xf1d6c8ee14081f641e2073a1064d870f135f1001a301c6b14a7b9655672fec11",
            "0x0000000000000000000000000000000000000000000000000000000000000000",
            "0x000000000000000000000000833589fcd6edb6e08f4c7c32d4f71b54bda02913"
          ],
          "data": "0x0000000000000000000000000000000000000000000000000000000000000017",
          "blockHash": "0x0000000000000000000000000000000000000000000000000000000000000000",
          "blockNumber": "0x29f8fd7",
          "blockTimestamp": "0x69c97c91",
          "transactionHash": "0xc54406dca5aac72dab7606749a08ea4de9fbf413dc1099d3832ee0b4e5579622",
          "transactionIndex": "0x4d",
          "logIndex": "0x277",
          "removed": false
        },
        {
          "address": "0x4200000000000000000000000000000000000006",
          "topics": [
            "0xddf252ad1be2c89b69c2b068fc378daa952ba7f163c4a11628f55a4df523b3ef",
            "0x00000000000000000000000045d971bde51dd5e109036ab70a4e0b0ed2dc4040",
            "0x00000000000000000000000073192db84fb29d54a4090e3ab62f3bcc39888d5a"
          ],
          "data": "0x000000000000000000000000000000000000000000000000000055e37c79c520",
          "blockHash": "0x0000000000000000000000000000000000000000000000000000000000000000",
          "blockNumber": "0x29f8fd7",
          "blockTimestamp": "0x69c97c91",
          "transactionHash": "0xc54406dca5aac72dab7606749a08ea4de9fbf413dc1099d3832ee0b4e5579622",
          "transactionIndex": "0x4d",
          "logIndex": "0x278",
          "removed": false
        },
        {
          "address": "0x45d971bde51dd5e109036ab70a4e0b0ed2dc4040",
          "topics": [
            "0xb12dcfc2d304ece69fcdcedba9161f1adca47570ba8b901188268eaa69d86720",
            "0x0000000000000000000000000000000000000000000000000000000000000000"
          ],
          "data": "0x00000000000000000000000000000000000000000000000000000000000000200000000000000000000000000000000000000000000000000000000000000010536c697070616765457863656564656400000000000000000000000000000000",
          "blockHash": "0x0000000000000000000000000000000000000000000000000000000000000000",
          "blockNumber": "0x29f8fd7",
          "blockTimestamp": "0x69c97c91",
          "transactionHash": "0xc54406dca5aac72dab7606749a08ea4de9fbf413dc1099d3832ee0b4e5579622",
          "transactionIndex": "0x4d",
          "logIndex": "0x279",
          "removed": false
        },
        {
          "address": "0x45d971bde51dd5e109036ab70a4e0b0ed2dc4040",
          "topics": [
            "0x2e22da0df0a2378dcccd637d72017e86a9701780ae19894d045a3b71ec018d95",
            "0x0000000000000000000000000000000000000000000000000000000000000000",
            "0x00000000000000000000000073192db84fb29d54a4090e3ab62f3bcc39888d5a"
          ],
          "data": "0x0000000000000000000000000000000000000000000000000000050f94007ae0000000000000000000000000000000000000000000000000000000000000b93300000000000000000000000000000000000000000000000000000002187538e9",
          "blockHash": "0x0000000000000000000000000000000000000000000000000000000000000000",
          "blockNumber": "0x29f8fd7",
          "blockTimestamp": "0x69c97c91",
          "transactionHash": "0xc54406dca5aac72dab7606749a08ea4de9fbf413dc1099d3832ee0b4e5579622",
          "transactionIndex": "0x4d",
          "logIndex": "0x27a",
          "removed": false
        },
        {
          "address": "0x833589fcd6edb6e08f4c7c32d4f71b54bda02913",
          "topics": [
            "0xddf252ad1be2c89b69c2b068fc378daa952ba7f163c4a11628f55a4df523b3ef",
            "0x0000000000000000000000008114cdc7ddea2be36435351db2115887daef5e12",
            "0x000000000000000000000000498581ff718922c3f8e6a244956af099b2652b2b"
          ],
          "data": "0x000000000000000000000000000000000000000000000000000000000007a120",
          "blockHash": "0x0000000000000000000000000000000000000000000000000000000000000000",
          "blockNumber": "0x29f8fd7",
          "blockTimestamp": "0x69c97c91",
          "transactionHash": "0xc54406dca5aac72dab7606749a08ea4de9fbf413dc1099d3832ee0b4e5579622",
          "transactionIndex": "0x4d",
          "logIndex": "0x27b",
          "removed": false
        },
        {
          "address": "0x4200000000000000000000000000000000000006",
          "topics": [
            "0xddf252ad1be2c89b69c2b068fc378daa952ba7f163c4a11628f55a4df523b3ef",
            "0x000000000000000000000000498581ff718922c3f8e6a244956af099b2652b2b",
            "0x0000000000000000000000008114cdc7ddea2be36435351db2115887daef5e12"
          ],
          "data": "0x00000000000000000000000000000000000000000000000000006a27215e2dcd",
          "blockHash": "0x0000000000000000000000000000000000000000000000000000000000000000",
          "blockNumber": "0x29f8fd7",
          "blockTimestamp": "0x69c97c91",
          "transactionHash": "0xc54406dca5aac72dab7606749a08ea4de9fbf413dc1099d3832ee0b4e5579622",
          "transactionIndex": "0x4d",
          "logIndex": "0x27c",
          "removed": false
        }
      ],
      "logsBloom": "0x00000000000000000000200000000000000000000044000000040200000000000020000000020000002202101000500000000002040000000000000000000000200000000000040000000008000000000000000000080020000000000000000000800000420000000000000000800800010080040000000000000010000080000001002000004000400000000000000000000000002001004000010400000020004000000000000000000000000000000000000000000000100000000000000000000082000000000000000000000000000800000000000000000000000020000000000000000000204000000000000000000408000000000000000000000000",
      "type": "0x2",
      "transactionHash": "0xc54406dca5aac72dab7606749a08ea4de9fbf413dc1099d3832ee0b4e5579622",
      "transactionIndex": "0x4d",
      "blockHash": "0x0000000000000000000000000000000000000000000000000000000000000000",
      "blockNumber": "0x29f8fd7",
      "gasUsed": "0x47ffd",
      "effectiveGasPrice": "0x4c4b41",
      "blobGasUsed": "0x4a00",
      "from": "0x8114cdc7ddea2be36435351db2115887daef5e12",
      "to": "0xe1e422963508482c3c68c4a4be6e84c5bcc42c18",
      "contractAddress": null,
      "daFootprintGasScalar": "0x94",
      "l1BaseFeeScalar": "0x8dd",
      "l1BlobBaseFee": "0x6df1b6",
      "l1BlobBaseFeeScalar": "0x101c12",
      "l1Fee": "0xf7a5d70d",
      "l1GasPrice": "0x6622a27",
      "l1GasUsed": "0x80e"
    }
  ],
  "libraries": [],
  "pending": [],
  "returns": {},
  "timestamp": 1774812304213,
  "chain": 8453,
  "commit": "c318398"
}