{
  "transactions": [
    {
      "hash": "0x041fec968bb28c80d6ae989f607ae5cab3058d0fe926c910768851165d9e37c7",
      "transactionType": "CREATE",
      "contractName": "LiquidityRouter",
      "contractAddress": "0xbd9941df6eca4d622f37213281ae43bf8cba9111",
      "function": null,
      "arguments": [
        "0x498581fF718922c3f8e6A244956aF099B2652b2b"
      ],
      "transaction": {
        "from": "0x8114cdc7ddea2be36435351db2115887daef5e12",
        "gas": "0x11827d",
        "value": "0x0",
        "input": "0x60c034608757601f610fb438819003918201601f19168301916001600160401b03831184841017608b57808492602094604052833981010312608757516001600160a01b03811681036087576080523360a052604051610f1490816100a082396080518181816094015281816102350152610430015260a0518181816101020152610d040152f35b5f80fd5b634e487b7160e01b5f52604160045260245ffdfe6080806040526004361015610012575f80fd5b5f905f3560e01c9081638da5cb5b14610cbc5750806391dd7346146103ab578063b6d681f2146100bb5763dc4c90d31461004a575f80fd5b346100b857807ffffffffffffffffffffffffffffffffffffffffffffffffffffffffffffffffc3601126100b857602060405173ffffffffffffffffffffffffffffffffffffffff7f0000000000000000000000000000000000000000000000000000000000000000168152f35b80fd5b50346100b85760a07ffffffffffffffffffffffffffffffffffffffffffffffffffffffffffffffffc3601126100b85773ffffffffffffffffffffffffffffffffffffffff7f000000000000000000000000000000000000000000000000000000000000000016330361034d5760405160043573ffffffffffffffffffffffffffffffffffffffff811680910361033e57602082015260243573ffffffffffffffffffffffffffffffffffffffff811680910361033e57604082015260443562ffffff811680910361033e5760608201526064358060020b80910361033e576080820152816084359173ffffffffffffffffffffffffffffffffffffffff831680930361033a5761021b9260a08201523360c082015260c081526101e060e082610d6b565b604051809381927f48c89491000000000000000000000000000000000000000000000000000000008352602060048401526024830190610d28565b03818373ffffffffffffffffffffffffffffffffffffffff7f0000000000000000000000000000000000000000000000000000000000000000165af1801561034257610265575080f35b903d8082843e6102758184610d6b565b82019160208184031261033a5780519067ffffffffffffffff821161033e570182601f8201121561033a57805167ffffffffffffffff811161030d57829360207fffffffffffffffffffffffffffffffffffffffffffffffffffffffffffffffe0601f84011601906102ea6040519283610d6b565b82825260208385010111610308578160208094018483015e01015280f35b505050fd5b6024837f4e487b710000000000000000000000000000000000000000000000000000000081526041600452fd5b5080fd5b8280fd5b6040513d84823e3d90fd5b60646040517f08c379a000000000000000000000000000000000000000000000000000000000815260206004820152600a60248201527f4f6e6c79206f776e6572000000000000000000000000000000000000000000006044820152fd5b5034610bee5760207ffffffffffffffffffffffffffffffffffffffffffffffffffffffffffffffffc360112610bee5760043567ffffffffffffffff8111610bee5736602382011215610bee57806004013567ffffffffffffffff8111610bee57810190366024830111610bee5773ffffffffffffffffffffffffffffffffffffffff7f00000000000000000000000000000000000000000000000000000000000000001691823303610c5e5781900360c08112610bee5760a013610bee576040519160a0830183811067ffffffffffffffff821117610c315760405261049460248301610dac565b83526104a260448301610dac565b906020840191825260648301359162ffffff83168303610bee57604085019283526084840135928360020b8403610bee576060860193845260c46104e860a48701610dac565b956080880196875201359373ffffffffffffffffffffffffffffffffffffffff8516809503610bee5760405195608087019680881067ffffffffffffffff891117610c315773ffffffffffffffffffffffffffffffffffffffff976040527ffffffffffffffffffffffffffffffffffffffffffffffffffffffffffff2764c8152876020820192620d89b4845260408301946402540be400865262ffffff60608501975f89528d60046040519e8f927f5a6bcfda00000000000000000000000000000000000000000000000000000000845251169101528c6024868c5116910152511660448c01525160020b60648b0152511660848901525160020b60a48801525160020b60c48701525160e4860152516101048501526101406101248501525f610144850152604084610164815f865af1938415610c26575f94610bf2575b50858460801d80600f0b90604097610675838a516106468c82610d6b565b601581527f44656c746120616d6f756e7430202857455448293a00000000000000000000006020820152610e50565b87600f0b926106b9848b5161068a8d82610d6b565b601581527f44656c746120616d6f756e7431202855534443293a00000000000000000000006020820152610e50565b5f8112610a44575b8490818512610885575b136107cf575b505013610704575b61070086868051916106ec602084610d6b565b825251918291602083526020830190610d28565b0390f35b9073ffffffffffffffffffffffffffffffffffffffff869392511693813b156107cb5785517f0b0d9c0900000000000000000000000000000000000000000000000000000000815273ffffffffffffffffffffffffffffffffffffffff95861660048201529290941660248301526fffffffffffffffffffffffffffffffff9093166044820152918290606490829084905af180156107bf576107aa575b8080806106d9565b6107b5838092610d6b565b61033a575f6107a2565b505051903d90823e3d90fd5b8380fd5b5173ffffffffffffffffffffffffffffffffffffffff1690853b156107cb5788517f0b0d9c0900000000000000000000000000000000000000000000000000000000815273ffffffffffffffffffffffffffffffffffffffff928316600482015291871660248301526fffffffffffffffffffffffffffffffff166044820152828160648183895af190811561087b578391156106d1578161087091610d6b565b61033a57815f6106d1565b88513d85823e3d90fd5b90506fffffffffffffffffffffffffffffffff6108a185610dcd565b1673ffffffffffffffffffffffffffffffffffffffff875116883b15610a40578b51907fa584119400000000000000000000000000000000000000000000000000000000825260048201528681602481838d5af1908115610a36578791610a1d575b5087518c517f23b872dd00000000000000000000000000000000000000000000000000000000815273ffffffffffffffffffffffffffffffffffffffff8c811660048301528b811660248301526044820194909452926020928492606492849291165af180156109e6576109f0575b508951907f11da60b4000000000000000000000000000000000000000000000000000000008252602082600481898c5af19182156109e65786926109b7575b506106cb565b6109d89060203d6020116109df575b6109d08183610d6b565b810190610e41565b505f6109b1565b503d6109c6565b8b513d88823e3d90fd5b610a119060203d602011610a16575b610a098183610d6b565b810190610e29565b610972565b503d6109ff565b81610a2791610d6b565b610a3257855f610903565b8580fd5b8c513d89823e3d90fd5b8680fd5b90919293506fffffffffffffffffffffffffffffffff610a6384610dcd565b1673ffffffffffffffffffffffffffffffffffffffff835116873b15610bee578a51907fa584119400000000000000000000000000000000000000000000000000000000825260048201525f81602481838c5af18015610be457610bbf575b5082518a517f23b872dd00000000000000000000000000000000000000000000000000000000815273ffffffffffffffffffffffffffffffffffffffff808b166004830152808a16602483015260448201939093528c96959493929091602091839116818981606481015b03925af180156109e657610ba2575b508951907f11da60b4000000000000000000000000000000000000000000000000000000008252602082600481898c5af19182156109e6578692610b83575b5090506106c1565b610b9b9060203d6020116109df576109d08183610d6b565b505f610b7b565b610bba9060203d602011610a1657610a098183610d6b565b610b3c565b60209b505f610bd391969594939296610d6b565b610b2d5f9b50949091929394610ac2565b8b513d5f823e3d90fd5b5f80fd5b9093506040813d604011610c1e575b81610c0e60409383610d6b565b81010312610bee5751925f610628565b3d9150610c01565b6040513d5f823e3d90fd5b7f4e487b71000000000000000000000000000000000000000000000000000000005f52604160045260245ffd5b60646040517f08c379a000000000000000000000000000000000000000000000000000000000815260206004820152601060248201527f4f6e6c7920506f6f6c4d616e61676572000000000000000000000000000000006044820152fd5b34610bee575f7ffffffffffffffffffffffffffffffffffffffffffffffffffffffffffffffffc360112610bee5760209073ffffffffffffffffffffffffffffffffffffffff7f0000000000000000000000000000000000000000000000000000000000000000168152f35b907fffffffffffffffffffffffffffffffffffffffffffffffffffffffffffffffe0601f602080948051918291828752018686015e5f8582860101520116010190565b90601f7fffffffffffffffffffffffffffffffffffffffffffffffffffffffffffffffe0910116810190811067ffffffffffffffff821117610c3157604052565b359073ffffffffffffffffffffffffffffffffffffffff82168203610bee57565b600f0b7fffffffffffffffffffffffffffffffff800000000000000000000000000000008114610dfc575f0390565b7f4e487b71000000000000000000000000000000000000000000000000000000005f52601160045260245ffd5b90816020910312610bee57518015158103610bee5790565b90816020910312610bee575190565b5f91908291610ecb6040518092610e9960208301957f3ca6268e000000000000000000000000000000000000000000000000000000008752604060248501526064840190610d28565b906044830152037fffffffffffffffffffffffffffffffffffffffffffffffffffffffffffffffe08101835282610d6b565b51906a636f6e736f6c652e6c6f675afa5056fea2646970667358221220e8f6e08636fbc9b605df38e0bc8119351170c068d739eacc9a4014f7cc256a3864736f6c634300081a0033000000000000000000000000498581ff718922c3f8e6a244956af099b2652b2b",
        "nonce": "0xd",
        "chainId": "0x2105"
      },
      "additionalContracts": [],
      "isFixedGasLimit": false
    },
    {
      "hash": "0x0f06c764e9990ba0543a5a7eee037de60cf64634e005ffee65c759984cee547c",
      "transactionType": "CALL",
      "contractName": null,
      "contractAddress": "0x4200000000000000000000000000000000000006",
      "function": "approve(address,uint256)",
      "arguments": [
        "0xbd9941Df6ECA4d622f37213281aE43BF8cba9111",
        "115792089237316195423570985008687907853269984665640564039457584007913129639935"
      ],
      "transaction": {
        "from": "0x8114cdc7ddea2be36435351db2115887daef5e12",
        "to": "0x4200000000000000000000000000000000000006",
        "gas": "0xfa0a",
        "value": "0x0",
        "input": "0x095ea7b3000000000000000000000000bd9941df6eca4d622f37213281ae43bf8cba9111ffffffffffffffffffffffffffffffffffffffffffffffffffffffffffffffff",
        "nonce": "0xe",
        "chainId": "0x2105"
      },
      "additionalContracts": [],
      "isFixedGasLimit": false
    },
    {
      "hash": "0x03132c325ff3e413b535c07e8809ec93e9e51df56f5e0dee5bcf7d4d0310ab5b",
      "transactionType": "CALL",
      "contractName": null,
      "contractAddress": "0x833589fcd6edb6e08f4c7c32d4f71b54bda02913",
      "function": "approve(address,uint256)",
      "arguments": [
        "0xbd9941Df6ECA4d622f37213281aE43BF8cba9111",
        "115792089237316195423570985008687907853269984665640564039457584007913129639935"
      ],
      "transaction": {
        "from": "0x8114cdc7ddea2be36435351db2115887daef5e12",
        "to": "0x833589fcd6edb6e08f4c7c32d4f71b54bda02913",
        "gas": "0x13eb1",
        "value": "0x0",
        "input": "0x095ea7b3000000000000000000000000bd9941df6eca4d622f37213281ae43bf8cba9111ffffffffffffffffffffffffffffffffffffffffffffffffffffffffffffffff",
        "nonce": "0xf",
        "chainId": "0x2105"
      },
      "additionalContracts": [],
      "isFixedGasLimit": false
    },
    {
      "hash": "0x6db08146507e010ae268c1965d1c75dcce3d95d9e1e67011e41b300ad8742181",
      "transactionType": "CALL",
      "contractName": null,
      "contractAddress": "0x4200000000000000000000000000000000000006",
      "function": "approve(address,uint256)",
      "arguments": [
        "0x498581fF718922c3f8e6A244956aF099B2652b2b",
        "115792089237316195423570985008687907853269984665640564039457584007913129639935"
      ],
      "transaction": {
        "from": "0x8114cdc7ddea2be36435351db2115887daef5e12",
        "to": "0x4200000000000000000000000000000000000006",
        "gas": "0x9710",
        "value": "0x0",
        "input": "0x095ea7b3000000000000000000000000498581ff718922c3f8e6a244956af099b2652b2bffffffffffffffffffffffffffffffffffffffffffffffffffffffffffffffff",
        "nonce": "0x10",
        "chainId": "0x2105"
      },
      "additionalContracts": [],
      "isFixedGasLimit": false
    },
    {
      "hash": "0x1b1d416844357e1b5325584bc4018b668550f157ed9e999371d99d374ca2990c",
      "transactionType": "CALL",
      "contractName": null,
      "contractAddress": "0x833589fcd6edb6e08f4c7c32d4f71b54bda02913",
      "function": "approve(address,uint256)",
      "arguments": [
        "0x498581fF718922c3f8e6A244956aF099B2652b2b",
        "115792089237316195423570985008687907853269984665640564039457584007913129639935"
      ],
      "transaction": {
        "from": "0x8114cdc7ddea2be36435351db2115887daef5e12",
        "to": "0x833589fcd6edb6e08f4c7c32d4f71b54bda02913",
        "gas": "0xc19d",
        "value": "0x0",
        "input": "0x095ea7b3000000000000000000000000498581ff718922c3f8e6a244956af099b2652b2bffffffffffffffffffffffffffffffffffffffffffffffffffffffffffffffff",
        "nonce": "0x11",
        "chainId": "0x2105"
      },
      "additionalContracts": [],
      "isFixedGasLimit": false
    },
    {
      "hash": "0xfe0023fe26479130221be7fc507421e2c025bd95d21d750a8d918a047db635ed",
      "transactionType": "CALL",
      "contractName": "LiquidityRouter",
      "contractAddress": "0xbd9941df6eca4d622f37213281ae43bf8cba9111",
      "function": "addLiquidity((address,address,uint24,int24,address))",
      "arguments": [
        "(0x4200000000000000000000000000000000000006, 0x833589fCD6eDb6E08f4c7C32D4f71b54bdA02913, 3000, 60, 0x45d971BdE51dd5E109036aB70a4E0b0eD2Dc4040)"
      ],
      "transaction": {
        "from": "0x8114cdc7ddea2be36435351db2115887daef5e12",
        "to": "0xbd9941df6eca4d622f37213281ae43bf8cba9111",
        "gas": "0x5e62f",
        "value": "0x0",
        "input": "0xb6d681f20000000000000000000000004200000000000000000000000000000000000006000000000000000000000000833589fcd6edb6e08f4c7c32d4f71b54bda029130000000000000000000000000000000000000000000000000000000000000bb8000000000000000000000000000000000000000000000000000000000000003c00000000000000000000000045d971bde51dd5e109036ab70a4e0b0ed2dc4040",
        "nonce": "0x12",
        "chainId": "0x2105"
      },
      "additionalContracts": [],
      "isFixedGasLimit": false
    }
  ],
  "receipts": [
    {
      "status": "0x1",
      "cumulativeGasUsed": "0xf8eb7c",
      "logs": [],
      "logsBloom": "0x00000000000000000000000000000000000000000000000000000000000000000000000000000000000000000000000000000000000000000000000000000000000000000000000000000000000000000000000000000000000000000000000000000000000000000000000000000000000000000000000000000000000000000000000000000000000000000000000000000000000000000000000000000000000000000000000000000000000000000000000000000000000000000000000000000000000000000000000000000000000000000000000000000000000000000000000000000000000000000000000000000000000000000000000000000000",
      "type": "0x2",
      "transactionHash": "0x1b1d416844357e1b5325584bc4018b668550f157ed9e999371d99d374ca2990c",
      "transactionIndex": "0x2a",
      "blockHash": "0x0000000000000000000000000000000000000000000000000000000000000000",
      "blockNumber": "0x29f8d43",
      "gasUsed": "0xd7812",
      "effectiveGasPrice": "0x4c4b41",
      "blobGasUsed": "0x46474",
      "from": "0x8114cdc7ddea2be36435351db2115887daef5e12",
      "to": null,
      "contractAddress": "0xbd9941df6eca4d622f37213281ae43bf8cba9111",
      "daFootprintGasScalar": "0x94",
      "l1BaseFeeScalar": "0x8dd",
      "l1BlobBaseFee": "0x6605bc",
      "l1BlobBaseFeeScalar": "0x101c12",
      "l1Fee": "0x46f32e59",
      "l1GasPrice": "0x7f426bd",
      "l1GasUsed": "0x799c"
    },
    {
      "status": "0x1",
      "cumulativeGasUsed": "0xf9a083",
      "logs": [
        {
          "address": "0x4200000000000000000000000000000000000006",
          "topics": [
            "0x8c5be1e5ebec7d5bd14f71427d1e84f3dd0314c0f7b2291e5b200ac8c7c3b925",
            "0x0000000000000000000000008114cdc7ddea2be36435351db2115887daef5e12",
            "0x000000000000000000000000bd9941df6eca4d622f37213281ae43bf8cba9111"
          ],
          "data": "0xffffffffffffffffffffffffffffffffffffffffffffffffffffffffffffffff",
          "blockHash": "0x0000000000000000000000000000000000000000000000000000000000000000",
          "blockNumber": "0x29f8d43",
          "blockTimestamp": "0x69c97769",
          "transactionHash": "0x03132c325ff3e413b535c07e8809ec93e9e51df56f5e0dee5bcf7d4d0310ab5b",
          "transactionIndex": "0x2b",
          "logIndex": "0x230",
          "removed": false
        }
      ],
      "logsBloom": "0x00000000000000000000000000000000000000000000000000040000000000000000000000020000000002101000000000000000000000000000000000200000000000000000000000000000000000000000000000000000000000000000000000000000000000000000000000000000000000000000000000000000000000000000000000000000000000000000000000000000002040000000000000000000020000000000000000000000000000000000000000000000000000000000000000000000000000000000000000002000000000000000000000000000000000000010000000000000000000040000000000000000000000000000000000000000",
      "type": "0x2",
      "transactionHash": "0x03132c325ff3e413b535c07e8809ec93e9e51df56f5e0dee5bcf7d4d0310ab5b",
      "transactionIndex": "0x2b",
      "blockHash": "0x0000000000000000000000000000000000000000000000000000000000000000",
      "blockNumber": "0x29f8d43",
      "gasUsed": "0xb507",
      "effectiveGasPrice": "0x4c4b41",
      "blobGasUsed": "0x39d0",
      "from": "0x8114cdc7ddea2be36435351db2115887daef5e12",
      "to": "0x4200000000000000000000000000000000000006",
      "contractAddress": null,
      "daFootprintGasScalar": "0x94",
      "l1BaseFeeScalar": "0x8dd",
      "l1BlobBaseFee": "0x6605bc",
      "l1BlobBaseFeeScalar": "0x101c12",
      "l1Fee": "0x46f32e59",
      "l1GasPrice": "0x7f426bd",
      "l1GasUsed": "0x640"
    },
    {
      "status": "0x1",
      "cumulativeGasUsed": "0xfa7a6c",
      "logs": [
        {
          "address": "0x833589fcd6edb6e08f4c7c32d4f71b54bda02913",
          "topics": [
            "0x8c5be1e5ebec7d5bd14f71427d1e84f3dd0314c0f7b2291e5b200ac8c7c3b925",
            "0x0000000000000000000000008114cdc7ddea2be36435351db2115887daef5e12",
            "0x000000000000000000000000bd9941df6eca4d622f37213281ae43bf8cba9111"
          ],
          "data": "0xffffffffffffffffffffffffffffffffffffffffffffffffffffffffffffffff",
          "blockHash": "0x0000000000000000000000000000000000000000000000000000000000000000",
          "blockNumber": "0x29f8d43",
          "blockTimestamp": "0x69c97769",
          "transactionHash": "0x041fec968bb28c80d6ae989f607ae5cab3058d0fe926c910768851165d9e37c7",
          "transactionIndex": "0x2c",
          "logIndex": "0x231",
          "removed": false
        }
      ],
      "logsBloom": "0x00000000000000000000000000000000000000000000000000000000000000000000000000020000000002001000100000000000000000000000000000200000000000000000000000000000000000000000000000080000000000000000000000800000000000000000000000000000000000000000000000000000000000000000000000000000000000000000000000000000000040000000000000000000020000000000000000000000000000000000000000000000000000000000000000000000000000000000000000002000000000000000000000000000000000000010000000000000000000040000000000000000000000000000000000000000",
      "type": "0x2",
      "transactionHash": "0x041fec968bb28c80d6ae989f607ae5cab3058d0fe926c910768851165d9e37c7",
      "transactionIndex": "0x2c",
      "blockHash": "0x0000000000000000000000000000000000000000000000000000000000000000",
      "blockNumber": "0x29f8d43",
      "gasUsed": "0xd9e9",
      "effectiveGasPrice": "0x4c4b41",
      "blobGasUsed": "0x39d0",
      "from": "0x8114cdc7ddea2be36435351db2115887daef5e12",
      "to": "0x833589fcd6edb6e08f4c7c32d4f71b54bda02913",
      "contractAddress": null,
      "daFootprintGasScalar": "0x94",
      "l1BaseFeeScalar": "0x8dd",
      "l1BlobBaseFee": "0x6605bc",
      "l1BlobBaseFeeScalar": "0x101c12",
      "l1Fee": "0x46f32e59",
      "l1GasPrice": "0x7f426bd",
      "l1GasUsed": "0x640"
    },
    {
      "status": "0x1",
      "cumulativeGasUsed": "0xfae1b7",
      "logs": [
        {
          "address": "0x4200000000000000000000000000000000000006",
          "topics": [
            "0x8c5be1e5ebec7d5bd14f71427d1e84f3dd0314c0f7b2291e5b200ac8c7c3b925",
            "0x0000000000000000000000008114cdc7ddea2be36435351db2115887daef5e12",
            "0x000000000000000000000000498581ff718922c3f8e6a244956af099b2652b2b"
          ],
          "data": "0xffffffffffffffffffffffffffffffffffffffffffffffffffffffffffffffff",
          "blockHash": "0x0000000000000000000000000000000000000000000000000000000000000000",
          "blockNumber": "0x29f8d43",
          "blockTimestamp": "0x69c97769",
          "transactionHash": "0x6db08146507e010ae268c1965d1c75dcce3d95d9e1e67011e41b300ad8742181",
          "transactionIndex": "0x2d",
          "logIndex": "0x232",
          "removed": false
        }
      ],
      "logsBloom": "0x00000000000000000000000000000000000000000000000000040000000000000020000000020000000002101000000000000000000000000000000000200000000000000000000000000000000000000000000000000000000000000000000000000000000000000000000000000000000000000000000000000000000000000000000000000000000000000000000000000000002000000000000400000000024000000000000000000000000000000000000000000000000000000000000000000000000000000000000000000000000000000000000000000000000000000010000000000000000000000000000000000000000000000000000000000000",
      "type": "0x2",
      "transactionHash": "0x6db08146507e010ae268c1965d1c75dcce3d95d9e1e67011e41b300ad8742181",
      "transactionIndex": "0x2d",
      "blockHash": "0x0000000000000000000000000000000000000000000000000000000000000000",
      "blockNumber": "0x29f8d43",
      "gasUsed": "0x674b",
      "effectiveGasPrice": "0x4c4b41",
      "blobGasUsed": "0x39d0",
      "from": "0x8114cdc7ddea2be36435351db2115887daef5e12",
      "to": "0x4200000000000000000000000000000000000006",
      "contractAddress": null,
      "daFootprintGasScalar": "0x94",
      "l1BaseFeeScalar": "0x8dd",
      "l1BlobBaseFee": "0x6605bc",
      "l1BlobBaseFeeScalar": "0x101c12",
      "l1Fee": "0x46f32e59",
      "l1GasPrice": "0x7f426bd",
      "l1GasUsed": "0x640"
    },
    {
      "status": "0x1",
      "cumulativeGasUsed": "0xfb6de4",
      "logs": [
        {
          "address": "0x833589fcd6edb6e08f4c7c32d4f71b54bda02913",
          "topics": [
            "0x8c5be1e5ebec7d5bd14f71427d1e84f3dd0314c0f7b2291e5b200ac8c7c3b925",
            "0x0000000000000000000000008114cdc7ddea2be36435351db2115887daef5e12",
            "0x000000000000000000000000498581ff718922c3f8e6a244956af099b2652b2b"
          ],
          "data": "0xffffffffffffffffffffffffffffffffffffffffffffffffffffffffffffffff",
          "blockHash": "0x0000000000000000000000000000000000000000000000000000000000000000",
          "blockNumber": "0x29f8d43",
          "blockTimestamp": "0x69c97769",
          "transactionHash": "0x0f06c764e9990ba0543a5a7eee037de60cf64634e005ffee65c759984cee547c",
          "transactionIndex": "0x2e",
          "logIndex": "0x233",
          "removed": false
        }
      ],
      "logsBloom": "0x00000000000000000000000000000000000000000000000000000000000000000020000000020000000002001000100000000000000000000000000000200000000000000000000000000000000000000000000000080000000000000000000000800000000000000000000000000000000000000000000000000000000000000000000000000000000000000000000000000000000000000000000400000000024000000000000000000000000000000000000000000000000000000000000000000000000000000000000000000000000000000000000000000000000000000010000000000000000000000000000000000000000000000000000000000000",
      "type": "0x2",
      "transactionHash": "0x0f06c764e9990ba0543a5a7eee037de60cf64634e005ffee65c759984cee547c",
      "transactionIndex": "0x2e",
      "blockHash": "0x0000000000000000000000000000000000000000000000000000000000000000",
      "blockNumber": "0x29f8d43",
      "gasUsed": "0x8c2d",
      "effectiveGasPrice": "0x4c4b41",
      "blobGasUsed": "0x39d0",
      "from": "0x8114cdc7ddea2be36435351db2115887daef5e12",
      "to": "0x833589fcd6edb6e08f4c7c32d4f71b54bda02913",
      "contractAddress": null,
      "daFootprintGasScalar": "0x94",
      "l1BaseFeeScalar": "0x8dd",
      "l1BlobBaseFee": "0x6605bc",
      "l1BlobBaseFeeScalar": "0x101c12",
      "l1Fee": "0x46f32e59",
      "l1GasPrice": "0x7f426bd",
      "l1GasUsed": "0x640"
    },
    {
      "status": "0x1",
      "cumulativeGasUsed": "0xff767f",
      "logs": [
        {
          "address": "0x498581ff718922c3f8e6a244956af099b2652b2b",
          "topics": [
            "0xf208f4912782fd25c7f114ca3723a2d5dd6f3bcc3ac8db5af63baa85f711d5ec",
            "0x46d245ea80a77f75aa95f84bdcea9a706f7af1e25168ce25102c268a93432148",
            "0x000000000000000000000000bd9941df6eca4d622f37213281ae43bf8cba9111"
          ],
          "data": "0xfffffffffffffffffffffffffffffffffffffffffffffffffffffffffff2764c00000000000000000000000000000000000000000000000000000000000d89b400000000000000000000000000000000000000000000000000000002540be4000000000000000000000000000000000000000000000000000000000000000000",
          "blockHash": "0x0000000000000000000000000000000000000000000000000000000000000000",
          "blockNumber": "0x29f8d43",
          "blockTimestamp": "0x69c97769",
          "transactionHash": "0xfe0023fe26479130221be7fc507421e2c025bd95d21d750a8d918a047db635ed",
          "transactionIndex": "0x2f",
          "logIndex": "0x234",
          "removed": false
        },
        {
          "address": "0x4200000000000000000000000000000000000006",
          "topics": [
            "0xddf252ad1be2c89b69c2b068fc378daa952ba7f163c4a11628f55a4df523b3ef",
            "0x0000000000000000000000008114cdc7ddea2be36435351db2115887daef5e12",
            "0x000000000000000000000000498581ff718922c3f8e6a244956af099b2652b2b"
          ],
          "data": "0x000000000000000000000000000000000000000000000000000099bb8fd3a2a8",
          "blockHash": "0x0000000000000000000000000000000000000000000000000000000000000000",
          "blockNumber": "0x29f8d43",
          "blockTimestamp": "0x69c97769",
          "transactionHash": "0xfe0023fe26479130221be7fc507421e2c025bd95d21d750a8d918a047db635ed",
          "transactionIndex": "0x2f",
          "logIndex": "0x235",
          "removed": false
        },
        {
          "address": "0x833589fcd6edb6e08f4c7c32d4f71b54bda02913",
          "topics": [
            "0xddf252ad1be2c89b69c2b068fc378daa952ba7f163c4a11628f55a4df523b3ef",
            "0x0000000000000000000000008114cdc7ddea2be36435351db2115887daef5e12",
            "0x000000000000000000000000498581ff718922c3f8e6a244956af099b2652b2b"
          ],
          "data": "0x00000000000000000000000000000000000000000000000000000000000906f8",
          "blockHash": "0x0000000000000000000000000000000000000000000000000000000000000000",
          "blockNumber": "0x29f8d43",
          "blockTimestamp": "0x69c97769",
          "transactionHash": "0xfe0023fe26479130221be7fc507421e2c025bd95d21d750a8d918a047db635ed",
          "transactionIndex": "0x2f",
          "logIndex": "0x236",
          "removed": false
        }
      ],
      "logsBloom": "0x00000000000000000000000000000000000000000000000000040000000000000020000000020000000002101000100000000000000000000000000000000000000000000000000000000008000000000000000000080000000000000000000000800000000000000000000000800000000000000000000000000010000000000000002001004000000000000000000000000000002040000000000400000000004004000000000000000000000000000000000000000000000000000000000000000002000000000000000000002000000800000000000000000000000000000000000000000000200000040000000004000400000000000000000000000000",
      "type": "0x2",
      "transactionHash": "0xfe0023fe26479130221be7fc507421e2c025bd95d21d750a8d918a047db635ed",
      "transactionIndex": "0x2f",
      "blockHash": "0x0000000000000000000000000000000000000000000000000000000000000000",
      "blockNumber": "0x29f8d43",
      "gasUsed": "0x4089b",
      "effectiveGasPrice": "0x4c4b41",
      "blobGasUsed": "0x45f4",
      "from": "0x8114cdc7ddea2be36435351db2115887daef5e12",
      "to": "0xbd9941df6eca4d622f37213281ae43bf8cba9111",
      "contractAddress": null,
      "daFootprintGasScalar": "0x94",
      "l1BaseFeeScalar": "0x8dd",
      "l1BlobBaseFee": "0x6605bc",
      "l1BlobBaseFeeScalar": "0x101c12",
      "l1Fee": "0x46f32e59",
      "l1GasPrice": "0x7f426bd",
      "l1GasUsed": "0x795"
    }
  ],
  "libraries": [],
  "pending": [],
  "returns": {},
  "timestamp": 1774810983392,
  "chain": 8453,
  "commit": "3265780"
}