{
  "transactions": [
    {
      "hash": "0x71644bde2c594d2dcbe4aed56db4b822c8e04dccc6921ce78c94cbf1eb6042ab",
      "transactionType": "CALL",
      "contractName": null,
      "contractAddress": "0x388d28a3d9afcbdaeb97a359fc67a0b53fc0146e",
      "function": "mint(address,uint256)",
      "arguments": [
        "0xab4FE51Ba4D5155b2e6842CAD17148b798e4615e",
        "10000000000000000000"
      ],
      "transaction": {
        "from": "0xab4fe51ba4d5155b2e6842cad17148b798e4615e",
        "to": "0x388d28a3d9afcbdaeb97a359fc67a0b53fc0146e",
        "gas": "0xb6bb",
        "value": "0x0",
        "input": "0x40c10f19000000000000000000000000ab4fe51ba4d5155b2e6842cad17148b798e4615e0000000000000000000000000000000000000000000000008ac7230489e80000",
        "nonce": "0xc",
        "chainId": "0xaa36a7"
      },
      "additionalContracts": [],
      "isFixedGasLimit": false
    },
    {
      "hash": "0x0b45b68c8b43e704eded7d247b93f16700d7ceb70cc442a69cb0d6e32d4f8f1e",
      "transactionType": "CALL",
      "contractName": null,
      "contractAddress": "0x388d28a3d9afcbdaeb97a359fc67a0b53fc0146e",
      "function": "approve(address,uint256)",
      "arguments": [
        "0xE96fDfF54e9eD65E22e00fe57C425348dd58c088",
        "10000000000000000000"
      ],
      "transaction": {
        "from": "0xab4fe51ba4d5155b2e6842cad17148b798e4615e",
        "to": "0x388d28a3d9afcbdaeb97a359fc67a0b53fc0146e",
        "gas": "0x1062b",
        "value": "0x0",
        "input": "0x095ea7b3000000000000000000000000e96fdff54e9ed65e22e00fe57c425348dd58c0880000000000000000000000000000000000000000000000008ac7230489e80000",
        "nonce": "0xd",
        "chainId": "0xaa36a7"
      },
      "additionalContracts": [],
      "isFixedGasLimit": false
    },
    {
      "hash": "0x9201a4ea11f72a26859cd6f805437733be2cf0ec15bd88f92ccf684fb742364e",
      "transactionType": "CALL",
      "contractName": "LimitOrderHook",
      "contractAddress": "0xe96fdff54e9ed65e22e00fe57c425348dd58c088",
      "function": "createLimitOrder((address,address,uint24,int24,address),bool,uint96,uint128)",
      "arguments": [
        "(0x388D28a3D9aFcBdaeb97a359FC67A0B53fC0146E, 0xa913a8019dd32691d7a9316a3d6cB75BA3904325, 3000, 60, 0xE96fDfF54e9eD65E22e00fe57C425348dd58c088)",
        "true",
        "10000000000000000000",
        "1010000000000000000"
      ],
      "transaction": {
        "from": "0xab4fe51ba4d5155b2e6842cad17148b798e4615e",
        "to": "0xe96fdff54e9ed65e22e00fe57c425348dd58c088",
        "gas": "0x584be",
        "value": "0x0",
        "input": "0x58a86a01000000000000000000000000388d28a3d9afcbdaeb97a359fc67a0b53fc0146e000000000000000000000000a913a8019dd32691d7a9316a3d6cb75ba39043250000000000000000000000000000000000000000000000000000000000000bb8000000000000000000000000000000000000000000000000000000000000003c000000000000000000000000e96fdff54e9ed65e22e00fe57c425348dd58c08800000000000000000000000000000000000000000000000000000000000000010000000000000000000000000000000000000000000000008ac7230489e800000000000000000000000000000000000000000000000000000e043da617250000",
        "nonce": "0xe",
        "chainId": "0xaa36a7"
      },
      "additionalContracts": [],
      "isFixedGasLimit": false
    }
  ],
  "receipts": [
    {
      "status": "0x1",
      "cumulativeGasUsed": "0xcbb2b2",
      "logs": [
        {
          "address": "0x388d28a3d9afcbdaeb97a359fc67a0b53fc0146e",
          "topics": [
            "0xddf252ad1be2c89b69c2b068fc378daa952ba7f163c4a11628f55a4df523b3ef",
            "0x0000000000000000000000000000000000000000000000000000000000000000",
            "0x000000000000000000000000ab4fe51ba4d5155b2e6842cad17148b798e4615e"
          ],
          "data": "0x0000000000000000000000000000000000000000000000008ac7230489e80000",
          "blockHash": "0xa50250a48718c1a1b67f97e25ad2bd268bb242575c30e546ca24ca55b8ef2373",
          "blockNumber": "0x9d7fb4",
          "blockTimestamp": "0x699c945c",
          "transactionHash": "0x0b45b68c8b43e704eded7d247b93f16700d7ceb70cc442a69cb0d6e32d4f8f1e",
          "transactionIndex": "0x53",
          "logIndex": "0xf0",
          "removed": false
        }
      ],
      "logsBloom": "0x00000000000000000000000000000000000000000800000000000000000000000000000000040000000000000000000000000000000000000000000000008000000000000000000000000008000000000000000000000000000000000000000000000000020000000000000000000800000100000000010000000010000000000000000000000000000000000000000000000010000000000000000000000000000000000000000000000000000000000000000000000000000000000000000000000002000000000000000000000000000000000000000000000000000020000000000000000000000000000000000000000000000000000000000000000000",
      "type": "0x2",
      "transactionHash": "0x0b45b68c8b43e704eded7d247b93f16700d7ceb70cc442a69cb0d6e32d4f8f1e",
      "transactionIndex": "0x53",
      "blockHash": "0xa50250a48718c1a1b67f97e25ad2bd268bb242575c30e546ca24ca55b8ef2373",
      "blockNumber": "0x9d7fb4",
      "gasUsed": "0x844c",
      "effectiveGasPrice": "0x1b7752",
      "from": "0xab4fe51ba4d5155b2e6842cad17148b798e4615e",
      "to": "0x388d28a3d9afcbdaeb97a359fc67a0b53fc0146e",
      "contractAddress": null
    },
    {
      "status": "0x1",
      "cumulativeGasUsed": "0xcc65f5",
      "logs": [
        {
          "address": "0x388d28a3d9afcbdaeb97a359fc67a0b53fc0146e",
          "topics": [
            "0x8c5be1e5ebec7d5bd14f71427d1e84f3dd0314c0f7b2291e5b200ac8c7c3b925",
            "0x000000000000000000000000ab4fe51ba4d5155b2e6842cad17148b798e4615e",
            "0x000000000000000000000000e96fdff54e9ed65e22e00fe57c425348dd58c088"
          ],
          "data": "0x0000000000000000000000000000000000000000000000008ac7230489e80000",
          "blockHash": "0xa50250a48718c1a1b67f97e25ad2bd268bb242575c30e546ca24ca55b8ef2373",
          "blockNumber": "0x9d7fb4",
          "blockTimestamp": "0x699c945c",
          "transactionHash": "0x71644bde2c594d2dcbe4aed56db4b822c8e04dccc6921ce78c94cbf1eb6042ab",
          "transactionIndex": "0x54",
          "logIndex": "0xf1",
          "removed": false
        }
      ],
      "logsBloom": "0x00000000000000000000000000000000000000000800000000000000000000000000000000040000000000000000000000000000000000000000000000208000000000000000000000000000000000000000000000000000000000000000200000000000000000000000000000000000000100000000010000000000000000000000000000000000000000000000000000000010000000000000000000000000020000000000000000000800000000000000000000000000000000000000000000000000000000010000000000000000000000000000000000000000000000000010000000000000000000000000000000000000000000000000000000000000",
      "type": "0x2",
      "transactionHash": "0x71644bde2c594d2dcbe4aed56db4b822c8e04dccc6921ce78c94cbf1eb6042ab",
      "transactionIndex": "0x54",
      "blockHash": "0xa50250a48718c1a1b67f97e25ad2bd268bb242575c30e546ca24ca55b8ef2373",
      "blockNumber": "0x9d7fb4",
      "gasUsed": "0xb343",
      "effectiveGasPrice": "0x1b7752",
      "from": "0xab4fe51ba4d5155b2e6842cad17148b798e4615e",
      "to": "0x388d28a3d9afcbdaeb97a359fc67a0b53fc0146e",
      "contractAddress": null
    },
    {
      "status": "0x1",
      "cumulativeGasUsed": "0xd064c3",
      "logs": [
        {
          "address": "0x388d28a3d9afcbdaeb97a359fc67a0b53fc0146e",
          "topics": [
            "0xddf252ad1be2c89b69c2b068fc378daa952ba7f163c4a11628f55a4df523b3ef",
            "0x000000000000000000000000ab4fe51ba4d5155b2e6842cad17148b798e4615e",
            "0x000000000000000000000000e96fdff54e9ed65e22e00fe57c425348dd58c088"
          ],
          "data": "0x0000000000000000000000000000000000000000000000008ac7230489e80000",
          "blockHash": "0xa50250a48718c1a1b67f97e25ad2bd268bb242575c30e546ca24ca55b8ef2373",
          "blockNumber": "0x9d7fb4",
          "blockTimestamp": "0x699c945c",
          "transactionHash": "0x9201a4ea11f72a26859cd6f805437733be2cf0ec15bd88f92ccf684fb742364e",
          "transactionIndex": "0x55",
          "logIndex": "0xf2",
          "removed": false
        },
        {
          "address": "0xe96fdff54e9ed65e22e00fe57c425348dd58c088",
          "topics": [
            "0x26319004cc83552ac9e9198e5d281d5a2787f53318a6263c8d2066afd9658af1",
            "0x0000000000000000000000000000000000000000000000000000000000000000",
            "0x000000000000000000000000ab4fe51ba4d5155b2e6842cad17148b798e4615e"
          ],
          "data": "0x00000000000000000000000000000000000000000000000000000000000000010000000000000000000000000000000000000000000000008ac7230489e800000000000000000000000000000000000000000000000000000e043da617250000",
          "blockHash": "0xa50250a48718c1a1b67f97e25ad2bd268bb242575c30e546ca24ca55b8ef2373",
          "blockNumber": "0x9d7fb4",
          "blockTimestamp": "0x699c945c",
          "transactionHash": "0x9201a4ea11f72a26859cd6f805437733be2cf0ec15bd88f92ccf684fb742364e",
          "transactionIndex": "0x55",
          "logIndex": "0xf3",
          "removed": false
        }
      ],
      "logsBloom": "0x00000000000000000000000000000000000000000800000000000000000000000000000000040000000000010000000000000000000000000000000000008000000000000000000000000008000000000000000000000000400000000000200000000000020000000000000000000800000100000000010000000010000000010000000000000000000000000000000000000010000000000000000000000000000000000000000000000800000000000000000000000000000000000000800000000002000000010000000000000000000000000000008000000000000020004000000000000000000000000000000000000000000000000000000000000000",
      "type": "0x2",
      "transactionHash": "0x9201a4ea11f72a26859cd6f805437733be2cf0ec15bd88f92ccf684fb742364e",
      "transactionIndex": "0x55",
      "blockHash": "0xa50250a48718c1a1b67f97e25ad2bd268bb242575c30e546ca24ca55b8ef2373",
      "blockNumber": "0x9d7fb4",
      "gasUsed": "0x3fece",
      "effectiveGasPrice": "0x1b7752",
      "from": "0xab4fe51ba4d5155b2e6842cad17148b798e4615e",
      "to": "0xe96fdff54e9ed65e22e00fe57c425348dd58c088",
      "contractAddress": null
    }
  ],
  "libraries": [],
  "pending": [],
  "returns": {},
  "timestamp": 1771869277728,
  "chain": 11155111,
  "commit": "63626b6"
}