{
  "transactions": [
    {
      "hash": "0xca180894819bf4cb084a9bfba3f203b5b92e1655d8fe465b5e4f0a2ad036992b",
      "transactionType": "CALL",
      "contractName": "MockERC20",
      "contractAddress": "0x2b46cdef2f859d12ebdf29d91b9a6ba48856d54c",
      "function": "mint(address,uint256)",
      "arguments": [
        "0xab4FE51Ba4D5155b2e6842CAD17148b798e4615e",
        "10000000000000000000"
      ],
      "transaction": {
        "from": "0xab4fe51ba4d5155b2e6842cad17148b798e4615e",
        "to": "0x2b46cdef2f859d12ebdf29d91b9a6ba48856d54c",
        "gas": "0xb6bb",
        "value": "0x0",
        "input": "0x40c10f19000000000000000000000000ab4fe51ba4d5155b2e6842cad17148b798e4615e0000000000000000000000000000000000000000000000008ac7230489e80000",
        "nonce": "0x66",
        "chainId": "0xaa36a7"
      },
      "additionalContracts": [],
      "isFixedGasLimit": false
    },
    {
      "hash": "0x689b0c83098dacfda9160c5f5f051cc87330e4ce5124234bc1f0b27dbd0d8b12",
      "transactionType": "CALL",
      "contractName": "MockERC20",
      "contractAddress": "0x2b46cdef2f859d12ebdf29d91b9a6ba48856d54c",
      "function": "approve(address,uint256)",
      "arguments": [
        "0xF1825a46608cadA9AFc3290397Ba7C77797E4040",
        "10000000000000000000"
      ],
      "transaction": {
        "from": "0xab4fe51ba4d5155b2e6842cad17148b798e4615e",
        "to": "0x2b46cdef2f859d12ebdf29d91b9a6ba48856d54c",
        "gas": "0x1062b",
        "value": "0x0",
        "input": "0x095ea7b3000000000000000000000000f1825a46608cada9afc3290397ba7c77797e40400000000000000000000000000000000000000000000000008ac7230489e80000",
        "nonce": "0x67",
        "chainId": "0xaa36a7"
      },
      "additionalContracts": [],
      "isFixedGasLimit": false
    },
    {
      "hash": "0xdf8e4fd6435c46bc3d75d9984fa7ef884c57fbafd55d6e256b8ea9cdd75bba6d",
      "transactionType": "CALL",
      "contractName": null,
      "contractAddress": "0xf1825a46608cada9afc3290397ba7c77797e4040",
      "function": "createLimitOrder((address,address,uint24,int24,address),bool,uint96,uint128)",
      "arguments": [
        "(0x2b46cDef2f859d12eBdF29d91B9a6BA48856D54C, 0x4515DD1d4dDbA60e23aa39B45Be32A3B6f316064, 3000, 60, 0xF1825a46608cadA9AFc3290397Ba7C77797E4040)",
        "true",
        "10000000000000000000",
        "1010000000000000000"
      ],
      "transaction": {
        "from": "0xab4fe51ba4d5155b2e6842cad17148b798e4615e",
        "to": "0xf1825a46608cada9afc3290397ba7c77797e4040",
        "gas": "0x58500",
        "value": "0x0",
        "input": "0x58a86a010000000000000000000000002b46cdef2f859d12ebdf29d91b9a6ba48856d54c0000000000000000000000004515dd1d4ddba60e23aa39b45be32a3b6f3160640000000000000000000000000000000000000000000000000000000000000bb8000000000000000000000000000000000000000000000000000000000000003c000000000000000000000000f1825a46608cada9afc3290397ba7c77797e404000000000000000000000000000000000000000000000000000000000000000010000000000000000000000000000000000000000000000008ac7230489e800000000000000000000000000000000000000000000000000000e043da617250000",
        "nonce": "0x68",
        "chainId": "0xaa36a7"
      },
      "additionalContracts": [],
      "isFixedGasLimit": false
    }
  ],
  "receipts": [
    {
      "status": "0x1",
      "cumulativeGasUsed": "0xf61fbd",
      "logs": [
        {
          "address": "0x2b46cdef2f859d12ebdf29d91b9a6ba48856d54c",
          "topics": [
            "0xddf252ad1be2c89b69c2b068fc378daa952ba7f163c4a11628f55a4df523b3ef",
            "0x0000000000000000000000000000000000000000000000000000000000000000",
            "0x000000000000000000000000ab4fe51ba4d5155b2e6842cad17148b798e4615e"
          ],
          "data": "0x0000000000000000000000000000000000000000000000008ac7230489e80000",
          "blockHash": "0xfa7a6e562a6340afee1935a48359a9ca1c9ae73754917563d3e126db670d282f",
          "blockNumber": "0x9e09aa",
          "blockTimestamp": "0x69a35d38",
          "transactionHash": "0xca180894819bf4cb084a9bfba3f203b5b92e1655d8fe465b5e4f0a2ad036992b",
          "transactionIndex": "0x64",
          "logIndex": "0xa4",
          "removed": false
        }
      ],
      "logsBloom": "0x00000000000000000000000000000000000000000000000000000000000000000000000000040000000002000000000000000000000000000000000000000000000000000000000000000008000000000000000000000000000000000000000000000000020000000000000000000800000100000000010000000010000000000000000000000000000000000000000000000000000000000000000000000000000000000000000800000000000000000000000000000000000000000000000000000002000000000000000000000000000000000000000000000000000020000000000000000000000000000000000000000000000000000000000000000400",
      "type": "0x2",
      "transactionHash": "0xca180894819bf4cb084a9bfba3f203b5b92e1655d8fe465b5e4f0a2ad036992b",
      "transactionIndex": "0x64",
      "blockHash": "0xfa7a6e562a6340afee1935a48359a9ca1c9ae73754917563d3e126db670d282f",
      "blockNumber": "0x9e09aa",
      "gasUsed": "0x844c",
      "effectiveGasPrice": "0x110ec0",
      "from": "0xab4fe51ba4d5155b2e6842cad17148b798e4615e",
      "to": "0x2b46cdef2f859d12ebdf29d91b9a6ba48856d54c",
      "contractAddress": null
    },
    {
      "status": "0x1",
      "cumulativeGasUsed": "0x6622dc",
      "logs": [
        {
          "address": "0x2b46cdef2f859d12ebdf29d91b9a6ba48856d54c",
          "topics": [
            "0x8c5be1e5ebec7d5bd14f71427d1e84f3dd0314c0f7b2291e5b200ac8c7c3b925",
            "0x000000000000000000000000ab4fe51ba4d5155b2e6842cad17148b798e4615e",
            "0x000000000000000000000000f1825a46608cada9afc3290397ba7c77797e4040"
          ],
          "data": "0x0000000000000000000000000000000000000000000000008ac7230489e80000",
          "blockHash": "0x54e875101a33ccd9828d1045f717728953756f31f5d32eb72dee9d53e83fc543",
          "blockNumber": "0x9e09ab",
          "blockTimestamp": "0x69a35d44",
          "transactionHash": "0x689b0c83098dacfda9160c5f5f051cc87330e4ce5124234bc1f0b27dbd0d8b12",
          "transactionIndex": "0x4e",
          "logIndex": "0x78",
          "removed": false
        }
      ],
      "logsBloom": "0x00000000000000000000000000000000000000000000000000000000000000000000000000040000000002000000000000000000000000000000000000200000000000000000000000000000000000000000000000000000000000000000000000000000000000000000002000000000000100000000010000000000000000000000000000000000000000000000000000000000000000000000000000000000020000000000000800000000000000000000000000000000000000000000000000000000000000000000000000000000000000400000000000000000000000000010000000000000000000000004000000000000000000000000000000000400",
      "type": "0x2",
      "transactionHash": "0x689b0c83098dacfda9160c5f5f051cc87330e4ce5124234bc1f0b27dbd0d8b12",
      "transactionIndex": "0x4e",
      "blockHash": "0x54e875101a33ccd9828d1045f717728953756f31f5d32eb72dee9d53e83fc543",
      "blockNumber": "0x9e09ab",
      "gasUsed": "0xb343",
      "effectiveGasPrice": "0x110ec1",
      "from": "0xab4fe51ba4d5155b2e6842cad17148b798e4615e",
      "to": "0x2b46cdef2f859d12ebdf29d91b9a6ba48856d54c",
      "contractAddress": null
    },
    {
      "status": "0x1",
      "cumulativeGasUsed": "0x71024f",
      "logs": [
        {
          "address": "0x2b46cdef2f859d12ebdf29d91b9a6ba48856d54c",
          "topics": [
            "0xddf252ad1be2c89b69c2b068fc378daa952ba7f163c4a11628f55a4df523b3ef",
            "0x000000000000000000000000ab4fe51ba4d5155b2e6842cad17148b798e4615e",
            "0x000000000000000000000000f1825a46608cada9afc3290397ba7c77797e4040"
          ],
          "data": "0x0000000000000000000000000000000000000000000000008ac7230489e80000",
          "blockHash": "0x5edcb0d4ef569f3a730185040d6a82038ff3637e49b733dbe68184b4c700f149",
          "blockNumber": "0x9e09ac",
          "blockTimestamp": "0x69a35d50",
          "transactionHash": "0xdf8e4fd6435c46bc3d75d9984fa7ef884c57fbafd55d6e256b8ea9cdd75bba6d",
          "transactionIndex": "0x57",
          "logIndex": "0x7e",
          "removed": false
        },
        {
          "address": "0xf1825a46608cada9afc3290397ba7c77797e4040",
          "topics": [
            "0x26319004cc83552ac9e9198e5d281d5a2787f53318a6263c8d2066afd9658af1",
            "0x0000000000000000000000000000000000000000000000000000000000000000",
            "0x000000000000000000000000ab4fe51ba4d5155b2e6842cad17148b798e4615e"
          ],
          "data": "0x00000000000000000000000000000000000000000000000000000000000000010000000000000000000000000000000000000000000000008ac7230489e800000000000000000000000000000000000000000000000000000e043da617250000",
          "blockHash": "0x5edcb0d4ef569f3a730185040d6a82038ff3637e49b733dbe68184b4c700f149",
          "blockNumber": "0x9e09ac",
          "blockTimestamp": "0x69a35d50",
          "transactionHash": "0xdf8e4fd6435c46bc3d75d9984fa7ef884c57fbafd55d6e256b8ea9cdd75bba6d",
          "transactionIndex": "0x57",
          "logIndex": "0x7f",
          "removed": false
        }
      ],
      "logsBloom": "0x00000000000000000000000000000000000000000000000000000000000000000000000000040000000002000000000000000000000000000000000000000000020000000000000000000008000000000000000000000000000000000000000000000000020000000000002000000800000100000000010000100010000000010000000000000000000000000000000000000000000000000000000000000000000000000000000800000000000000000000800000000000000000000000800000000002000000000000000000000000000000400000000000000000000020004000000000000000000000000004000000000000000000000000000000000400",
      "type": "0x2",
      "transactionHash": "0xdf8e4fd6435c46bc3d75d9984fa7ef884c57fbafd55d6e256b8ea9cdd75bba6d",
      "transactionIndex": "0x57",
      "blockHash": "0x5edcb0d4ef569f3a730185040d6a82038ff3637e49b733dbe68184b4c700f149",
      "blockNumber": "0x9e09ac",
      "gasUsed": "0x3fefe",
      "effectiveGasPrice": "0x110ec0",
      "from": "0xab4fe51ba4d5155b2e6842cad17148b798e4615e",
      "to": "0xf1825a46608cada9afc3290397ba7c77797e4040",
      "contractAddress": null
    }
  ],
  "libraries": [],
  "pending": [],
  "returns": {},
  "timestamp": 1772313937984,
  "chain": 11155111,
  "commit": "c9dded0"
}