{
  "transactions": [
    {
      "hash": "0xe82051b5ee745292a7f5e1fd232fa299c4859cb99c94240d60b18a7113c7c5a5",
      "transactionType": "CALL",
      "contractName": "MockERC20",
      "contractAddress": "0x7aff4f1a79d86095a6e2ebef1dcff7c263e55970",
      "function": "mint(address,uint256)",
      "arguments": [
        "0xab4FE51Ba4D5155b2e6842CAD17148b798e4615e",
        "10000000000000000000"
      ],
      "transaction": {
        "from": "0xab4fe51ba4d5155b2e6842cad17148b798e4615e",
        "to": "0x7aff4f1a79d86095a6e2ebef1dcff7c263e55970",
        "gas": "0xb6bb",
        "value": "0x0",
        "input": "0x40c10f19000000000000000000000000ab4fe51ba4d5155b2e6842cad17148b798e4615e0000000000000000000000000000000000000000000000008ac7230489e80000",
        "nonce": "0x88",
        "chainId": "0xaa36a7"
      },
      "additionalContracts": [],
      "isFixedGasLimit": false
    },
    {
      "hash": "0x2f721a57be098bb46549b6e6a2600c456b1c2ae1a5dba6cf362dff65fbb0179e",
      "transactionType": "CALL",
      "contractName": "MockERC20",
      "contractAddress": "0x7aff4f1a79d86095a6e2ebef1dcff7c263e55970",
      "function": "approve(address,uint256)",
      "arguments": [
        "0x956624906911dDC739Fe893CeE1F80e5be934040",
        "10000000000000000000"
      ],
      "transaction": {
        "from": "0xab4fe51ba4d5155b2e6842cad17148b798e4615e",
        "to": "0x7aff4f1a79d86095a6e2ebef1dcff7c263e55970",
        "gas": "0x1062b",
        "value": "0x0",
        "input": "0x095ea7b3000000000000000000000000956624906911ddc739fe893cee1f80e5be9340400000000000000000000000000000000000000000000000008ac7230489e80000",
        "nonce": "0x89",
        "chainId": "0xaa36a7"
      },
      "additionalContracts": [],
      "isFixedGasLimit": false
    },
    {
      "hash": "0xd3e89cf4628a1b23f8ce00c32bad8541284f438e952f0f74858316804ff07bff",
      "transactionType": "CALL",
      "contractName": null,
      "contractAddress": "0x956624906911ddc739fe893cee1f80e5be934040",
      "function": "createLimitOrder((address,address,uint24,int24,address),bool,uint96,uint128)",
      "arguments": [
        "(0x7AfF4F1a79d86095A6E2eBEF1dcfF7c263e55970, 0xc1Fb22AE10BDB0545737825998BE99569b64E931, 3000, 60, 0x956624906911dDC739Fe893CeE1F80e5be934040)",
        "true",
        "10000000000000000000",
        "1010000000000000000"
      ],
      "transaction": {
        "from": "0xab4fe51ba4d5155b2e6842cad17148b798e4615e",
        "to": "0x956624906911ddc739fe893cee1f80e5be934040",
        "gas": "0x72667",
        "value": "0x0",
        "input": "0x58a86a010000000000000000000000007aff4f1a79d86095a6e2ebef1dcff7c263e55970000000000000000000000000c1fb22ae10bdb0545737825998be99569b64e9310000000000000000000000000000000000000000000000000000000000000bb8000000000000000000000000000000000000000000000000000000000000003c000000000000000000000000956624906911ddc739fe893cee1f80e5be93404000000000000000000000000000000000000000000000000000000000000000010000000000000000000000000000000000000000000000008ac7230489e800000000000000000000000000000000000000000000000000000e043da617250000",
        "nonce": "0x8a",
        "chainId": "0xaa36a7"
      },
      "additionalContracts": [],
      "isFixedGasLimit": false
    }
  ],
  "receipts": [
    {
      "status": "0x1",
      "cumulativeGasUsed": "0x11e097b",
      "logs": [
        {
          "address": "0x7aff4f1a79d86095a6e2ebef1dcff7c263e55970",
          "topics": [
            "0xddf252ad1be2c89b69c2b068fc378daa952ba7f163c4a11628f55a4df523b3ef",
            "0x0000000000000000000000000000000000000000000000000000000000000000",
            "0x000000000000000000000000ab4fe51ba4d5155b2e6842cad17148b798e4615e"
          ],
          "data": "0x0000000000000000000000000000000000000000000000008ac7230489e80000",
          "blockHash": "0x58183a59957f53a05cd63885db790e932ab34e022364df53fb0adb8c2a0307b2",
          "blockNumber": "0x9ea152",
          "blockTimestamp": "0x69aabba8",
          "transactionHash": "0x2f721a57be098bb46549b6e6a2600c456b1c2ae1a5dba6cf362dff65fbb0179e",
          "transactionIndex": "0x80",
          "logIndex": "0x1fb",
          "removed": false
        }
      ],
      "logsBloom": "0x00204000000000000000000000000000000000000000000000000000000000000000000000040000000000000000000000000000000000000000000000000000000000000000000000000008000000000000000000000000000000000000000000000000020000000000000000000800000100000000010000000010000000000000000000000000000000000000000000000000000000000000000000000000000000000000000000000000000000000000000000000000000000000000000000000002000000000000000000000000000000000000000000000000000020000000000000000000000000002000000000000000000000000000000000000000",
      "type": "0x2",
      "transactionHash": "0x2f721a57be098bb46549b6e6a2600c456b1c2ae1a5dba6cf362dff65fbb0179e",
      "transactionIndex": "0x80",
      "blockHash": "0x58183a59957f53a05cd63885db790e932ab34e022364df53fb0adb8c2a0307b2",
      "blockNumber": "0x9ea152",
      "gasUsed": "0x844c",
      "effectiveGasPrice": "0x239924",
      "from": "0xab4fe51ba4d5155b2e6842cad17148b798e4615e",
      "to": "0x7aff4f1a79d86095a6e2ebef1dcff7c263e55970",
      "contractAddress": null
    },
    {
      "status": "0x1",
      "cumulativeGasUsed": "0x11ebcbe",
      "logs": [
        {
          "address": "0x7aff4f1a79d86095a6e2ebef1dcff7c263e55970",
          "topics": [
            "0x8c5be1e5ebec7d5bd14f71427d1e84f3dd0314c0f7b2291e5b200ac8c7c3b925",
            "0x000000000000000000000000ab4fe51ba4d5155b2e6842cad17148b798e4615e",
            "0x000000000000000000000000956624906911ddc739fe893cee1f80e5be934040"
          ],
          "data": "0x0000000000000000000000000000000000000000000000008ac7230489e80000",
          "blockHash": "0x58183a59957f53a05cd63885db790e932ab34e022364df53fb0adb8c2a0307b2",
          "blockNumber": "0x9ea152",
          "blockTimestamp": "0x69aabba8",
          "transactionHash": "0xd3e89cf4628a1b23f8ce00c32bad8541284f438e952f0f74858316804ff07bff",
          "transactionIndex": "0x81",
          "logIndex": "0x1fc",
          "removed": false
        }
      ],
      "logsBloom": "0x00204000000000000000000000000000000000000000000000000000000000000000000000040000000000000000000000000000000000000000000000200000000020000000000000000000000000000000000000000000000000000000000000000000000000000000000000000000000100000000010000000000000000000000000000000000000000000000000000000000000000000000000000000000020000000000000000000000000000000000000000000000000000000000800000000000000000000000000000000000000000000000000000000000000000000010000000000000000000002000000080000000000000000000000000000000",
      "type": "0x2",
      "transactionHash": "0xd3e89cf4628a1b23f8ce00c32bad8541284f438e952f0f74858316804ff07bff",
      "transactionIndex": "0x81",
      "blockHash": "0x58183a59957f53a05cd63885db790e932ab34e022364df53fb0adb8c2a0307b2",
      "blockNumber": "0x9ea152",
      "gasUsed": "0xb343",
      "effectiveGasPrice": "0x239924",
      "from": "0xab4fe51ba4d5155b2e6842cad17148b798e4615e",
      "to": "0x7aff4f1a79d86095a6e2ebef1dcff7c263e55970",
      "contractAddress": null
    },
    {
      "status": "0x1",
      "cumulativeGasUsed": "0x123e9ed",
      "logs": [
        {
          "address": "0x7aff4f1a79d86095a6e2ebef1dcff7c263e55970",
          "topics": [
            "0xddf252ad1be2c89b69c2b068fc378daa952ba7f163c4a11628f55a4df523b3ef",
            "0x000000000000000000000000ab4fe51ba4d5155b2e6842cad17148b798e4615e",
            "0x000000000000000000000000956624906911ddc739fe893cee1f80e5be934040"
          ],
          "data": "0x0000000000000000000000000000000000000000000000008ac7230489e80000",
          "blockHash": "0x58183a59957f53a05cd63885db790e932ab34e022364df53fb0adb8c2a0307b2",
          "blockNumber": "0x9ea152",
          "blockTimestamp": "0x69aabba8",
          "transactionHash": "0xe82051b5ee745292a7f5e1fd232fa299c4859cb99c94240d60b18a7113c7c5a5",
          "transactionIndex": "0x82",
          "logIndex": "0x1fd",
          "removed": false
        },
        {
          "address": "0x956624906911ddc739fe893cee1f80e5be934040",
          "topics": [
            "0x26319004cc83552ac9e9198e5d281d5a2787f53318a6263c8d2066afd9658af1",
            "0x0000000000000000000000000000000000000000000000000000000000000000",
            "0x000000000000000000000000ab4fe51ba4d5155b2e6842cad17148b798e4615e"
          ],
          "data": "0x00000000000000000000000000000000000000000000000000000000000000010000000000000000000000000000000000000000000000008ac7230489e800000000000000000000000000000000000000000000000000000e043da617250000",
          "blockHash": "0x58183a59957f53a05cd63885db790e932ab34e022364df53fb0adb8c2a0307b2",
          "blockNumber": "0x9ea152",
          "blockTimestamp": "0x69aabba8",
          "transactionHash": "0xe82051b5ee745292a7f5e1fd232fa299c4859cb99c94240d60b18a7113c7c5a5",
          "transactionIndex": "0x82",
          "logIndex": "0x1fe",
          "removed": false
        }
      ],
      "logsBloom": "0x00204000000008000000000000000000000000000000000000000000000000000000000000040000000000000008000000000000000000000000000000000000000020000000000000000008000000000000000000000000000000000000000000000000020000000000000000000800000100000000010000000010000000010000000000000000000000000000000000000000000000000000000000000000000000000000000000000000000000000000000000000000000000000000800000000002000000000000000000000000008000000000000000000000000020004000000000000000000000002000000080000000000000000000000000000000",
      "type": "0x2",
      "transactionHash": "0xe82051b5ee745292a7f5e1fd232fa299c4859cb99c94240d60b18a7113c7c5a5",
      "transactionIndex": "0x82",
      "blockHash": "0x58183a59957f53a05cd63885db790e932ab34e022364df53fb0adb8c2a0307b2",
      "blockNumber": "0x9ea152",
      "gasUsed": "0x52d2f",
      "effectiveGasPrice": "0x239924",
      "from": "0xab4fe51ba4d5155b2e6842cad17148b798e4615e",
      "to": "0x956624906911ddc739fe893cee1f80e5be934040",
      "contractAddress": null
    }
  ],
  "libraries": [],
  "pending": [],
  "returns": {},
  "timestamp": 1772796841485,
  "chain": 11155111,
  "commit": "ed184bb"
}