{
  "transactions": [
    {
      "hash": "0xa61d8d124ad534738c200834f4603ba379162c7ac639a213b11f4d6d54e51aa0",
      "transactionType": "CALL",
      "contractName": null,
      "contractAddress": "0x8faa958134e083c039f28bef5d8412c5be0af6d2",
      "function": "mint(address,uint256)",
      "arguments": [
        "0xab4FE51Ba4D5155b2e6842CAD17148b798e4615e",
        "10000000000000000000"
      ],
      "transaction": {
        "from": "0xab4fe51ba4d5155b2e6842cad17148b798e4615e",
        "to": "0x8faa958134e083c039f28bef5d8412c5be0af6d2",
        "gas": "0xb6bb",
        "value": "0x0",
        "input": "0x40c10f19000000000000000000000000ab4fe51ba4d5155b2e6842cad17148b798e4615e0000000000000000000000000000000000000000000000008ac7230489e80000",
        "nonce": "0x8b",
        "chainId": "0xaa36a7"
      },
      "additionalContracts": [],
      "isFixedGasLimit": false
    },
    {
      "hash": "0xf6e2b4f8b59ff25bc7ce4ee809bdff2230564dc19e47bc8bda074668ebc93500",
      "transactionType": "CALL",
      "contractName": null,
      "contractAddress": "0x8faa958134e083c039f28bef5d8412c5be0af6d2",
      "function": "approve(address,uint256)",
      "arguments": [
        "0x956624906911dDC739Fe893CeE1F80e5be934040",
        "10000000000000000000"
      ],
      "transaction": {
        "from": "0xab4fe51ba4d5155b2e6842cad17148b798e4615e",
        "to": "0x8faa958134e083c039f28bef5d8412c5be0af6d2",
        "gas": "0x1062b",
        "value": "0x0",
        "input": "0x095ea7b3000000000000000000000000956624906911ddc739fe893cee1f80e5be9340400000000000000000000000000000000000000000000000008ac7230489e80000",
        "nonce": "0x8c",
        "chainId": "0xaa36a7"
      },
      "additionalContracts": [],
      "isFixedGasLimit": false
    },
    {
      "hash": "0x41ac92883192a9aa487f1b493279c1c85a2f9f68779dcecf8b6645f16dcfdb59",
      "transactionType": "CALL",
      "contractName": null,
      "contractAddress": "0x956624906911ddc739fe893cee1f80e5be934040",
      "function": "createLimitOrder((address,address,uint24,int24,address),bool,uint96,uint128)",
      "arguments": [
        "(0x8FAA958134e083c039F28bEf5d8412C5bE0Af6D2, 0xD8cF0Ac35566E7ce7cB63237046040761F65ae09, 3000, 60, 0x956624906911dDC739Fe893CeE1F80e5be934040)",
        "true",
        "10000000000000000000",
        "1010000000000000000"
      ],
      "transaction": {
        "from": "0xab4fe51ba4d5155b2e6842cad17148b798e4615e",
        "to": "0x956624906911ddc739fe893cee1f80e5be934040",
        "gas": "0x552c2",
        "value": "0x0",
        "input": "0x58a86a010000000000000000000000008faa958134e083c039f28bef5d8412c5be0af6d2000000000000000000000000d8cf0ac35566e7ce7cb63237046040761f65ae090000000000000000000000000000000000000000000000000000000000000bb8000000000000000000000000000000000000000000000000000000000000003c000000000000000000000000956624906911ddc739fe893cee1f80e5be93404000000000000000000000000000000000000000000000000000000000000000010000000000000000000000000000000000000000000000008ac7230489e800000000000000000000000000000000000000000000000000000e043da617250000",
        "nonce": "0x8d",
        "chainId": "0xaa36a7"
      },
      "additionalContracts": [],
      "isFixedGasLimit": false
    }
  ],
  "receipts": [
    {
      "status": "0x1",
      "cumulativeGasUsed": "0xc808e0",
      "logs": [
        {
          "address": "0x8faa958134e083c039f28bef5d8412c5be0af6d2",
          "topics": [
            "0xddf252ad1be2c89b69c2b068fc378daa952ba7f163c4a11628f55a4df523b3ef",
            "0x0000000000000000000000000000000000000000000000000000000000000000",
            "0x000000000000000000000000ab4fe51ba4d5155b2e6842cad17148b798e4615e"
          ],
          "data": "0x0000000000000000000000000000000000000000000000008ac7230489e80000",
          "blockHash": "0x83f48b47da2651bf76bec9425aea4456d370291fb13dc598b2a857056e8908b7",
          "blockNumber": "0x9ea17e",
          "blockTimestamp": "0x69aabe30",
          "transactionHash": "0xa61d8d124ad534738c200834f4603ba379162c7ac639a213b11f4d6d54e51aa0",
          "transactionIndex": "0x9a",
          "logIndex": "0xe3",
          "removed": false
        }
      ],
      "logsBloom": "0x80000000000000000000000000000000000000000000000000000000000000000000000000040000000000000000000000000000000000000000000000000000000000000000000000000008000000000000000000000000000000000000000000000000020010000000000000000800000100000000010000000010000000000000000000000000000000000000000000000000000000000000000000000000000000000000000000000000008000000000000000000000000000000000000000000002000000000000000000000000000000000000000000000000000020000000000000000000000000000000000000000000000000000000000000000000",
      "type": "0x2",
      "transactionHash": "0xa61d8d124ad534738c200834f4603ba379162c7ac639a213b11f4d6d54e51aa0",
      "transactionIndex": "0x9a",
      "blockHash": "0x83f48b47da2651bf76bec9425aea4456d370291fb13dc598b2a857056e8908b7",
      "blockNumber": "0x9ea17e",
      "gasUsed": "0x844c",
      "effectiveGasPrice": "0xf833c0",
      "from": "0xab4fe51ba4d5155b2e6842cad17148b798e4615e",
      "to": "0x8faa958134e083c039f28bef5d8412c5be0af6d2",
      "contractAddress": null
    },
    {
      "status": "0x1",
      "cumulativeGasUsed": "0xc8bc23",
      "logs": [
        {
          "address": "0x8faa958134e083c039f28bef5d8412c5be0af6d2",
          "topics": [
            "0x8c5be1e5ebec7d5bd14f71427d1e84f3dd0314c0f7b2291e5b200ac8c7c3b925",
            "0x000000000000000000000000ab4fe51ba4d5155b2e6842cad17148b798e4615e",
            "0x000000000000000000000000956624906911ddc739fe893cee1f80e5be934040"
          ],
          "data": "0x0000000000000000000000000000000000000000000000008ac7230489e80000",
          "blockHash": "0x83f48b47da2651bf76bec9425aea4456d370291fb13dc598b2a857056e8908b7",
          "blockNumber": "0x9ea17e",
          "blockTimestamp": "0x69aabe30",
          "transactionHash": "0x41ac92883192a9aa487f1b493279c1c85a2f9f68779dcecf8b6645f16dcfdb59",
          "transactionIndex": "0x9b",
          "logIndex": "0xe4",
          "removed": false
        }
      ],
      "logsBloom": "0x80000000000000000000000000000000000000000000000000000000000000000000000000040000000000000000000000000000000000000000000000200000000020000000000000000000000000000000000000000000000000000000000000000000000010000000000000000000000100000000010000000000000000000000000000000000000000000000000000000000000000000000000000000000020000000000000000000000008000000000000000000000000000000000800000000000000000000000000000000000000000000000000000000000000000000010000000000000000000000000000080000000000000000000000000000000",
      "type": "0x2",
      "transactionHash": "0x41ac92883192a9aa487f1b493279c1c85a2f9f68779dcecf8b6645f16dcfdb59",
      "transactionIndex": "0x9b",
      "blockHash": "0x83f48b47da2651bf76bec9425aea4456d370291fb13dc598b2a857056e8908b7",
      "blockNumber": "0x9ea17e",
      "gasUsed": "0xb343",
      "effectiveGasPrice": "0xf833c0",
      "from": "0xab4fe51ba4d5155b2e6842cad17148b798e4615e",
      "to": "0x8faa958134e083c039f28bef5d8412c5be0af6d2",
      "contractAddress": null
    },
    {
      "status": "0x1",
      "cumulativeGasUsed": "0xcc96c1",
      "logs": [
        {
          "address": "0x8faa958134e083c039f28bef5d8412c5be0af6d2",
          "topics": [
            "0xddf252ad1be2c89b69c2b068fc378daa952ba7f163c4a11628f55a4df523b3ef",
            "0x000000000000000000000000ab4fe51ba4d5155b2e6842cad17148b798e4615e",
            "0x000000000000000000000000956624906911ddc739fe893cee1f80e5be934040"
          ],
          "data": "0x0000000000000000000000000000000000000000000000008ac7230489e80000",
          "blockHash": "0x83f48b47da2651bf76bec9425aea4456d370291fb13dc598b2a857056e8908b7",
          "blockNumber": "0x9ea17e",
          "blockTimestamp": "0x69aabe30",
          "transactionHash": "0xf6e2b4f8b59ff25bc7ce4ee809bdff2230564dc19e47bc8bda074668ebc93500",
          "transactionIndex": "0x9c",
          "logIndex": "0xe5",
          "removed": false
        },
        {
          "address": "0x956624906911ddc739fe893cee1f80e5be934040",
          "topics": [
            "0x26319004cc83552ac9e9198e5d281d5a2787f53318a6263c8d2066afd9658af1",
            "0x0000000000000000000000000000000000000000000000000000000000000001",
            "0x000000000000000000000000ab4fe51ba4d5155b2e6842cad17148b798e4615e"
          ],
          "data": "0x00000000000000000000000000000000000000000000000000000000000000010000000000000000000000000000000000000000000000008ac7230489e800000000000000000000000000000000000000000000000000000e043da617250000",
          "blockHash": "0x83f48b47da2651bf76bec9425aea4456d370291fb13dc598b2a857056e8908b7",
          "blockNumber": "0x9ea17e",
          "blockTimestamp": "0x69aabe30",
          "transactionHash": "0xf6e2b4f8b59ff25bc7ce4ee809bdff2230564dc19e47bc8bda074668ebc93500",
          "transactionIndex": "0x9c",
          "logIndex": "0xe6",
          "removed": false
        }
      ],
      "logsBloom": "0x80000000000008000000000000000000000000000000000000000000000000000000000000040000000000000008000000000000000000000000000000040000000020000000000000000008000000000000000000040000000000000000000000000000000010000000000000000000000100000000010000000010000000010000000000000000000000000000000000000000000000000000000000000000000000000000000000000000008000000000000000000000000000000000800000000002000000000000000000000000008000000000000000000000000040004000000000000000000000000000000080000000000000000000000000000000",
      "type": "0x2",
      "transactionHash": "0xf6e2b4f8b59ff25bc7ce4ee809bdff2230564dc19e47bc8bda074668ebc93500",
      "transactionIndex": "0x9c",
      "blockHash": "0x83f48b47da2651bf76bec9425aea4456d370291fb13dc598b2a857056e8908b7",
      "blockNumber": "0x9ea17e",
      "gasUsed": "0x3da9e",
      "effectiveGasPrice": "0xf833c0",
      "from": "0xab4fe51ba4d5155b2e6842cad17148b798e4615e",
      "to": "0x956624906911ddc739fe893cee1f80e5be934040",
      "contractAddress": null
    }
  ],
  "libraries": [],
  "pending": [],
  "returns": {},
  "timestamp": 1772797490582,
  "chain": 11155111,
  "commit": "ed184bb"
}