{
  "transactions": [
    {
      "hash": "0xba15e994b874ce769db71c3d8a4b3bddea053fb5a031b7a024d9f48c12db81b3",
      "transactionType": "CALL",
      "contractName": null,
      "contractAddress": "0x956624906911ddc739fe893cee1f80e5be934040",
      "function": "cancelOrder(uint256)",
      "arguments": [
        "0"
      ],
      "transaction": {
        "from": "0xab4fe51ba4d5155b2e6842cad17148b798e4615e",
        "to": "0x956624906911ddc739fe893cee1f80e5be934040",
        "gas": "0x18685",
        "value": "0x0",
        "input": "0x514fcac70000000000000000000000000000000000000000000000000000000000000000",
        "nonce": "0x9a",
        "chainId": "0xaa36a7"
      },
      "additionalContracts": [],
      "isFixedGasLimit": false
    }
  ],
  "receipts": [
    {
      "status": "0x1",
      "cumulativeGasUsed": "0xb4942d",
      "logs": [
        {
          "address": "0x7aff4f1a79d86095a6e2ebef1dcff7c263e55970",
          "topics": [
            "0xddf252ad1be2c89b69c2b068fc378daa952ba7f163c4a11628f55a4df523b3ef",
            "0x000000000000000000000000956624906911ddc739fe893cee1f80e5be934040",
            "0x000000000000000000000000ab4fe51ba4d5155b2e6842cad17148b798e4615e"
          ],
          "data": "0x0000000000000000000000000000000000000000000000008ac7230489e80000",
          "blockHash": "0xb13c195acd612fc63767eff403a6285f9370a5a746462cdd58d34c4e8ed63e0b",
          "blockNumber": "0x9ebd2c",
          "blockTimestamp": "0x69ac3fb0",
          "transactionHash": "0xba15e994b874ce769db71c3d8a4b3bddea053fb5a031b7a024d9f48c12db81b3",
          "transactionIndex": "0x60",
          "logIndex": "0x6b",
          "removed": false
        },
        {
          "address": "0x956624906911ddc739fe893cee1f80e5be934040",
          "topics": [
            "0xc0362da6f2ff36b382b34aec0814f6b3cdf89f5ef282a1d1f114d0c0b036d596",
            "0x0000000000000000000000000000000000000000000000000000000000000000",
            "0x000000000000000000000000ab4fe51ba4d5155b2e6842cad17148b798e4615e"
          ],
          "data": "0x",
          "blockHash": "0xb13c195acd612fc63767eff403a6285f9370a5a746462cdd58d34c4e8ed63e0b",
          "blockNumber": "0x9ebd2c",
          "blockTimestamp": "0x69ac3fb0",
          "transactionHash": "0xba15e994b874ce769db71c3d8a4b3bddea053fb5a031b7a024d9f48c12db81b3",
          "transactionIndex": "0x60",
          "logIndex": "0x6c",
          "removed": false
        }
      ],
      "logsBloom": "0x00204000000008000000000000000000000000000000200000000000000000000000000000040000000000000008000000000000000000000000000000000000000020000000000000000008000000000000000000000000000000000000000000000000020000000000000000000800000100000000010000000010001000000000000000000000000000000000000000000000000000000000000000000000000000000000000000000000000000000000000000000000000000000000800000000002000000000000000000000000008000000000000000000000000028000000000000000000000000002000000080000000000000000000000000000000",
      "type": "0x2",
      "transactionHash": "0xba15e994b874ce769db71c3d8a4b3bddea053fb5a031b7a024d9f48c12db81b3",
      "transactionIndex": "0x60",
      "blockHash": "0xb13c195acd612fc63767eff403a6285f9370a5a746462cdd58d34c4e8ed63e0b",
      "blockNumber": "0x9ebd2c",
      "gasUsed": "0x11abc",
      "effectiveGasPrice": "0x158d5f",
      "from": "0xab4fe51ba4d5155b2e6842cad17148b798e4615e",
      "to": "0x956624906911ddc739fe893cee1f80e5be934040",
      "contractAddress": null
    }
  ],
  "libraries": [],
  "pending": [],
  "returns": {},
  "timestamp": 1772896176807,
  "chain": 11155111,
  "commit": "ed184bb"
}