{
  "transactions": [
    {
      "hash": "0xdf7eef9cd3a79dfd4a7815aae966dfe2f5e6a1d7e83c754273e3ab573ba86254",
      "transactionType": "CALL",
      "contractName": null,
      "contractAddress": "0x93345833027ab2ab863b812fa7ca9d5cfee883bc",
      "function": "mint(address,uint256)",
      "arguments": [
        "0xab4FE51Ba4D5155b2e6842CAD17148b798e4615e",
        "10000000000000000000"
      ],
      "transaction": {
        "from": "0xab4fe51ba4d5155b2e6842cad17148b798e4615e",
        "to": "0x93345833027ab2ab863b812fa7ca9d5cfee883bc",
        "gas": "0xb6bb",
        "value": "0x0",
        "input": "0x40c10f19000000000000000000000000ab4fe51ba4d5155b2e6842cad17148b798e4615e0000000000000000000000000000000000000000000000008ac7230489e80000",
        "nonce": "0xac",
        "chainId": "0xaa36a7"
      },
      "additionalContracts": [],
      "isFixedGasLimit": false
    },
    {
      "hash": "0xe047e55cc7c4e71eb139ee4c1360bee3fbe7576c0ff08d23e319b32ea7a95bc8",
      "transactionType": "CALL",
      "contractName": null,
      "contractAddress": "0x93345833027ab2ab863b812fa7ca9d5cfee883bc",
      "function": "approve(address,uint256)",
      "arguments": [
        "0x43BF7DA3d2e26D295a8965109505767e93B24040",
        "10000000000000000000"
      ],
      "transaction": {
        "from": "0xab4fe51ba4d5155b2e6842cad17148b798e4615e",
        "to": "0x93345833027ab2ab863b812fa7ca9d5cfee883bc",
        "gas": "0x1062b",
        "value": "0x0",
        "input": "0x095ea7b300000000000000000000000043bf7da3d2e26d295a8965109505767e93b240400000000000000000000000000000000000000000000000008ac7230489e80000",
        "nonce": "0xad",
        "chainId": "0xaa36a7"
      },
      "additionalContracts": [],
      "isFixedGasLimit": false
    },
    {
      "hash": "0xb2ed63e974e543637ddb151bcd812ae4d9f3923b1ddab29053ab0c19ca95898b",
      "transactionType": "CALL",
      "contractName": "LimitOrderHook",
      "contractAddress": "0x43bf7da3d2e26d295a8965109505767e93b24040",
      "function": "createLimitOrder((address,address,uint24,int24,address),bool,uint96,uint128)",
      "arguments": [
        "(0x93345833027Ab2Ab863b812fA7cA9D5cfee883BC, 0xcD11CC946B446088A987d3163E662C335C20d410, 3000, 60, 0x43BF7DA3d2e26D295a8965109505767e93B24040)",
        "true",
        "10000000000000000000",
        "1010000000000000000"
      ],
      "transaction": {
        "from": "0xab4fe51ba4d5155b2e6842cad17148b798e4615e",
        "to": "0x43bf7da3d2e26d295a8965109505767e93b24040",
        "gas": "0x73580",
        "value": "0x0",
        "input": "0x58a86a0100000000000000000000000093345833027ab2ab863b812fa7ca9d5cfee883bc000000000000000000000000cd11cc946b446088a987d3163e662c335c20d4100000000000000000000000000000000000000000000000000000000000000bb8000000000000000000000000000000000000000000000000000000000000003c00000000000000000000000043bf7da3d2e26d295a8965109505767e93b2404000000000000000000000000000000000000000000000000000000000000000010000000000000000000000000000000000000000000000008ac7230489e800000000000000000000000000000000000000000000000000000e043da617250000",
        "nonce": "0xae",
        "chainId": "0xaa36a7"
      },
      "additionalContracts": [],
      "isFixedGasLimit": false
    }
  ],
  "receipts": [
    {
      "status": "0x1",
      "cumulativeGasUsed": "0x15fe4ed",
      "logs": [
        {
          "address": "0x93345833027ab2ab863b812fa7ca9d5cfee883bc",
          "topics": [
            "0xddf252ad1be2c89b69c2b068fc378daa952ba7f163c4a11628f55a4df523b3ef",
            "0x0000000000000000000000000000000000000000000000000000000000000000",
            "0x000000000000000000000000ab4fe51ba4d5155b2e6842cad17148b798e4615e"
          ],
          "data": "0x0000000000000000000000000000000000000000000000008ac7230489e80000",
          "blockHash": "0x7e1eb94170dcf7be57ea8b19ae578753eea0ad94c5b54e3636545cbcfa8455d6",
          "blockNumber": "0x9f07e6",
          "blockTimestamp": "0x69b0619c",
          "transactionHash": "0xdf7eef9cd3a79dfd4a7815aae966dfe2f5e6a1d7e83c754273e3ab573ba86254",
          "transactionIndex": "0xb6",
          "logIndex": "0x224",
          "removed": false
        }
      ],
      "logsBloom": "0x00000000000000000000000000000000000000000000000000000000000000000000000000040000000000000000000000000000000000000000000000000000000000000000000000000008000000000000000000000000000000000000000000000000020000000000000000000800000100000000010000000010000000000000000000000000000000000000000000000000000000000000008000000000000000001000000000000000000000000000000000000000000000000000000000000002000000000000000000000000000000000000000000000000000020000000000000000000000000000000000200000000000000000000000000000000",
      "type": "0x2",
      "transactionHash": "0xdf7eef9cd3a79dfd4a7815aae966dfe2f5e6a1d7e83c754273e3ab573ba86254",
      "transactionIndex": "0xb6",
      "blockHash": "0x7e1eb94170dcf7be57ea8b19ae578753eea0ad94c5b54e3636545cbcfa8455d6",
      "blockNumber": "0x9f07e6",
      "gasUsed": "0x844c",
      "effectiveGasPrice": "0xf97f7",
      "from": "0xab4fe51ba4d5155b2e6842cad17148b798e4615e",
      "to": "0x93345833027ab2ab863b812fa7ca9d5cfee883bc",
      "contractAddress": null
    },
    {
      "status": "0x1",
      "cumulativeGasUsed": "0x798c0d",
      "logs": [
        {
          "address": "0x93345833027ab2ab863b812fa7ca9d5cfee883bc",
          "topics": [
            "0x8c5be1e5ebec7d5bd14f71427d1e84f3dd0314c0f7b2291e5b200ac8c7c3b925",
            "0x000000000000000000000000ab4fe51ba4d5155b2e6842cad17148b798e4615e",
            "0x00000000000000000000000043bf7da3d2e26d295a8965109505767e93b24040"
          ],
          "data": "0x0000000000000000000000000000000000000000000000008ac7230489e80000",
          "blockHash": "0x017a6e174354488909e93fe206245b90f4fe8a34b59ce7f0f5caef0a6468b150",
          "blockNumber": "0x9f07e7",
          "blockTimestamp": "0x69b061a8",
          "transactionHash": "0xe047e55cc7c4e71eb139ee4c1360bee3fbe7576c0ff08d23e319b32ea7a95bc8",
          "transactionIndex": "0x56",
          "logIndex": "0xaf",
          "removed": false
        }
      ],
      "logsBloom": "0x00000000000000000000000000000000000000000000000000000000000000000000000000040000000000000000000000000000000000000000000000200000000000000000000000000000000000008000000000000000000000000000000000000000000000000000000000000000000100000000030000000000000000000000000000000000000000000000000000000000000000000000008000000000020000001000000000000000000000000000000000000000000000000000000000000000100000000000000000000000000000000000000000000000000000000010000000000000000000000000000200000000000000000000000000000000",
      "type": "0x2",
      "transactionHash": "0xe047e55cc7c4e71eb139ee4c1360bee3fbe7576c0ff08d23e319b32ea7a95bc8",
      "transactionIndex": "0x56",
      "blockHash": "0x017a6e174354488909e93fe206245b90f4fe8a34b59ce7f0f5caef0a6468b150",
      "blockNumber": "0x9f07e7",
      "gasUsed": "0xb343",
      "effectiveGasPrice": "0xf97f7",
      "from": "0xab4fe51ba4d5155b2e6842cad17148b798e4615e",
      "to": "0x93345833027ab2ab863b812fa7ca9d5cfee883bc",
      "contractAddress": null
    },
    {
      "status": "0x1",
      "cumulativeGasUsed": "0x1ed8a8f",
      "logs": [
        {
          "address": "0x93345833027ab2ab863b812fa7ca9d5cfee883bc",
          "topics": [
            "0xddf252ad1be2c89b69c2b068fc378daa952ba7f163c4a11628f55a4df523b3ef",
            "0x000000000000000000000000ab4fe51ba4d5155b2e6842cad17148b798e4615e",
            "0x00000000000000000000000043bf7da3d2e26d295a8965109505767e93b24040"
          ],
          "data": "0x0000000000000000000000000000000000000000000000008ac7230489e80000",
          "blockHash": "0x4d201426fdaa25c3640906b4b37c5577845ef11713c356af8ba81437de452a34",
          "blockNumber": "0x9f07e8",
          "blockTimestamp": "0x69b061d8",
          "transactionHash": "0xb2ed63e974e543637ddb151bcd812ae4d9f3923b1ddab29053ab0c19ca95898b",
          "transactionIndex": "0x119",
          "logIndex": "0x223",
          "removed": false
        },
        {
          "address": "0x43bf7da3d2e26d295a8965109505767e93b24040",
          "topics": [
            "0x26319004cc83552ac9e9198e5d281d5a2787f53318a6263c8d2066afd9658af1",
            "0x0000000000000000000000000000000000000000000000000000000000000000",
            "0x000000000000000000000000ab4fe51ba4d5155b2e6842cad17148b798e4615e"
          ],
          "data": "0x00000000000000000000000000000000000000000000000000000000000000010000000000000000000000000000000000000000000000008ac7230489e800000000000000000000000000000000000000000000000000000e043da617250000",
          "blockHash": "0x4d201426fdaa25c3640906b4b37c5577845ef11713c356af8ba81437de452a34",
          "blockNumber": "0x9f07e8",
          "blockTimestamp": "0x69b061d8",
          "transactionHash": "0xb2ed63e974e543637ddb151bcd812ae4d9f3923b1ddab29053ab0c19ca95898b",
          "transactionIndex": "0x119",
          "logIndex": "0x224",
          "removed": false
        }
      ],
      "logsBloom": "0x00000000000000000000000000000000000000000000000000000000000000000000000000040000000000000000000000000000000000000000000000000000000000000000000000000008000000008000000000000000000000000000000000000000020000000000000000000800000100000000030000000010000000010000000000000000020000000000000000000000000000000000008008000000000000001000000000000000000000000000000000000000000000000000800000000002100000000000000000000000000000000000000000000000000020004000000000000000000000000000000200000000000000000100000000000000",
      "type": "0x2",
      "transactionHash": "0xb2ed63e974e543637ddb151bcd812ae4d9f3923b1ddab29053ab0c19ca95898b",
      "transactionIndex": "0x119",
      "blockHash": "0x4d201426fdaa25c3640906b4b37c5577845ef11713c356af8ba81437de452a34",
      "blockNumber": "0x9f07e8",
      "gasUsed": "0x5381d",
      "effectiveGasPrice": "0xf97f6",
      "from": "0xab4fe51ba4d5155b2e6842cad17148b798e4615e",
      "to": "0x43bf7da3d2e26d295a8965109505767e93b24040",
      "contractAddress": null
    }
  ],
  "libraries": [],
  "pending": [],
  "returns": {},
  "timestamp": 1773167066161,
  "chain": 11155111,
  "commit": "e95e311"
}