{
  "transactions": [
    {
      "hash": "0x330b426880dc8da5b7fbd342375f6f975c50a2db01e0f5c0d3ff05206435ea2d",
      "transactionType": "CREATE",
      "contractName": "PoolSwapTest",
      "contractAddress": "0x49b7d896e9be5a31787399f7936cc976ae04634b",
      "function": null,
      "arguments": [
        "0xE03A1074c86CFeDd5C142C4F04F1a1536e203543"
      ],
      "transaction": {
        "from": "0xab4fe51ba4d5155b2e6842cad17148b798e4615e",
        "gas": "0x1ed24d",
        "value": "0x0",
        "input": "0x60a034607a57601f611be238819003918201601f19168301916001600160401b03831184841017607e57808492602094604052833981010312607a57516001600160a01b0381168103607a57608052604051611b4f9081610093823960805181818160ab01528181610d29015281816110a6015261158c0152f35b5f80fd5b634e487b7160e01b5f52604160045260245ffdfe60806040526004361015610011575f80fd5b5f3560e01c80632229d0b414610d4d578063481c6a7514610cdf576391dd73461461003a575f80fd5b34610c0c5760207ffffffffffffffffffffffffffffffffffffffffffffffffffffffffffffffffc360112610c0c5760043567ffffffffffffffff8111610c0c5736602382011215610c0c57806004013567ffffffffffffffff8111610c0c578101906024820191368311610c0c577f00000000000000000000000000000000000000000000000000000000000000009273ffffffffffffffffffffffffffffffffffffffff841692833303610c0c57602081840312610c0c5760248101359067ffffffffffffffff8211610c0c57019061018082840312610c0c576040519161012383611236565b61012f602482016112f8565b835260407fffffffffffffffffffffffffffffffffffffffffffffffffffffffffffffffe08286030112610c0c576040519061016a8261129b565b61017660448201611319565b825261018460648201611319565b60208301526020840191825260a060247fffffffffffffffffffffffffffffffffffffffffffffffffffffffffffffff7c838803010112610c0c57604051946101cc86611236565b6101d8608483016112f8565b86526101e660a483016112f8565b602087015260c482013562ffffff81168103610c0c57604087015260e48201358060020b8103610c0c57606087015261010482013573ffffffffffffffffffffffffffffffffffffffff81168103610c0c577ffffffffffffffffffffffffffffffffffffffffffffffffffffffffffffffedc8360609360249360808b015260408901998a5203010112610c0c57604051926102818461127f565b61028e6101248301611319565b8452610144820135602085015261016482013573ffffffffffffffffffffffffffffffffffffffff81168103610c0c576040850152606085019384526101848201359167ffffffffffffffff8311610c0c576102ed9201602401611360565b946080840195865261033073ffffffffffffffffffffffffffffffffffffffff8651511673ffffffffffffffffffffffffffffffffffffffff8651163091611567565b91505061037273ffffffffffffffffffffffffffffffffffffffff60208851015116309073ffffffffffffffffffffffffffffffffffffffff88511690611567565b92915050610c8157610c2357610447956020916104135f885161045b885195516040519c8d97889687957ff3cd914c000000000000000000000000000000000000000000000000000000008752600487019073ffffffffffffffffffffffffffffffffffffffff6080809282815116855282602082015116602086015262ffffff6040820151166040860152606081015160020b6060860152015116910152565b8051151560a4860152602081015160c48601526040015173ffffffffffffffffffffffffffffffffffffffff1660e4850152565b6101206101048401526101248301906113a6565b03925af1948515610c18575f95610be0575b506104aa73ffffffffffffffffffffffffffffffffffffffff85515116309073ffffffffffffffffffffffffffffffffffffffff86511690611567565b979150506104ed73ffffffffffffffffffffffffffffffffffffffff60208751015116309073ffffffffffffffffffffffffffffffffffffffff87511690611567565b855180519196935091501561092357505f602082510151125f146107cb575160200151871261072157610527878760801d600f0b146113f8565b5f831261069d57610582965b5f811261065b575b5f8412610606575b5f81136105be575b505f8313610586575b86866040519060208201526020815261056e6040826112b7565b6040519182916020835260208301906113a6565b0390f35b73ffffffffffffffffffffffffffffffffffffffff8060206105b49751015116945116915151151593611989565b5f80808080610554565b6106009073ffffffffffffffffffffffffffffffffffffffff875151169073ffffffffffffffffffffffffffffffffffffffff87511684865151151593611989565b5f61054b565b61065673ffffffffffffffffffffffffffffffffffffffff6020885101511673ffffffffffffffffffffffffffffffffffffffff8751166106468761150e565b9085602088510151151593611651565b610543565b61069873ffffffffffffffffffffffffffffffffffffffff8751511673ffffffffffffffffffffffffffffffffffffffff8751166106468461150e565b61053b565b60846040517f08c379a000000000000000000000000000000000000000000000000000000000815260206004820152602d60248201527f64656c7461416674657231206973206e6f742067726561746572207468616e2060448201527f6f7220657175616c20746f2030000000000000000000000000000000000000006064820152fd5b60a46040517f08c379a000000000000000000000000000000000000000000000000000000000815260206004820152604760248201527f64656c7461416674657230206973206e6f742067726561746572207468616e2060448201527f6f7220657175616c20746f20646174612e706172616d732e616d6f756e74537060648201527f65636966696564000000000000000000000000000000000000000000000000006084820152fd5b5f881361089f576020906107e38589600f0b14611483565b51015183136107f55761058296610533565b60a46040517f08c379a000000000000000000000000000000000000000000000000000000000815260206004820152604460248201527f64656c7461416674657231206973206e6f74206c657373207468616e206f722060448201527f657175616c20746f20646174612e706172616d732e616d6f756e74537065636960648201527f66696564000000000000000000000000000000000000000000000000000000006084820152fd5b60846040517f08c379a000000000000000000000000000000000000000000000000000000000815260206004820152602d60248201527f64656c7461416674657230206973206e6f74206c657373207468616e206f722060448201527f657175616c20746f207a65726f000000000000000000000000000000000000006064820152fd5b602001515f1315610a8557516020015183126109db576109478387600f0b14611483565b5f87126109575761058296610533565b60846040517f08c379a000000000000000000000000000000000000000000000000000000000815260206004820152602d60248201527f64656c7461416674657230206973206e6f742067726561746572207468616e2060448201527f6f7220657175616c20746f2030000000000000000000000000000000000000006064820152fd5b60a46040517f08c379a000000000000000000000000000000000000000000000000000000000815260206004820152604760248201527f64656c7461416674657231206973206e6f742067726561746572207468616e2060448201527f6f7220657175616c20746f20646174612e706172616d732e616d6f756e74537060648201527f65636966696564000000000000000000000000000000000000000000000000006084820152fd5b5f8413610b5c57602090610aa0898960801d600f0b146113f8565b5101518713610ab25761058296610533565b60a46040517f08c379a000000000000000000000000000000000000000000000000000000000815260206004820152604460248201527f64656c7461416674657230206973206e6f74206c657373207468616e206f722060448201527f657175616c20746f20646174612e706172616d732e616d6f756e74537065636960648201527f66696564000000000000000000000000000000000000000000000000000000006084820152fd5b60846040517f08c379a000000000000000000000000000000000000000000000000000000000815260206004820152602a60248201527f64656c7461416674657231206973206e6f74206c657373207468616e206f722060448201527f657175616c20746f2030000000000000000000000000000000000000000000006064820152fd5b9094506020813d602011610c10575b81610bfc602093836112b7565b81010312610c0c5751935f61046d565b5f80fd5b3d9150610bef565b6040513d5f823e3d90fd5b60646040517f08c379a000000000000000000000000000000000000000000000000000000000815260206004820152601e60248201527f64656c74614265666f726531206973206e6f7420657175616c20746f203000006044820152fd5b60646040517f08c379a000000000000000000000000000000000000000000000000000000000815260206004820152601e60248201527f64656c74614265666f726530206973206e6f7420657175616c20746f203000006044820152fd5b34610c0c575f7ffffffffffffffffffffffffffffffffffffffffffffffffffffffffffffffffc360112610c0c57602060405173ffffffffffffffffffffffffffffffffffffffff7f0000000000000000000000000000000000000000000000000000000000000000168152f35b7ffffffffffffffffffffffffffffffffffffffffffffffffffffffffffffffffc36016101608112610c0c5760a013610c0c57604051610d8c81611236565b60043573ffffffffffffffffffffffffffffffffffffffff81168103610c0c57815260243573ffffffffffffffffffffffffffffffffffffffff81168103610c0c57602082015260443562ffffff81168103610c0c5760408201526064358060020b8103610c0c57606082015260843573ffffffffffffffffffffffffffffffffffffffff81168103610c0c57608082015260607fffffffffffffffffffffffffffffffffffffffffffffffffffffffffffffff5c360112610c0c57604051610e548161127f565b60a4358015158103610c0c57815260c435602082015260e43573ffffffffffffffffffffffffffffffffffffffff81168103610c0c57604082015260407ffffffffffffffffffffffffffffffffffffffffffffffffffffffffffffffefc360112610c0c5760405191610ec68361129b565b610104358015158103610c0c578352610124358015158103610c0c5760208401526101443567ffffffffffffffff8111610c0c5761108c9361102573ffffffffffffffffffffffffffffffffffffffff936110105f96610fd8610f30611051973690600401611360565b93602060405197610f4089611236565b3389528189019081526040890192835260608901948552608089019687526040519a8b9983808c0152511660408a0152518051151560608a01520151151560808801525160a087019073ffffffffffffffffffffffffffffffffffffffff6080809282815116855282602082015116602086015262ffffff6040820151166040860152606081015160020b6060860152015116910152565b518051151561014086015260208101516101608601526040015173ffffffffffffffffffffffffffffffffffffffff16610180850152565b516101806101a08401526101c08301906113a6565b037fffffffffffffffffffffffffffffffffffffffffffffffffffffffffffffffe081018352826112b7565b604051809381927f48c894910000000000000000000000000000000000000000000000000000000083526020600484015260248301906113a6565b03818373ffffffffffffffffffffffffffffffffffffffff7f0000000000000000000000000000000000000000000000000000000000000000165af1908115610c18575f916111bc575b5060208151918180820193849201010312610c0c575147806110fe575b602082604051908152f35b5f80808093335af11561111157816110f3565b7fffffffffffffffffffffffffffffffffffffffffffffffffffffffffffffffe0601f3d0116604051907f90bfb8650000000000000000000000000000000000000000000000000000000082523360048301525f6024830152608060448301528060a00160648301523d60848301523d5f60a484013e7ff4b3b1bc0000000000000000000000000000000000000000000000000000000060c4828401600460a4820152015260e40190fd5b90503d805f833e6111cd81836112b7565b810190602081830312610c0c5780519067ffffffffffffffff8211610c0c570181601f82011215610c0c5780519061120482611326565b9261121260405194856112b7565b82845260208383010111610c0c57815f9260208093018386015e83010152816110d6565b60a0810190811067ffffffffffffffff82111761125257604052565b7f4e487b71000000000000000000000000000000000000000000000000000000005f52604160045260245ffd5b6060810190811067ffffffffffffffff82111761125257604052565b6040810190811067ffffffffffffffff82111761125257604052565b90601f7fffffffffffffffffffffffffffffffffffffffffffffffffffffffffffffffe0910116810190811067ffffffffffffffff82111761125257604052565b359073ffffffffffffffffffffffffffffffffffffffff82168203610c0c57565b35908115158203610c0c57565b67ffffffffffffffff811161125257601f017fffffffffffffffffffffffffffffffffffffffffffffffffffffffffffffffe01660200190565b81601f82011215610c0c5780359061137782611326565b9261138560405194856112b7565b82845260208383010111610c0c57815f926020809301838601378301015290565b907fffffffffffffffffffffffffffffffffffffffffffffffffffffffffffffffe0601f602080948051918291828752018686015e5f8582860101520116010190565b90816020910312610c0c575190565b156113ff57565b60846040517f08c379a000000000000000000000000000000000000000000000000000000000815260206004820152602b60248201527f64656c74612e616d6f756e74302829206973206e6f7420657175616c20746f2060448201527f64656c74614166746572300000000000000000000000000000000000000000006064820152fd5b1561148a57565b60846040517f08c379a000000000000000000000000000000000000000000000000000000000815260206004820152602b60248201527f64656c74612e616d6f756e74312829206973206e6f7420657175616c20746f2060448201527f64656c74614166746572310000000000000000000000000000000000000000006064820152fd5b7f8000000000000000000000000000000000000000000000000000000000000000811461153a575f0390565b7f4e487b71000000000000000000000000000000000000000000000000000000005f52601160045260245ffd5b92906115739084611a9a565b9273ffffffffffffffffffffffffffffffffffffffff807f00000000000000000000000000000000000000000000000000000000000000001691816115b88483611a9a565b95165f5216602052602060405f206024604051809481937ff135baaa00000000000000000000000000000000000000000000000000000000835260048301525afa908115610c18575f9161160a575090565b90506020813d602011611631575b81611625602093836112b7565b81010312610c0c575190565b3d9150611618565b90816020910312610c0c57518015158103610c0c5790565b9293156116f35773ffffffffffffffffffffffffffffffffffffffff16803b15610c0c576040517ff5298aca00000000000000000000000000000000000000000000000000000000815273ffffffffffffffffffffffffffffffffffffffff92831660048201529290911660248301526044820192909252905f908290818381606481015b03925af18015610c18576116e75750565b5f6116f1916112b7565b565b9173ffffffffffffffffffffffffffffffffffffffff168061179157505073ffffffffffffffffffffffffffffffffffffffff600460209260405194859384927f11da60b4000000000000000000000000000000000000000000000000000000008452165af18015610c18576117665750565b6117879060203d60201161178a575b61177f81836112b7565b8101906113e9565b50565b503d611775565b90929173ffffffffffffffffffffffffffffffffffffffff1691823b15610c0c57604051937fa58411940000000000000000000000000000000000000000000000000000000085525f948360048201525f8160248183895af18015610c1857611960575b5073ffffffffffffffffffffffffffffffffffffffff16843082146118ec576020929160649160405195869485937f23b872dd000000000000000000000000000000000000000000000000000000008552600485015288602485015260448401525af180156118e1579160209184936118b4575b505b6004604051809581937f11da60b40000000000000000000000000000000000000000000000000000000083525af19081156118a857506117665750565b604051903d90823e3d90fd5b6118d390833d85116118da575b6118cb81836112b7565b810190611639565b505f611869565b503d6118c1565b6040513d85823e3d90fd5b929050604460209260405194859384927fa9059cbb00000000000000000000000000000000000000000000000000000000845288600485015260248401525af180156118e157916020918493611943575b5061186b565b61195990833d85116118da576118cb81836112b7565b505f61193d565b61196d9195505f906112b7565b5f9373ffffffffffffffffffffffffffffffffffffffff6117f5565b929315611a125773ffffffffffffffffffffffffffffffffffffffff16803b15610c0c576040517f156e29f600000000000000000000000000000000000000000000000000000000815273ffffffffffffffffffffffffffffffffffffffff92831660048201529290911660248301526044820192909252905f908290818381606481016116d6565b90929073ffffffffffffffffffffffffffffffffffffffff16803b15610c0c575f928360649273ffffffffffffffffffffffffffffffffffffffff948560405198899788967f0b0d9c0900000000000000000000000000000000000000000000000000000000885216600487015216602485015260448401525af18015610c18576116e75750565b73ffffffffffffffffffffffffffffffffffffffff1680611aba57503190565b9073ffffffffffffffffffffffffffffffffffffffff602460209260405194859384927f70a082310000000000000000000000000000000000000000000000000000000084521660048301525afa908115610c18575f9161160a57509056fea2646970667358221220b83ddb11931f92e09705af17ab4324c33af587e937aac600560b5bfaddbd3aae64736f6c634300081a0033000000000000000000000000e03a1074c86cfedd5c142c4f04f1a1536e203543",
        "nonce": "0x13",
        "chainId": "0xaa36a7"
      },
      "additionalContracts": [],
      "isFixedGasLimit": false
    },
    {
      "hash": "0x0f0db02a522941d7a34e8341e412a5b4c783906e60fe20bc85d44f9b464d987a",
      "transactionType": "CALL",
      "contractName": null,
      "contractAddress": "0xa913a8019dd32691d7a9316a3d6cb75ba3904325",
      "function": "mint(address,uint256)",
      "arguments": [
        "0xab4FE51Ba4D5155b2e6842CAD17148b798e4615e",
        "50000000000000000000000"
      ],
      "transaction": {
        "from": "0xab4fe51ba4d5155b2e6842cad17148b798e4615e",
        "to": "0xa913a8019dd32691d7a9316a3d6cb75ba3904325",
        "gas": "0xb6dd",
        "value": "0x0",
        "input": "0x40c10f19000000000000000000000000ab4fe51ba4d5155b2e6842cad17148b798e4615e000000000000000000000000000000000000000000000a968163f0a57b400000",
        "nonce": "0x14",
        "chainId": "0xaa36a7"
      },
      "additionalContracts": [],
      "isFixedGasLimit": false
    },
    {
      "hash": "0x33c9e017d3122b6c11beca2554ceec5a6a6e86d240ce8b5e589752b5638ac40c",
      "transactionType": "CALL",
      "contractName": null,
      "contractAddress": "0xa913a8019dd32691d7a9316a3d6cb75ba3904325",
      "function": "approve(address,uint256)",
      "arguments": [
        "0x49b7d896e9bE5A31787399F7936cC976ae04634B",
        "50000000000000000000000"
      ],
      "transaction": {
        "from": "0xab4fe51ba4d5155b2e6842cad17148b798e4615e",
        "to": "0xa913a8019dd32691d7a9316a3d6cb75ba3904325",
        "gas": "0x1064e",
        "value": "0x0",
        "input": "0x095ea7b300000000000000000000000049b7d896e9be5a31787399f7936cc976ae04634b000000000000000000000000000000000000000000000a968163f0a57b400000",
        "nonce": "0x15",
        "chainId": "0xaa36a7"
      },
      "additionalContracts": [],
      "isFixedGasLimit": false
    },
    {
      "hash": "0x18b4ddac062e7676dc9e36f470137e6ed1fd110dd4c66f936ee2fc743f829c01",
      "transactionType": "CALL",
      "contractName": "PoolSwapTest",
      "contractAddress": "0x49b7d896e9be5a31787399f7936cc976ae04634b",
      "function": "swap((address,address,uint24,int24,address),(bool,int256,uint160),(bool,bool),bytes)",
      "arguments": [
        "(0x388D28a3D9aFcBdaeb97a359FC67A0B53fC0146E, 0xa913a8019dd32691d7a9316a3d6cB75BA3904325, 3000, 60, 0xE96fDfF54e9eD65E22e00fe57C425348dd58c088)",
        "(false, -50000000000000000000000, 1461446703485210103287273052203988822378723970341)",
        "(false, false)",
        "0x"
      ],
      "transaction": {
        "from": "0xab4fe51ba4d5155b2e6842cad17148b798e4615e",
        "to": "0x49b7d896e9be5a31787399f7936cc976ae04634b",
        "gas": "0xae05d",
        "value": "0x0",
        "input": "0x2229d0b4000000000000000000000000388d28a3d9afcbdaeb97a359fc67a0b53fc0146e000000000000000000000000a913a8019dd32691d7a9316a3d6cb75ba39043250000000000000000000000000000000000000000000000000000000000000bb8000000000000000000000000000000000000000000000000000000000000003c000000000000000000000000e96fdff54e9ed65e22e00fe57c425348dd58c0880000000000000000000000000000000000000000000000000000000000000000fffffffffffffffffffffffffffffffffffffffffffff5697e9c0f5a84c00000000000000000000000000000fffd8963efd1fc6a506488495d951d5263988d250000000000000000000000000000000000000000000000000000000000000000000000000000000000000000000000000000000000000000000000000000000000000000000000000000000000000000000000000000000000000000000001600000000000000000000000000000000000000000000000000000000000000000",
        "nonce": "0x16",
        "chainId": "0xaa36a7"
      },
      "additionalContracts": [],
      "isFixedGasLimit": false
    }
  ],
  "receipts": [
    {
      "status": "0x1",
      "cumulativeGasUsed": "0x75df24",
      "logs": [],
      "logsBloom": "0x00000000000000000000000000000000000000000000000000000000000000000000000000000000000000000000000000000000000000000000000000000000000000000000000000000000000000000000000000000000000000000000000000000000000000000000000000000000000000000000000000000000000000000000000000000000000000000000000000000000000000000000000000000000000000000000000000000000000000000000000000000000000000000000000000000000000000000000000000000000000000000000000000000000000000000000000000000000000000000000000000000000000000000000000000000000",
      "type": "0x2",
      "transactionHash": "0x18b4ddac062e7676dc9e36f470137e6ed1fd110dd4c66f936ee2fc743f829c01",
      "transactionIndex": "0x3b",
      "blockHash": "0x48e3ea6ac0cb473cf109aee8d3f21e82e17d601a7fffb8543873f0554546270e",
      "blockNumber": "0x9d7fe7",
      "gasUsed": "0x17b577",
      "effectiveGasPrice": "0x1b7752",
      "from": "0xab4fe51ba4d5155b2e6842cad17148b798e4615e",
      "to": null,
      "contractAddress": "0x49b7d896e9be5a31787399f7936cc976ae04634b"
    },
    {
      "status": "0x1",
      "cumulativeGasUsed": "0x83d098",
      "logs": [
        {
          "address": "0xa913a8019dd32691d7a9316a3d6cb75ba3904325",
          "topics": [
            "0xddf252ad1be2c89b69c2b068fc378daa952ba7f163c4a11628f55a4df523b3ef",
            "0x0000000000000000000000000000000000000000000000000000000000000000",
            "0x000000000000000000000000ab4fe51ba4d5155b2e6842cad17148b798e4615e"
          ],
          "data": "0x000000000000000000000000000000000000000000000a968163f0a57b400000",
          "blockHash": "0x48e3ea6ac0cb473cf109aee8d3f21e82e17d601a7fffb8543873f0554546270e",
          "blockNumber": "0x9d7fe7",
          "blockTimestamp": "0x699c96e4",
          "transactionHash": "0x330b426880dc8da5b7fbd342375f6f975c50a2db01e0f5c0d3ff05206435ea2d",
          "transactionIndex": "0x43",
          "logIndex": "0x79",
          "removed": false
        }
      ],
      "logsBloom": "0x00000000000000000000000000000000000000000000000000000000000000000000000000040000000000000000000000000000000000000000000000000000000000000000000000000028000800000000000000000000000000000000000000000000020000000000000000000800000100000000010000000010000000000000000000000000000000000000000000000000000000000000000000000000000000000000000000000000000002000000000000000000000000000000000000000002000000000000000000000000000000000000000000000000000020000000000000000000000000000000000000000000000000000000000000000000",
      "type": "0x2",
      "transactionHash": "0x330b426880dc8da5b7fbd342375f6f975c50a2db01e0f5c0d3ff05206435ea2d",
      "transactionIndex": "0x43",
      "blockHash": "0x48e3ea6ac0cb473cf109aee8d3f21e82e17d601a7fffb8543873f0554546270e",
      "blockNumber": "0x9d7fe7",
      "gasUsed": "0x8464",
      "effectiveGasPrice": "0x1b7752",
      "from": "0xab4fe51ba4d5155b2e6842cad17148b798e4615e",
      "to": "0xa913a8019dd32691d7a9316a3d6cb75ba3904325",
      "contractAddress": null
    },
    {
      "status": "0x1",
      "cumulativeGasUsed": "0x880fc5",
      "logs": [
        {
          "address": "0xa913a8019dd32691d7a9316a3d6cb75ba3904325",
          "topics": [
            "0x8c5be1e5ebec7d5bd14f71427d1e84f3dd0314c0f7b2291e5b200ac8c7c3b925",
            "0x000000000000000000000000ab4fe51ba4d5155b2e6842cad17148b798e4615e",
            "0x00000000000000000000000049b7d896e9be5a31787399f7936cc976ae04634b"
          ],
          "data": "0x000000000000000000000000000000000000000000000a968163f0a57b400000",
          "blockHash": "0x48e3ea6ac0cb473cf109aee8d3f21e82e17d601a7fffb8543873f0554546270e",
          "blockNumber": "0x9d7fe7",
          "blockTimestamp": "0x699c96e4",
          "transactionHash": "0x0f0db02a522941d7a34e8341e412a5b4c783906e60fe20bc85d44f9b464d987a",
          "transactionIndex": "0x46",
          "logIndex": "0x80",
          "removed": false
        }
      ],
      "logsBloom": "0x00000000000000000000000000000000000000000000000000000000000000000000000000040000020000000000000000000002000000000000000000200000000000000000000000000020000800000000000000000000000000000000000000000000000000000000000000000000000100000000010000000000000000000000000000000000000000000000000000080000000000000000000000000000020000000000000000000000000002000000000000000000000000000000000000000000000000000000000000000000000000000000000000000000000000000010000000000000000000000000000000000000000000000000000000000000",
      "type": "0x2",
      "transactionHash": "0x0f0db02a522941d7a34e8341e412a5b4c783906e60fe20bc85d44f9b464d987a",
      "transactionIndex": "0x46",
      "blockHash": "0x48e3ea6ac0cb473cf109aee8d3f21e82e17d601a7fffb8543873f0554546270e",
      "blockNumber": "0x9d7fe7",
      "gasUsed": "0xb35b",
      "effectiveGasPrice": "0x1b7752",
      "from": "0xab4fe51ba4d5155b2e6842cad17148b798e4615e",
      "to": "0xa913a8019dd32691d7a9316a3d6cb75ba3904325",
      "contractAddress": null
    },
    {
      "status": "0x1",
      "cumulativeGasUsed": "0x8fef9a",
      "logs": [
        {
          "address": "0xe03a1074c86cfedd5c142c4f04f1a1536e203543",
          "topics": [
            "0x40e9cecb9f5f1f1c5b9c97dec2917b7ee92e57ba5563708daca94dd84ad7112f",
            "0x4046753456f05d267d00e774203c9f5abbce1bea38753f50976564d667e110a2",
            "0x00000000000000000000000049b7d896e9be5a31787399f7936cc976ae04634b"
          ],
          "data": "0x00000000000000000000000000000000000000000000014191839db285de7021fffffffffffffffffffffffffffffffffffffffffffffebb81c1fa8600608f25000000000000000000000000fffd8963efd1fc6a506488495d951d5263988d25000000000000000000000000000000000000000000000000000000000000000000000000000000000000000000000000000000000000000000000000000d89e70000000000000000000000000000000000000000000000000000000000000bb8",
          "blockHash": "0x48e3ea6ac0cb473cf109aee8d3f21e82e17d601a7fffb8543873f0554546270e",
          "blockNumber": "0x9d7fe7",
          "blockTimestamp": "0x699c96e4",
          "transactionHash": "0x33c9e017d3122b6c11beca2554ceec5a6a6e86d240ce8b5e589752b5638ac40c",
          "transactionIndex": "0x47",
          "logIndex": "0x81",
          "removed": false
        },
        {
          "address": "0xa913a8019dd32691d7a9316a3d6cb75ba3904325",
          "topics": [
            "0xddf252ad1be2c89b69c2b068fc378daa952ba7f163c4a11628f55a4df523b3ef",
            "0x000000000000000000000000ab4fe51ba4d5155b2e6842cad17148b798e4615e",
            "0x000000000000000000000000e03a1074c86cfedd5c142c4f04f1a1536e203543"
          ],
          "data": "0x0000000000000000000000000000000000000000000001447e3e0579ff9f70db",
          "blockHash": "0x48e3ea6ac0cb473cf109aee8d3f21e82e17d601a7fffb8543873f0554546270e",
          "blockNumber": "0x9d7fe7",
          "blockTimestamp": "0x699c96e4",
          "transactionHash": "0x33c9e017d3122b6c11beca2554ceec5a6a6e86d240ce8b5e589752b5638ac40c",
          "transactionIndex": "0x47",
          "logIndex": "0x82",
          "removed": false
        },
        {
          "address": "0x388d28a3d9afcbdaeb97a359fc67a0b53fc0146e",
          "topics": [
            "0xddf252ad1be2c89b69c2b068fc378daa952ba7f163c4a11628f55a4df523b3ef",
            "0x000000000000000000000000e03a1074c86cfedd5c142c4f04f1a1536e203543",
            "0x000000000000000000000000ab4fe51ba4d5155b2e6842cad17148b798e4615e"
          ],
          "data": "0x00000000000000000000000000000000000000000000014191839db285de7021",
          "blockHash": "0x48e3ea6ac0cb473cf109aee8d3f21e82e17d601a7fffb8543873f0554546270e",
          "blockNumber": "0x9d7fe7",
          "blockTimestamp": "0x699c96e4",
          "transactionHash": "0x33c9e017d3122b6c11beca2554ceec5a6a6e86d240ce8b5e589752b5638ac40c",
          "transactionIndex": "0x47",
          "logIndex": "0x83",
          "removed": false
        }
      ],
      "logsBloom": "0x00000000000000000000000000000000000000000800000000000000000000000002000000040000020000000000000000000102040000000000000000008000000000000000000000000028000800000000000000000020000000000000000000000000000000000000000080000000000100000000110000000010000000000000000000000000000010000000000000080010000000000000000000000000000000000000000000000000000002040000000000000000000000000000000000000002000000000000000080000000000000000000000000001000000000001000000000000000004000000000000000000000000000000000000000000000",
      "type": "0x2",
      "transactionHash": "0x33c9e017d3122b6c11beca2554ceec5a6a6e86d240ce8b5e589752b5638ac40c",
      "transactionIndex": "0x47",
      "blockHash": "0x48e3ea6ac0cb473cf109aee8d3f21e82e17d601a7fffb8543873f0554546270e",
      "blockNumber": "0x9d7fe7",
      "gasUsed": "0x7dfd5",
      "effectiveGasPrice": "0x1b7752",
      "from": "0xab4fe51ba4d5155b2e6842cad17148b798e4615e",
      "to": "0x49b7d896e9be5a31787399f7936cc976ae04634b",
      "contractAddress": null
    }
  ],
  "libraries": [],
  "pending": [],
  "returns": {},
  "timestamp": 1771869925096,
  "chain": 11155111,
  "commit": "63626b6"
}