{
  "transactions": [
    {
      "hash": "0xa795a3c94dce92b8a4320a1c5fcdaa418cb018a945f5f457f31684ee149b3684",
      "transactionType": "CREATE",
      "contractName": "PoolSwapTest",
      "contractAddress": "0x0600ca8c4d04409b8f0f20767903132f904750cd",
      "function": null,
      "arguments": [
        "0xE03A1074c86CFeDd5C142C4F04F1a1536e203543"
      ],
      "transaction": {
        "from": "0xab4fe51ba4d5155b2e6842cad17148b798e4615e",
        "gas": "0x1ed24d",
        "value": "0x0",
        "input": "0x60a034607a57601f611be238819003918201601f19168301916001600160401b03831184841017607e57808492602094604052833981010312607a57516001600160a01b0381168103607a57608052604051611b4f9081610093823960805181818160ab01528181610d29015281816110a6015261158c0152f35b5f80fd5b634e487b7160e01b5f52604160045260245ffdfe60806040526004361015610011575f80fd5b5f3560e01c80632229d0b414610d4d578063481c6a7514610cdf576391dd73461461003a575f80fd5b34610c0c5760207ffffffffffffffffffffffffffffffffffffffffffffffffffffffffffffffffc360112610c0c5760043567ffffffffffffffff8111610c0c5736602382011215610c0c57806004013567ffffffffffffffff8111610c0c578101906024820191368311610c0c577f00000000000000000000000000000000000000000000000000000000000000009273ffffffffffffffffffffffffffffffffffffffff841692833303610c0c57602081840312610c0c5760248101359067ffffffffffffffff8211610c0c57019061018082840312610c0c576040519161012383611236565b61012f602482016112f8565b835260407fffffffffffffffffffffffffffffffffffffffffffffffffffffffffffffffe08286030112610c0c576040519061016a8261129b565b61017660448201611319565b825261018460648201611319565b60208301526020840191825260a060247fffffffffffffffffffffffffffffffffffffffffffffffffffffffffffffff7c838803010112610c0c57604051946101cc86611236565b6101d8608483016112f8565b86526101e660a483016112f8565b602087015260c482013562ffffff81168103610c0c57604087015260e48201358060020b8103610c0c57606087015261010482013573ffffffffffffffffffffffffffffffffffffffff81168103610c0c577ffffffffffffffffffffffffffffffffffffffffffffffffffffffffffffffedc8360609360249360808b015260408901998a5203010112610c0c57604051926102818461127f565b61028e6101248301611319565b8452610144820135602085015261016482013573ffffffffffffffffffffffffffffffffffffffff81168103610c0c576040850152606085019384526101848201359167ffffffffffffffff8311610c0c576102ed9201602401611360565b946080840195865261033073ffffffffffffffffffffffffffffffffffffffff8651511673ffffffffffffffffffffffffffffffffffffffff8651163091611567565b91505061037273ffffffffffffffffffffffffffffffffffffffff60208851015116309073ffffffffffffffffffffffffffffffffffffffff88511690611567565b92915050610c8157610c2357610447956020916104135f885161045b885195516040519c8d97889687957ff3cd914c000000000000000000000000000000000000000000000000000000008752600487019073ffffffffffffffffffffffffffffffffffffffff6080809282815116855282602082015116602086015262ffffff6040820151166040860152606081015160020b6060860152015116910152565b8051151560a4860152602081015160c48601526040015173ffffffffffffffffffffffffffffffffffffffff1660e4850152565b6101206101048401526101248301906113a6565b03925af1948515610c18575f95610be0575b506104aa73ffffffffffffffffffffffffffffffffffffffff85515116309073ffffffffffffffffffffffffffffffffffffffff86511690611567565b979150506104ed73ffffffffffffffffffffffffffffffffffffffff60208751015116309073ffffffffffffffffffffffffffffffffffffffff87511690611567565b855180519196935091501561092357505f602082510151125f146107cb575160200151871261072157610527878760801d600f0b146113f8565b5f831261069d57610582965b5f811261065b575b5f8412610606575b5f81136105be575b505f8313610586575b86866040519060208201526020815261056e6040826112b7565b6040519182916020835260208301906113a6565b0390f35b73ffffffffffffffffffffffffffffffffffffffff8060206105b49751015116945116915151151593611989565b5f80808080610554565b6106009073ffffffffffffffffffffffffffffffffffffffff875151169073ffffffffffffffffffffffffffffffffffffffff87511684865151151593611989565b5f61054b565b61065673ffffffffffffffffffffffffffffffffffffffff6020885101511673ffffffffffffffffffffffffffffffffffffffff8751166106468761150e565b9085602088510151151593611651565b610543565b61069873ffffffffffffffffffffffffffffffffffffffff8751511673ffffffffffffffffffffffffffffffffffffffff8751166106468461150e565b61053b565b60846040517f08c379a000000000000000000000000000000000000000000000000000000000815260206004820152602d60248201527f64656c7461416674657231206973206e6f742067726561746572207468616e2060448201527f6f7220657175616c20746f2030000000000000000000000000000000000000006064820152fd5b60a46040517f08c379a000000000000000000000000000000000000000000000000000000000815260206004820152604760248201527f64656c7461416674657230206973206e6f742067726561746572207468616e2060448201527f6f7220657175616c20746f20646174612e706172616d732e616d6f756e74537060648201527f65636966696564000000000000000000000000000000000000000000000000006084820152fd5b5f881361089f576020906107e38589600f0b14611483565b51015183136107f55761058296610533565b60a46040517f08c379a000000000000000000000000000000000000000000000000000000000815260206004820152604460248201527f64656c7461416674657231206973206e6f74206c657373207468616e206f722060448201527f657175616c20746f20646174612e706172616d732e616d6f756e74537065636960648201527f66696564000000000000000000000000000000000000000000000000000000006084820152fd5b60846040517f08c379a000000000000000000000000000000000000000000000000000000000815260206004820152602d60248201527f64656c7461416674657230206973206e6f74206c657373207468616e206f722060448201527f657175616c20746f207a65726f000000000000000000000000000000000000006064820152fd5b602001515f1315610a8557516020015183126109db576109478387600f0b14611483565b5f87126109575761058296610533565b60846040517f08c379a000000000000000000000000000000000000000000000000000000000815260206004820152602d60248201527f64656c7461416674657230206973206e6f742067726561746572207468616e2060448201527f6f7220657175616c20746f2030000000000000000000000000000000000000006064820152fd5b60a46040517f08c379a000000000000000000000000000000000000000000000000000000000815260206004820152604760248201527f64656c7461416674657231206973206e6f742067726561746572207468616e2060448201527f6f7220657175616c20746f20646174612e706172616d732e616d6f756e74537060648201527f65636966696564000000000000000000000000000000000000000000000000006084820152fd5b5f8413610b5c57602090610aa0898960801d600f0b146113f8565b5101518713610ab25761058296610533565b60a46040517f08c379a000000000000000000000000000000000000000000000000000000000815260206004820152604460248201527f64656c7461416674657230206973206e6f74206c657373207468616e206f722060448201527f657175616c20746f20646174612e706172616d732e616d6f756e74537065636960648201527f66696564000000000000000000000000000000000000000000000000000000006084820152fd5b60846040517f08c379a000000000000000000000000000000000000000000000000000000000815260206004820152602a60248201527f64656c7461416674657231206973206e6f74206c657373207468616e206f722060448201527f657175616c20746f2030000000000000000000000000000000000000000000006064820152fd5b9094506020813d602011610c10575b81610bfc602093836112b7565b81010312610c0c5751935f61046d565b5f80fd5b3d9150610bef565b6040513d5f823e3d90fd5b60646040517f08c379a000000000000000000000000000000000000000000000000000000000815260206004820152601e60248201527f64656c74614265666f726531206973206e6f7420657175616c20746f203000006044820152fd5b60646040517f08c379a000000000000000000000000000000000000000000000000000000000815260206004820152601e60248201527f64656c74614265666f726530206973206e6f7420657175616c20746f203000006044820152fd5b34610c0c575f7ffffffffffffffffffffffffffffffffffffffffffffffffffffffffffffffffc360112610c0c57602060405173ffffffffffffffffffffffffffffffffffffffff7f0000000000000000000000000000000000000000000000000000000000000000168152f35b7ffffffffffffffffffffffffffffffffffffffffffffffffffffffffffffffffc36016101608112610c0c5760a013610c0c57604051610d8c81611236565b60043573ffffffffffffffffffffffffffffffffffffffff81168103610c0c57815260243573ffffffffffffffffffffffffffffffffffffffff81168103610c0c57602082015260443562ffffff81168103610c0c5760408201526064358060020b8103610c0c57606082015260843573ffffffffffffffffffffffffffffffffffffffff81168103610c0c57608082015260607fffffffffffffffffffffffffffffffffffffffffffffffffffffffffffffff5c360112610c0c57604051610e548161127f565b60a4358015158103610c0c57815260c435602082015260e43573ffffffffffffffffffffffffffffffffffffffff81168103610c0c57604082015260407ffffffffffffffffffffffffffffffffffffffffffffffffffffffffffffffefc360112610c0c5760405191610ec68361129b565b610104358015158103610c0c578352610124358015158103610c0c5760208401526101443567ffffffffffffffff8111610c0c5761108c9361102573ffffffffffffffffffffffffffffffffffffffff936110105f96610fd8610f30611051973690600401611360565b93602060405197610f4089611236565b3389528189019081526040890192835260608901948552608089019687526040519a8b9983808c0152511660408a0152518051151560608a01520151151560808801525160a087019073ffffffffffffffffffffffffffffffffffffffff6080809282815116855282602082015116602086015262ffffff6040820151166040860152606081015160020b6060860152015116910152565b518051151561014086015260208101516101608601526040015173ffffffffffffffffffffffffffffffffffffffff16610180850152565b516101806101a08401526101c08301906113a6565b037fffffffffffffffffffffffffffffffffffffffffffffffffffffffffffffffe081018352826112b7565b604051809381927f48c894910000000000000000000000000000000000000000000000000000000083526020600484015260248301906113a6565b03818373ffffffffffffffffffffffffffffffffffffffff7f0000000000000000000000000000000000000000000000000000000000000000165af1908115610c18575f916111bc575b5060208151918180820193849201010312610c0c575147806110fe575b602082604051908152f35b5f80808093335af11561111157816110f3565b7fffffffffffffffffffffffffffffffffffffffffffffffffffffffffffffffe0601f3d0116604051907f90bfb8650000000000000000000000000000000000000000000000000000000082523360048301525f6024830152608060448301528060a00160648301523d60848301523d5f60a484013e7ff4b3b1bc0000000000000000000000000000000000000000000000000000000060c4828401600460a4820152015260e40190fd5b90503d805f833e6111cd81836112b7565b810190602081830312610c0c5780519067ffffffffffffffff8211610c0c570181601f82011215610c0c5780519061120482611326565b9261121260405194856112b7565b82845260208383010111610c0c57815f9260208093018386015e83010152816110d6565b60a0810190811067ffffffffffffffff82111761125257604052565b7f4e487b71000000000000000000000000000000000000000000000000000000005f52604160045260245ffd5b6060810190811067ffffffffffffffff82111761125257604052565b6040810190811067ffffffffffffffff82111761125257604052565b90601f7fffffffffffffffffffffffffffffffffffffffffffffffffffffffffffffffe0910116810190811067ffffffffffffffff82111761125257604052565b359073ffffffffffffffffffffffffffffffffffffffff82168203610c0c57565b35908115158203610c0c57565b67ffffffffffffffff811161125257601f017fffffffffffffffffffffffffffffffffffffffffffffffffffffffffffffffe01660200190565b81601f82011215610c0c5780359061137782611326565b9261138560405194856112b7565b82845260208383010111610c0c57815f926020809301838601378301015290565b907fffffffffffffffffffffffffffffffffffffffffffffffffffffffffffffffe0601f602080948051918291828752018686015e5f8582860101520116010190565b90816020910312610c0c575190565b156113ff57565b60846040517f08c379a000000000000000000000000000000000000000000000000000000000815260206004820152602b60248201527f64656c74612e616d6f756e74302829206973206e6f7420657175616c20746f2060448201527f64656c74614166746572300000000000000000000000000000000000000000006064820152fd5b1561148a57565b60846040517f08c379a000000000000000000000000000000000000000000000000000000000815260206004820152602b60248201527f64656c74612e616d6f756e74312829206973206e6f7420657175616c20746f2060448201527f64656c74614166746572310000000000000000000000000000000000000000006064820152fd5b7f8000000000000000000000000000000000000000000000000000000000000000811461153a575f0390565b7f4e487b71000000000000000000000000000000000000000000000000000000005f52601160045260245ffd5b92906115739084611a9a565b9273ffffffffffffffffffffffffffffffffffffffff807f00000000000000000000000000000000000000000000000000000000000000001691816115b88483611a9a565b95165f5216602052602060405f206024604051809481937ff135baaa00000000000000000000000000000000000000000000000000000000835260048301525afa908115610c18575f9161160a575090565b90506020813d602011611631575b81611625602093836112b7565b81010312610c0c575190565b3d9150611618565b90816020910312610c0c57518015158103610c0c5790565b9293156116f35773ffffffffffffffffffffffffffffffffffffffff16803b15610c0c576040517ff5298aca00000000000000000000000000000000000000000000000000000000815273ffffffffffffffffffffffffffffffffffffffff92831660048201529290911660248301526044820192909252905f908290818381606481015b03925af18015610c18576116e75750565b5f6116f1916112b7565b565b9173ffffffffffffffffffffffffffffffffffffffff168061179157505073ffffffffffffffffffffffffffffffffffffffff600460209260405194859384927f11da60b4000000000000000000000000000000000000000000000000000000008452165af18015610c18576117665750565b6117879060203d60201161178a575b61177f81836112b7565b8101906113e9565b50565b503d611775565b90929173ffffffffffffffffffffffffffffffffffffffff1691823b15610c0c57604051937fa58411940000000000000000000000000000000000000000000000000000000085525f948360048201525f8160248183895af18015610c1857611960575b5073ffffffffffffffffffffffffffffffffffffffff16843082146118ec576020929160649160405195869485937f23b872dd000000000000000000000000000000000000000000000000000000008552600485015288602485015260448401525af180156118e1579160209184936118b4575b505b6004604051809581937f11da60b40000000000000000000000000000000000000000000000000000000083525af19081156118a857506117665750565b604051903d90823e3d90fd5b6118d390833d85116118da575b6118cb81836112b7565b810190611639565b505f611869565b503d6118c1565b6040513d85823e3d90fd5b929050604460209260405194859384927fa9059cbb00000000000000000000000000000000000000000000000000000000845288600485015260248401525af180156118e157916020918493611943575b5061186b565b61195990833d85116118da576118cb81836112b7565b505f61193d565b61196d9195505f906112b7565b5f9373ffffffffffffffffffffffffffffffffffffffff6117f5565b929315611a125773ffffffffffffffffffffffffffffffffffffffff16803b15610c0c576040517f156e29f600000000000000000000000000000000000000000000000000000000815273ffffffffffffffffffffffffffffffffffffffff92831660048201529290911660248301526044820192909252905f908290818381606481016116d6565b90929073ffffffffffffffffffffffffffffffffffffffff16803b15610c0c575f928360649273ffffffffffffffffffffffffffffffffffffffff948560405198899788967f0b0d9c0900000000000000000000000000000000000000000000000000000000885216600487015216602485015260448401525af18015610c18576116e75750565b73ffffffffffffffffffffffffffffffffffffffff1680611aba57503190565b9073ffffffffffffffffffffffffffffffffffffffff602460209260405194859384927f70a082310000000000000000000000000000000000000000000000000000000084521660048301525afa908115610c18575f9161160a57509056fea2646970667358221220b83ddb11931f92e09705af17ab4324c33af587e937aac600560b5bfaddbd3aae64736f6c634300081a0033000000000000000000000000e03a1074c86cfedd5c142c4f04f1a1536e203543",
        "nonce": "0xaf",
        "chainId": "0xaa36a7"
      },
      "additionalContracts": [],
      "isFixedGasLimit": false
    },
    {
      "hash": "0xeb86723bccd2a5cfbd2c86f95248f5246132d157c665b7c5389dafaf3df221e2",
      "transactionType": "CALL",
      "contractName": "MockERC20",
      "contractAddress": "0xcd11cc946b446088a987d3163e662c335c20d410",
      "function": "mint(address,uint256)",
      "arguments": [
        "0xab4FE51Ba4D5155b2e6842CAD17148b798e4615e",
        "1000000000000000000"
      ],
      "transaction": {
        "from": "0xab4fe51ba4d5155b2e6842cad17148b798e4615e",
        "to": "0xcd11cc946b446088a987d3163e662c335c20d410",
        "gas": "0xb6bb",
        "value": "0x0",
        "input": "0x40c10f19000000000000000000000000ab4fe51ba4d5155b2e6842cad17148b798e4615e0000000000000000000000000000000000000000000000000de0b6b3a7640000",
        "nonce": "0xb0",
        "chainId": "0xaa36a7"
      },
      "additionalContracts": [],
      "isFixedGasLimit": false
    },
    {
      "hash": "0x80a867f9b84c3d65fac8222c3949771187e174b5a2c6b97520c8d938ec7f08cf",
      "transactionType": "CALL",
      "contractName": "MockERC20",
      "contractAddress": "0xcd11cc946b446088a987d3163e662c335c20d410",
      "function": "approve(address,uint256)",
      "arguments": [
        "0x0600CA8c4d04409B8F0f20767903132f904750CD",
        "1000000000000000000"
      ],
      "transaction": {
        "from": "0xab4fe51ba4d5155b2e6842cad17148b798e4615e",
        "to": "0xcd11cc946b446088a987d3163e662c335c20d410",
        "gas": "0xf789",
        "value": "0x0",
        "input": "0x095ea7b30000000000000000000000000600ca8c4d04409b8f0f20767903132f904750cd0000000000000000000000000000000000000000000000000de0b6b3a7640000",
        "nonce": "0xb1",
        "chainId": "0xaa36a7"
      },
      "additionalContracts": [],
      "isFixedGasLimit": false
    },
    {
      "hash": "0x2721fdbcf224763f0fe272c6fc6f9e5f0c9102c3aeed8899f55c3102241fc587",
      "transactionType": "CALL",
      "contractName": "PoolSwapTest",
      "contractAddress": "0x0600ca8c4d04409b8f0f20767903132f904750cd",
      "function": "swap((address,address,uint24,int24,address),(bool,int256,uint160),(bool,bool),bytes)",
      "arguments": [
        "(0x93345833027Ab2Ab863b812fA7cA9D5cfee883BC, 0xcD11CC946B446088A987d3163E662C335C20d410, 3000, 60, 0x43BF7DA3d2e26D295a8965109505767e93B24040)",
        "(false, -1000000000000000000, 1461446703485210103287273052203988822378723970341)",
        "(false, false)",
        "0x"
      ],
      "transaction": {
        "from": "0xab4fe51ba4d5155b2e6842cad17148b798e4615e",
        "to": "0x0600ca8c4d04409b8f0f20767903132f904750cd",
        "gas": "0x350cc",
        "value": "0x0",
        "input": "0x2229d0b400000000000000000000000093345833027ab2ab863b812fa7ca9d5cfee883bc000000000000000000000000cd11cc946b446088a987d3163e662c335c20d4100000000000000000000000000000000000000000000000000000000000000bb8000000000000000000000000000000000000000000000000000000000000003c00000000000000000000000043bf7da3d2e26d295a8965109505767e93b240400000000000000000000000000000000000000000000000000000000000000000fffffffffffffffffffffffffffffffffffffffffffffffff21f494c589c0000000000000000000000000000fffd8963efd1fc6a506488495d951d5263988d250000000000000000000000000000000000000000000000000000000000000000000000000000000000000000000000000000000000000000000000000000000000000000000000000000000000000000000000000000000000000000000001600000000000000000000000000000000000000000000000000000000000000000",
        "nonce": "0xb2",
        "chainId": "0xaa36a7"
      },
      "additionalContracts": [],
      "isFixedGasLimit": false
    }
  ],
  "receipts": [
    {
      "status": "0x1",
      "cumulativeGasUsed": "0x157eb65",
      "logs": [],
      "logsBloom": "0x00000000000000000000000000000000000000000000000000000000000000000000000000000000000000000000000000000000000000000000000000000000000000000000000000000000000000000000000000000000000000000000000000000000000000000000000000000000000000000000000000000000000000000000000000000000000000000000000000000000000000000000000000000000000000000000000000000000000000000000000000000000000000000000000000000000000000000000000000000000000000000000000000000000000000000000000000000000000000000000000000000000000000000000000000000000",
      "type": "0x2",
      "transactionHash": "0xa795a3c94dce92b8a4320a1c5fcdaa418cb018a945f5f457f31684ee149b3684",
      "transactionIndex": "0x78",
      "blockHash": "0x057add8460deb1f0982d1f19b6634fe75a0f6d081b9dcf4b0bd6ecaeb155f3a5",
      "blockNumber": "0x9f07f1",
      "gasUsed": "0x17b577",
      "effectiveGasPrice": "0xf9d65",
      "from": "0xab4fe51ba4d5155b2e6842cad17148b798e4615e",
      "to": null,
      "contractAddress": "0x0600ca8c4d04409b8f0f20767903132f904750cd"
    },
    {
      "status": "0x1",
      "cumulativeGasUsed": "0x1403637",
      "logs": [
        {
          "address": "0xcd11cc946b446088a987d3163e662c335c20d410",
          "topics": [
            "0xddf252ad1be2c89b69c2b068fc378daa952ba7f163c4a11628f55a4df523b3ef",
            "0x0000000000000000000000000000000000000000000000000000000000000000",
            "0x000000000000000000000000ab4fe51ba4d5155b2e6842cad17148b798e4615e"
          ],
          "data": "0x0000000000000000000000000000000000000000000000000de0b6b3a7640000",
          "blockHash": "0x5108af88a7b1d5a076d5d09690e281ee83c8e0710cc0f74d7e8d38e31b4a7b03",
          "blockNumber": "0x9f07f2",
          "blockTimestamp": "0x69b06298",
          "transactionHash": "0xeb86723bccd2a5cfbd2c86f95248f5246132d157c665b7c5389dafaf3df221e2",
          "transactionIndex": "0xa7",
          "logIndex": "0x17d",
          "removed": false
        }
      ],
      "logsBloom": "0x00000000000000000000000000000000000000000000000000000000000000000000000000040000000000010000000000000000000000000000000001000000000000000000000000000008000000000000000000000000000000000000000000000000020000000000000000000800000100000000010000000010000000000000000000000000000000000000000000000000000000000000000000000000000000000000000000000000000000000000040000000000000000000000000000000002000000000000000000000000000000000000000000000000000020000000000000000000000000000000000000000000000000000000000000000000",
      "type": "0x2",
      "transactionHash": "0xeb86723bccd2a5cfbd2c86f95248f5246132d157c665b7c5389dafaf3df221e2",
      "transactionIndex": "0xa7",
      "blockHash": "0x5108af88a7b1d5a076d5d09690e281ee83c8e0710cc0f74d7e8d38e31b4a7b03",
      "blockNumber": "0x9f07f2",
      "gasUsed": "0x844c",
      "effectiveGasPrice": "0xf9d66",
      "from": "0xab4fe51ba4d5155b2e6842cad17148b798e4615e",
      "to": "0xcd11cc946b446088a987d3163e662c335c20d410",
      "contractAddress": null
    },
    {
      "status": "0x1",
      "cumulativeGasUsed": "0x122d9ed",
      "logs": [
        {
          "address": "0xcd11cc946b446088a987d3163e662c335c20d410",
          "topics": [
            "0x8c5be1e5ebec7d5bd14f71427d1e84f3dd0314c0f7b2291e5b200ac8c7c3b925",
            "0x000000000000000000000000ab4fe51ba4d5155b2e6842cad17148b798e4615e",
            "0x0000000000000000000000000600ca8c4d04409b8f0f20767903132f904750cd"
          ],
          "data": "0x0000000000000000000000000000000000000000000000000de0b6b3a7640000",
          "blockHash": "0x04b3a5805d9012eb27e0938f8568662946478a3d7b08c32d727d492cec753160",
          "blockNumber": "0x9f07f3",
          "blockTimestamp": "0x69b062b0",
          "transactionHash": "0x80a867f9b84c3d65fac8222c3949771187e174b5a2c6b97520c8d938ec7f08cf",
          "transactionIndex": "0x91",
          "logIndex": "0xf9",
          "removed": false
        }
      ],
      "logsBloom": "0x00000000000000000000000000000000000000000000000000000000000000000000000000040000000000010000000000000000000000000000000001200000000000000000000000000000000000000000000000000000000000000000000000000000000000000008000000200000000100000000010000000000000000000000000000000000000000000000000000000000000000000000000000000000020000000000000000000000000000000000040000000000000000000000000000000000000000000000000000000000000000000000000000000000000000000010000000000000000000000000000000000000000000010000000000000000",
      "type": "0x2",
      "transactionHash": "0x80a867f9b84c3d65fac8222c3949771187e174b5a2c6b97520c8d938ec7f08cf",
      "transactionIndex": "0x91",
      "blockHash": "0x04b3a5805d9012eb27e0938f8568662946478a3d7b08c32d727d492cec753160",
      "blockNumber": "0x9f07f3",
      "gasUsed": "0xb337",
      "effectiveGasPrice": "0xf9d67",
      "from": "0xab4fe51ba4d5155b2e6842cad17148b798e4615e",
      "to": "0xcd11cc946b446088a987d3163e662c335c20d410",
      "contractAddress": null
    },
    {
      "status": "0x1",
      "cumulativeGasUsed": "0x6fcd92",
      "logs": [
        {
          "address": "0xe03a1074c86cfedd5c142c4f04f1a1536e203543",
          "topics": [
            "0x40e9cecb9f5f1f1c5b9c97dec2917b7ee92e57ba5563708daca94dd84ad7112f",
            "0x062d2ec5bb31e47bcf47ac7b3dba395f87587f09b84b1169bd8be6c47314f2e0",
            "0x0000000000000000000000000600ca8c4d04409b8f0f20767903132f904750cd"
          ],
          "data": "0x0000000000000000000000000000000000000000000000000dd60e20944f4916fffffffffffffffffffffffffffffffffffffffffffffffff21f494c589c00000000000000000000000000000000000000000001000001ac354f2d94d7a0b7dc000000000000000000000000000000000000000000084595161401484a00000000000000000000000000000000000000000000000000000000000000000000000000000000000000000000000000000000000000000000000000000000000bb8",
          "blockHash": "0x9b332725cc30a4ed7592b9d827cfd280288872e16101f02a472a76df9e888f12",
          "blockNumber": "0x9f07f4",
          "blockTimestamp": "0x69b062bc",
          "transactionHash": "0x2721fdbcf224763f0fe272c6fc6f9e5f0c9102c3aeed8899f55c3102241fc587",
          "transactionIndex": "0x55",
          "logIndex": "0xa6",
          "removed": false
        },
        {
          "address": "0xcd11cc946b446088a987d3163e662c335c20d410",
          "topics": [
            "0xddf252ad1be2c89b69c2b068fc378daa952ba7f163c4a11628f55a4df523b3ef",
            "0x000000000000000000000000ab4fe51ba4d5155b2e6842cad17148b798e4615e",
            "0x000000000000000000000000e03a1074c86cfedd5c142c4f04f1a1536e203543"
          ],
          "data": "0x0000000000000000000000000000000000000000000000000de0b6b3a7640000",
          "blockHash": "0x9b332725cc30a4ed7592b9d827cfd280288872e16101f02a472a76df9e888f12",
          "blockNumber": "0x9f07f4",
          "blockTimestamp": "0x69b062bc",
          "transactionHash": "0x2721fdbcf224763f0fe272c6fc6f9e5f0c9102c3aeed8899f55c3102241fc587",
          "transactionIndex": "0x55",
          "logIndex": "0xa7",
          "removed": false
        },
        {
          "address": "0x93345833027ab2ab863b812fa7ca9d5cfee883bc",
          "topics": [
            "0xddf252ad1be2c89b69c2b068fc378daa952ba7f163c4a11628f55a4df523b3ef",
            "0x000000000000000000000000e03a1074c86cfedd5c142c4f04f1a1536e203543",
            "0x000000000000000000000000ab4fe51ba4d5155b2e6842cad17148b798e4615e"
          ],
          "data": "0x0000000000000000000000000000000000000000000000000dd60e20944f4916",
          "blockHash": "0x9b332725cc30a4ed7592b9d827cfd280288872e16101f02a472a76df9e888f12",
          "blockNumber": "0x9f07f4",
          "blockTimestamp": "0x69b062bc",
          "transactionHash": "0x2721fdbcf224763f0fe272c6fc6f9e5f0c9102c3aeed8899f55c3102241fc587",
          "transactionIndex": "0x55",
          "logIndex": "0xa8",
          "removed": false
        }
      ],
      "logsBloom": "0x00000000000000000000000000000000000000000000000000000000000000000000000000040000000000010000000000000100040000000000000001000000000000000000000000000008000000000000000000000024000000000000000000000000000000000008000080200000000100000000110000000010000000000000000000000000000010000000000000000000000400000000008000000000000000001000000000000000000000000000040000000000000000000000000000000002000000000000000000000000000000000000000000001000000000001000000000000000004000000000000600000000000000010000000000000000",
      "type": "0x2",
      "transactionHash": "0x2721fdbcf224763f0fe272c6fc6f9e5f0c9102c3aeed8899f55c3102241fc587",
      "transactionIndex": "0x55",
      "blockHash": "0x9b332725cc30a4ed7592b9d827cfd280288872e16101f02a472a76df9e888f12",
      "blockNumber": "0x9f07f4",
      "gasUsed": "0x22fed",
      "effectiveGasPrice": "0xf9d67",
      "from": "0xab4fe51ba4d5155b2e6842cad17148b798e4615e",
      "to": "0x0600ca8c4d04409b8f0f20767903132f904750cd",
      "contractAddress": null
    }
  ],
  "libraries": [],
  "pending": [],
  "returns": {},
  "timestamp": 1773167292919,
  "chain": 11155111,
  "commit": "e95e311"
}