{
  "transactions": [
    {
      "hash": "0xc807bd588c82fe05e4c13cc412f3b0e0daaa6a091887b34b14fa1aa9442db362",
      "transactionType": "CALL",
      "contractName": "MockERC20",
      "contractAddress": "0x2b46cdef2f859d12ebdf29d91b9a6ba48856d54c",
      "function": "mint(address,uint256)",
      "arguments": [
        "0xab4FE51Ba4D5155b2e6842CAD17148b798e4615e",
        "10000000000000000000"
      ],
      "transaction": {
        "from": "0xab4fe51ba4d5155b2e6842cad17148b798e4615e",
        "to": "0x2b46cdef2f859d12ebdf29d91b9a6ba48856d54c",
        "gas": "0xb6bb",
        "value": "0x0",
        "input": "0x40c10f19000000000000000000000000ab4fe51ba4d5155b2e6842cad17148b798e4615e0000000000000000000000000000000000000000000000008ac7230489e80000",
        "nonce": "0x50",
        "chainId": "0xaa36a7"
      },
      "additionalContracts": [],
      "isFixedGasLimit": false
    },
    {
      "hash": "0xa4d355f9e61ac1f2082caec53d8fbbf27c0792f8cdf4f094c430957bd6748ee2",
      "transactionType": "CALL",
      "contractName": "MockERC20",
      "contractAddress": "0x2b46cdef2f859d12ebdf29d91b9a6ba48856d54c",
      "function": "approve(address,uint256)",
      "arguments": [
        "0xeA2dc3ad9Efc8048824E78C59F6D2B34D88c0088",
        "10000000000000000000"
      ],
      "transaction": {
        "from": "0xab4fe51ba4d5155b2e6842cad17148b798e4615e",
        "to": "0x2b46cdef2f859d12ebdf29d91b9a6ba48856d54c",
        "gas": "0xf789",
        "value": "0x0",
        "input": "0x095ea7b3000000000000000000000000ea2dc3ad9efc8048824e78c59f6d2b34d88c00880000000000000000000000000000000000000000000000008ac7230489e80000",
        "nonce": "0x51",
        "chainId": "0xaa36a7"
      },
      "additionalContracts": [],
      "isFixedGasLimit": false
    },
    {
      "hash": "0x9c17858974dd662b6f96de2a2d4d8abc71b525bff58b5eb66b5a8df7f143a661",
      "transactionType": "CALL",
      "contractName": null,
      "contractAddress": "0xea2dc3ad9efc8048824e78c59f6d2b34d88c0088",
      "function": "createLimitOrder((address,address,uint24,int24,address),bool,uint96,uint128)",
      "arguments": [
        "(0x2b46cDef2f859d12eBdF29d91B9a6BA48856D54C, 0x4515DD1d4dDbA60e23aa39B45Be32A3B6f316064, 3000, 60, 0xeA2dc3ad9Efc8048824E78C59F6D2B34D88c0088)",
        "true",
        "10000000000000000000",
        "1010000000000000000"
      ],
      "transaction": {
        "from": "0xab4fe51ba4d5155b2e6842cad17148b798e4615e",
        "to": "0xea2dc3ad9efc8048824e78c59f6d2b34d88c0088",
        "gas": "0x546e4",
        "value": "0x0",
        "input": "0x58a86a010000000000000000000000002b46cdef2f859d12ebdf29d91b9a6ba48856d54c0000000000000000000000004515dd1d4ddba60e23aa39b45be32a3b6f3160640000000000000000000000000000000000000000000000000000000000000bb8000000000000000000000000000000000000000000000000000000000000003c000000000000000000000000ea2dc3ad9efc8048824e78c59f6d2b34d88c008800000000000000000000000000000000000000000000000000000000000000010000000000000000000000000000000000000000000000008ac7230489e800000000000000000000000000000000000000000000000000000e043da617250000",
        "nonce": "0x52",
        "chainId": "0xaa36a7"
      },
      "additionalContracts": [],
      "isFixedGasLimit": false
    }
  ],
  "receipts": [
    {
      "status": "0x1",
      "cumulativeGasUsed": "0x14edf50",
      "logs": [
        {
          "address": "0x2b46cdef2f859d12ebdf29d91b9a6ba48856d54c",
          "topics": [
            "0xddf252ad1be2c89b69c2b068fc378daa952ba7f163c4a11628f55a4df523b3ef",
            "0x0000000000000000000000000000000000000000000000000000000000000000",
            "0x000000000000000000000000ab4fe51ba4d5155b2e6842cad17148b798e4615e"
          ],
          "data": "0x0000000000000000000000000000000000000000000000008ac7230489e80000",
          "blockHash": "0xc9b1995c0a30eb0a709e7e0132565e72d7d5465000daf29e550e76a5a63d7a10",
          "blockNumber": "0x9e06a4",
          "blockTimestamp": "0x69a33800",
          "transactionHash": "0xc807bd588c82fe05e4c13cc412f3b0e0daaa6a091887b34b14fa1aa9442db362",
          "transactionIndex": "0x8c",
          "logIndex": "0x1d9",
          "removed": false
        }
      ],
      "logsBloom": "0x00000000000000000000000000000000000000000000000000000000000000000000000000040000000002000000000000000000000000000000000000000000000000000000000000000008000000000000000000000000000000000000000000000000020000000000000000000800000100000000010000000010000000000000000000000000000000000000000000000000000000000000000000000000000000000000000800000000000000000000000000000000000000000000000000000002000000000000000000000000000000000000000000000000000020000000000000000000000000000000000000000000000000000000000000000400",
      "type": "0x2",
      "transactionHash": "0xc807bd588c82fe05e4c13cc412f3b0e0daaa6a091887b34b14fa1aa9442db362",
      "transactionIndex": "0x8c",
      "blockHash": "0xc9b1995c0a30eb0a709e7e0132565e72d7d5465000daf29e550e76a5a63d7a10",
      "blockNumber": "0x9e06a4",
      "gasUsed": "0x844c",
      "effectiveGasPrice": "0x1038c4",
      "from": "0xab4fe51ba4d5155b2e6842cad17148b798e4615e",
      "to": "0x2b46cdef2f859d12ebdf29d91b9a6ba48856d54c",
      "contractAddress": null
    },
    {
      "status": "0x1",
      "cumulativeGasUsed": "0x14ba84b",
      "logs": [
        {
          "address": "0x2b46cdef2f859d12ebdf29d91b9a6ba48856d54c",
          "topics": [
            "0x8c5be1e5ebec7d5bd14f71427d1e84f3dd0314c0f7b2291e5b200ac8c7c3b925",
            "0x000000000000000000000000ab4fe51ba4d5155b2e6842cad17148b798e4615e",
            "0x000000000000000000000000ea2dc3ad9efc8048824e78c59f6d2b34d88c0088"
          ],
          "data": "0x0000000000000000000000000000000000000000000000008ac7230489e80000",
          "blockHash": "0xdcd07b60d10f6814aa790dad50d64183f56f1f8900d432922206f3fee6e4cda7",
          "blockNumber": "0x9e06a5",
          "blockTimestamp": "0x69a3380c",
          "transactionHash": "0xa4d355f9e61ac1f2082caec53d8fbbf27c0792f8cdf4f094c430957bd6748ee2",
          "transactionIndex": "0x6b",
          "logIndex": "0x144",
          "removed": false
        }
      ],
      "logsBloom": "0x00000000000000000000000000000000000000000000000000000000000000000000000000040000000002000000000000000000000000000000000000200000000000000000000000000000000000000000000000000000000000000000000000000000000000000000000000000000000100000000010000000000000000000000000000000000000000000000000000000000000004000000000000000000020000000000000800000000000000000000000000000000000000000000000400000000000000000000000000000000000000000000000000000000000000000010000000000000000000000000001000000000000000000000000000000400",
      "type": "0x2",
      "transactionHash": "0xa4d355f9e61ac1f2082caec53d8fbbf27c0792f8cdf4f094c430957bd6748ee2",
      "transactionIndex": "0x6b",
      "blockHash": "0xdcd07b60d10f6814aa790dad50d64183f56f1f8900d432922206f3fee6e4cda7",
      "blockNumber": "0x9e06a5",
      "gasUsed": "0xb337",
      "effectiveGasPrice": "0x1038c3",
      "from": "0xab4fe51ba4d5155b2e6842cad17148b798e4615e",
      "to": "0x2b46cdef2f859d12ebdf29d91b9a6ba48856d54c",
      "contractAddress": null
    },
    {
      "status": "0x1",
      "cumulativeGasUsed": "0xbbe263",
      "logs": [
        {
          "address": "0x2b46cdef2f859d12ebdf29d91b9a6ba48856d54c",
          "topics": [
            "0xddf252ad1be2c89b69c2b068fc378daa952ba7f163c4a11628f55a4df523b3ef",
            "0x000000000000000000000000ab4fe51ba4d5155b2e6842cad17148b798e4615e",
            "0x000000000000000000000000ea2dc3ad9efc8048824e78c59f6d2b34d88c0088"
          ],
          "data": "0x0000000000000000000000000000000000000000000000008ac7230489e80000",
          "blockHash": "0xb33a4dc01912afcd4922d8ddff45e0dd252f7e41bb7ec3cd3b36d97f89e7d50c",
          "blockNumber": "0x9e06a6",
          "blockTimestamp": "0x69a33818",
          "transactionHash": "0x9c17858974dd662b6f96de2a2d4d8abc71b525bff58b5eb66b5a8df7f143a661",
          "transactionIndex": "0x63",
          "logIndex": "0xdf",
          "removed": false
        },
        {
          "address": "0xea2dc3ad9efc8048824e78c59f6d2b34d88c0088",
          "topics": [
            "0x26319004cc83552ac9e9198e5d281d5a2787f53318a6263c8d2066afd9658af1",
            "0x0000000000000000000000000000000000000000000000000000000000000001",
            "0x000000000000000000000000ab4fe51ba4d5155b2e6842cad17148b798e4615e"
          ],
          "data": "0x00000000000000000000000000000000000000000000000000000000000000010000000000000000000000000000000000000000000000008ac7230489e800000000000000000000000000000000000000000000000000000e043da617250000",
          "blockHash": "0xb33a4dc01912afcd4922d8ddff45e0dd252f7e41bb7ec3cd3b36d97f89e7d50c",
          "blockNumber": "0x9e06a6",
          "blockTimestamp": "0x69a33818",
          "transactionHash": "0x9c17858974dd662b6f96de2a2d4d8abc71b525bff58b5eb66b5a8df7f143a661",
          "transactionIndex": "0x63",
          "logIndex": "0xe0",
          "removed": false
        }
      ],
      "logsBloom": "0x00000000000000000000000000000000000000000000000000000000000000000000000004040000000002000000000000000000000000000000000000040000000000000000000000000008000000000000000000040000000000000000000000000000000000000000000000000000000100000000010000000010000000010000000000000000000000000000000000000000000004000000000000000000000000000000000800000000000000000000000000000000000000000000800400000002000000000000000002000000000000000000000000000000000040004000000040000000000000000000001000000000000000000000000000000400",
      "type": "0x2",
      "transactionHash": "0x9c17858974dd662b6f96de2a2d4d8abc71b525bff58b5eb66b5a8df7f143a661",
      "transactionIndex": "0x63",
      "blockHash": "0xb33a4dc01912afcd4922d8ddff45e0dd252f7e41bb7ec3cd3b36d97f89e7d50c",
      "blockNumber": "0x9e06a6",
      "gasUsed": "0x3d206",
      "effectiveGasPrice": "0x1038c2",
      "from": "0xab4fe51ba4d5155b2e6842cad17148b798e4615e",
      "to": "0xea2dc3ad9efc8048824e78c59f6d2b34d88c0088",
      "contractAddress": null
    }
  ],
  "libraries": [],
  "pending": [],
  "returns": {},
  "timestamp": 1772304409569,
  "chain": 11155111,
  "commit": "c9dded0"
}