{
  "transactions": [
    {
      "hash": "0xad6292b912c60223aee4b021e6825e406baefa6b6b4178d667e944226169d252",
      "transactionType": "CALL",
      "contractName": null,
      "contractAddress": "0xf1825a46608cada9afc3290397ba7c77797e4040",
      "function": "cancelOrder(uint256)",
      "arguments": [
        "0"
      ],
      "transaction": {
        "from": "0xab4fe51ba4d5155b2e6842cad17148b798e4615e",
        "to": "0xf1825a46608cada9afc3290397ba7c77797e4040",
        "gas": "0x1182b",
        "value": "0x0",
        "input": "0x514fcac70000000000000000000000000000000000000000000000000000000000000000",
        "nonce": "0x74",
        "chainId": "0xaa36a7"
      },
      "additionalContracts": [],
      "isFixedGasLimit": false
    }
  ],
  "receipts": [
    {
      "status": "0x1",
      "cumulativeGasUsed": "0xc1c764",
      "logs": [
        {
          "address": "0x2b46cdef2f859d12ebdf29d91b9a6ba48856d54c",
          "topics": [
            "0xddf252ad1be2c89b69c2b068fc378daa952ba7f163c4a11628f55a4df523b3ef",
            "0x000000000000000000000000f1825a46608cada9afc3290397ba7c77797e4040",
            "0x000000000000000000000000ab4fe51ba4d5155b2e6842cad17148b798e4615e"
          ],
          "data": "0x0000000000000000000000000000000000000000000000008ac7230489e80000",
          "blockHash": "0xf2e8d2695501c190d40d8b09173d68741277a6fd8e993a569bafd161190181e1",
          "blockNumber": "0x9ea10f",
          "blockTimestamp": "0x69aab830",
          "transactionHash": "0xad6292b912c60223aee4b021e6825e406baefa6b6b4178d667e944226169d252",
          "transactionIndex": "0x7d",
          "logIndex": "0xd0",
          "removed": false
        },
        {
          "address": "0xf1825a46608cada9afc3290397ba7c77797e4040",
          "topics": [
            "0xc0362da6f2ff36b382b34aec0814f6b3cdf89f5ef282a1d1f114d0c0b036d596",
            "0x0000000000000000000000000000000000000000000000000000000000000000",
            "0x000000000000000000000000ab4fe51ba4d5155b2e6842cad17148b798e4615e"
          ],
          "data": "0x",
          "blockHash": "0xf2e8d2695501c190d40d8b09173d68741277a6fd8e993a569bafd161190181e1",
          "blockNumber": "0x9ea10f",
          "blockTimestamp": "0x69aab830",
          "transactionHash": "0xad6292b912c60223aee4b021e6825e406baefa6b6b4178d667e944226169d252",
          "transactionIndex": "0x7d",
          "logIndex": "0xd1",
          "removed": false
        }
      ],
      "logsBloom": "0x00000000000000000000000000000000000000000000200000000000000000000000000000040000000002000000000000000000000000000000000000000000020000000000000000000008000000000000000000000000000000000000000000000000020000000000002000000800000100000000010000100010001000000000000000000000000000000000000000000000000000000000000000000000000000000000000800000000000000000000800000000000000000000000000000000002000000000000000000000000000000400000000000000000000028000000000000000000000000000004000000000000000000000000000000000400",
      "type": "0x2",
      "transactionHash": "0xad6292b912c60223aee4b021e6825e406baefa6b6b4178d667e944226169d252",
      "transactionIndex": "0x7d",
      "blockHash": "0xf2e8d2695501c190d40d8b09173d68741277a6fd8e993a569bafd161190181e1",
      "blockNumber": "0x9ea10f",
      "gasUsed": "0xcad7",
      "effectiveGasPrice": "0x2a3c56",
      "from": "0xab4fe51ba4d5155b2e6842cad17148b798e4615e",
      "to": "0xf1825a46608cada9afc3290397ba7c77797e4040",
      "contractAddress": null
    }
  ],
  "libraries": [],
  "pending": [],
  "returns": {},
  "timestamp": 1772795953507,
  "chain": 11155111,
  "commit": "ed184bb"
}