{
  "transactions": [
    {
      "hash": "0x6563ec311e862660e72d3b0d9ea1fddf0d58aa76df3543cd1e737fc88e1a14a3",
      "transactionType": "CALL",
      "contractName": null,
      "contractAddress": "0x7aff4f1a79d86095a6e2ebef1dcff7c263e55970",
      "function": "mint(address,uint256)",
      "arguments": [
        "0xab4FE51Ba4D5155b2e6842CAD17148b798e4615e",
        "10000000000000000000"
      ],
      "transaction": {
        "from": "0xab4fe51ba4d5155b2e6842cad17148b798e4615e",
        "to": "0x7aff4f1a79d86095a6e2ebef1dcff7c263e55970",
        "gas": "0xb6bb",
        "value": "0x0",
        "input": "0x40c10f19000000000000000000000000ab4fe51ba4d5155b2e6842cad17148b798e4615e0000000000000000000000000000000000000000000000008ac7230489e80000",
        "nonce": "0x6d",
        "chainId": "0xaa36a7"
      },
      "additionalContracts": [],
      "isFixedGasLimit": false
    },
    {
      "hash": "0x31932aa38a36d9ae8afae45fafe3c04fb5e7b2cbec060a56793806c9cb918f7e",
      "transactionType": "CALL",
      "contractName": null,
      "contractAddress": "0x7aff4f1a79d86095a6e2ebef1dcff7c263e55970",
      "function": "approve(address,uint256)",
      "arguments": [
        "0xF1825a46608cadA9AFc3290397Ba7C77797E4040",
        "10000000000000000000"
      ],
      "transaction": {
        "from": "0xab4fe51ba4d5155b2e6842cad17148b798e4615e",
        "to": "0x7aff4f1a79d86095a6e2ebef1dcff7c263e55970",
        "gas": "0x1062b",
        "value": "0x0",
        "input": "0x095ea7b3000000000000000000000000f1825a46608cada9afc3290397ba7c77797e40400000000000000000000000000000000000000000000000008ac7230489e80000",
        "nonce": "0x6e",
        "chainId": "0xaa36a7"
      },
      "additionalContracts": [],
      "isFixedGasLimit": false
    },
    {
      "hash": "0x37626aaaa87dcc20908d9e53ce8b5e7a29878dd69feba6aabd0304ef68fde304",
      "transactionType": "CALL",
      "contractName": null,
      "contractAddress": "0xf1825a46608cada9afc3290397ba7c77797e4040",
      "function": "createLimitOrder((address,address,uint24,int24,address),bool,uint96,uint128)",
      "arguments": [
        "(0x7AfF4F1a79d86095A6E2eBEF1dcfF7c263e55970, 0xc1Fb22AE10BDB0545737825998BE99569b64E931, 3000, 60, 0xF1825a46608cadA9AFc3290397Ba7C77797E4040)",
        "true",
        "10000000000000000000",
        "1010000000000000000"
      ],
      "transaction": {
        "from": "0xab4fe51ba4d5155b2e6842cad17148b798e4615e",
        "to": "0xf1825a46608cada9afc3290397ba7c77797e4040",
        "gas": "0x5966d",
        "value": "0x0",
        "input": "0x58a86a010000000000000000000000007aff4f1a79d86095a6e2ebef1dcff7c263e55970000000000000000000000000c1fb22ae10bdb0545737825998be99569b64e9310000000000000000000000000000000000000000000000000000000000000bb8000000000000000000000000000000000000000000000000000000000000003c000000000000000000000000f1825a46608cada9afc3290397ba7c77797e404000000000000000000000000000000000000000000000000000000000000000010000000000000000000000000000000000000000000000008ac7230489e800000000000000000000000000000000000000000000000000000e043da617250000",
        "nonce": "0x6f",
        "chainId": "0xaa36a7"
      },
      "additionalContracts": [],
      "isFixedGasLimit": false
    }
  ],
  "receipts": [
    {
      "status": "0x1",
      "cumulativeGasUsed": "0xb30104",
      "logs": [
        {
          "address": "0x7aff4f1a79d86095a6e2ebef1dcff7c263e55970",
          "topics": [
            "0xddf252ad1be2c89b69c2b068fc378daa952ba7f163c4a11628f55a4df523b3ef",
            "0x0000000000000000000000000000000000000000000000000000000000000000",
            "0x000000000000000000000000ab4fe51ba4d5155b2e6842cad17148b798e4615e"
          ],
          "data": "0x0000000000000000000000000000000000000000000000008ac7230489e80000",
          "blockHash": "0xe22899c491ee34e645d6b5b46566ba7620bc9546e60321b4ca13afcd62bea436",
          "blockNumber": "0x9e09d1",
          "blockTimestamp": "0x69a35f18",
          "transactionHash": "0x6563ec311e862660e72d3b0d9ea1fddf0d58aa76df3543cd1e737fc88e1a14a3",
          "transactionIndex": "0x55",
          "logIndex": "0x8b",
          "removed": false
        }
      ],
      "logsBloom": "0x00204000000000000000000000000000000000000000000000000000000000000000000000040000000000000000000000000000000000000000000000000000000000000000000000000008000000000000000000000000000000000000000000000000020000000000000000000800000100000000010000000010000000000000000000000000000000000000000000000000000000000000000000000000000000000000000000000000000000000000000000000000000000000000000000000002000000000000000000000000000000000000000000000000000020000000000000000000000000002000000000000000000000000000000000000000",
      "type": "0x2",
      "transactionHash": "0x6563ec311e862660e72d3b0d9ea1fddf0d58aa76df3543cd1e737fc88e1a14a3",
      "transactionIndex": "0x55",
      "blockHash": "0xe22899c491ee34e645d6b5b46566ba7620bc9546e60321b4ca13afcd62bea436",
      "blockNumber": "0x9e09d1",
      "gasUsed": "0x844c",
      "effectiveGasPrice": "0x10c549",
      "from": "0xab4fe51ba4d5155b2e6842cad17148b798e4615e",
      "to": "0x7aff4f1a79d86095a6e2ebef1dcff7c263e55970",
      "contractAddress": null
    },
    {
      "status": "0x1",
      "cumulativeGasUsed": "0x7d2f56",
      "logs": [
        {
          "address": "0x7aff4f1a79d86095a6e2ebef1dcff7c263e55970",
          "topics": [
            "0x8c5be1e5ebec7d5bd14f71427d1e84f3dd0314c0f7b2291e5b200ac8c7c3b925",
            "0x000000000000000000000000ab4fe51ba4d5155b2e6842cad17148b798e4615e",
            "0x000000000000000000000000f1825a46608cada9afc3290397ba7c77797e4040"
          ],
          "data": "0x0000000000000000000000000000000000000000000000008ac7230489e80000",
          "blockHash": "0xf8d207c1a540af6b7eff27d1ee67ee1905a09ecd127ac0d020d07c3505cc8f57",
          "blockNumber": "0x9e09d2",
          "blockTimestamp": "0x69a35f24",
          "transactionHash": "0x31932aa38a36d9ae8afae45fafe3c04fb5e7b2cbec060a56793806c9cb918f7e",
          "transactionIndex": "0x52",
          "logIndex": "0x97",
          "removed": false
        }
      ],
      "logsBloom": "0x00204000000000000000000000000000000000000000000000000000000000000000000000040000000000000000000000000000000000000000000000200000000000000000000000000000000000000000000000000000000000000000000000000000000000000000002000000000000100000000010000000000000000000000000000000000000000000000000000000000000000000000000000000000020000000000000000000000000000000000000000000000000000000000000000000000000000000000000000000000000000400000000000000000000000000010000000000000000000002004000000000000000000000000000000000000",
      "type": "0x2",
      "transactionHash": "0x31932aa38a36d9ae8afae45fafe3c04fb5e7b2cbec060a56793806c9cb918f7e",
      "transactionIndex": "0x52",
      "blockHash": "0xf8d207c1a540af6b7eff27d1ee67ee1905a09ecd127ac0d020d07c3505cc8f57",
      "blockNumber": "0x9e09d2",
      "gasUsed": "0xb343",
      "effectiveGasPrice": "0x10c54a",
      "from": "0xab4fe51ba4d5155b2e6842cad17148b798e4615e",
      "to": "0x7aff4f1a79d86095a6e2ebef1dcff7c263e55970",
      "contractAddress": null
    },
    {
      "status": "0x1",
      "cumulativeGasUsed": "0x7dba07",
      "logs": [
        {
          "address": "0x7aff4f1a79d86095a6e2ebef1dcff7c263e55970",
          "topics": [
            "0xddf252ad1be2c89b69c2b068fc378daa952ba7f163c4a11628f55a4df523b3ef",
            "0x000000000000000000000000ab4fe51ba4d5155b2e6842cad17148b798e4615e",
            "0x000000000000000000000000f1825a46608cada9afc3290397ba7c77797e4040"
          ],
          "data": "0x0000000000000000000000000000000000000000000000008ac7230489e80000",
          "blockHash": "0x43566b1b4587027860c4b811ceae1984ce7198c9e6763fa57204aeef82e879e9",
          "blockNumber": "0x9e09d3",
          "blockTimestamp": "0x69a35f30",
          "transactionHash": "0x37626aaaa87dcc20908d9e53ce8b5e7a29878dd69feba6aabd0304ef68fde304",
          "transactionIndex": "0x55",
          "logIndex": "0x9f",
          "removed": false
        },
        {
          "address": "0xf1825a46608cada9afc3290397ba7c77797e4040",
          "topics": [
            "0x26319004cc83552ac9e9198e5d281d5a2787f53318a6263c8d2066afd9658af1",
            "0x0000000000000000000000000000000000000000000000000000000000000001",
            "0x000000000000000000000000ab4fe51ba4d5155b2e6842cad17148b798e4615e"
          ],
          "data": "0x00000000000000000000000000000000000000000000000000000000000000010000000000000000000000000000000000000000000000008ac7230489e800000000000000000000000000000000000000000000000000000e043da617250000",
          "blockHash": "0x43566b1b4587027860c4b811ceae1984ce7198c9e6763fa57204aeef82e879e9",
          "blockNumber": "0x9e09d3",
          "blockTimestamp": "0x69a35f30",
          "transactionHash": "0x37626aaaa87dcc20908d9e53ce8b5e7a29878dd69feba6aabd0304ef68fde304",
          "transactionIndex": "0x55",
          "logIndex": "0xa0",
          "removed": false
        }
      ],
      "logsBloom": "0x00204000000000000000000000000000000000000000000000000000000000000000000000040000000000000000000000000000000000000000000000040000020000000000000000000008000000000000000000040000000000000000000000000000000000000000002000000000000100000000010000100010000000010000000000000000000000000000000000000000000000000000000000000000000000000000000000000000000000000000800000000000000000000000800000000002000000000000000000000000000000400000000000000000000040004000000000000000000000002004000000000000000000000000000000000000",
      "type": "0x2",
      "transactionHash": "0x37626aaaa87dcc20908d9e53ce8b5e7a29878dd69feba6aabd0304ef68fde304",
      "transactionIndex": "0x55",
      "blockHash": "0x43566b1b4587027860c4b811ceae1984ce7198c9e6763fa57204aeef82e879e9",
      "blockNumber": "0x9e09d3",
      "gasUsed": "0x3d212",
      "effectiveGasPrice": "0x10c549",
      "from": "0xab4fe51ba4d5155b2e6842cad17148b798e4615e",
      "to": "0xf1825a46608cada9afc3290397ba7c77797e4040",
      "contractAddress": null
    }
  ],
  "libraries": [],
  "pending": [],
  "returns": {},
  "timestamp": 1772314417269,
  "chain": 11155111,
  "commit": "c9dded0"
}