{
  "transactions": [
    {
      "hash": "0x8963c7d94c6347283ef81d3a502f41393d6e1c60476c5c0a6de748ac8d6c1edf",
      "transactionType": "CALL",
      "contractName": "MockERC20",
      "contractAddress": "0x8faa958134e083c039f28bef5d8412c5be0af6d2",
      "function": "mint(address,uint256)",
      "arguments": [
        "0xab4FE51Ba4D5155b2e6842CAD17148b798e4615e",
        "10000000000000000000"
      ],
      "transaction": {
        "from": "0xab4fe51ba4d5155b2e6842cad17148b798e4615e",
        "to": "0x8faa958134e083c039f28bef5d8412c5be0af6d2",
        "gas": "0xb6bb",
        "value": "0x0",
        "input": "0x40c10f19000000000000000000000000ab4fe51ba4d5155b2e6842cad17148b798e4615e0000000000000000000000000000000000000000000000008ac7230489e80000",
        "nonce": "0x9b",
        "chainId": "0xaa36a7"
      },
      "additionalContracts": [],
      "isFixedGasLimit": false
    },
    {
      "hash": "0xf0e7dc82c969e21753957282fe0fb275078b7d65c9977a2bfca713e86465ae66",
      "transactionType": "CALL",
      "contractName": "MockERC20",
      "contractAddress": "0x8faa958134e083c039f28bef5d8412c5be0af6d2",
      "function": "approve(address,uint256)",
      "arguments": [
        "0x956624906911dDC739Fe893CeE1F80e5be934040",
        "10000000000000000000"
      ],
      "transaction": {
        "from": "0xab4fe51ba4d5155b2e6842cad17148b798e4615e",
        "to": "0x8faa958134e083c039f28bef5d8412c5be0af6d2",
        "gas": "0x1062b",
        "value": "0x0",
        "input": "0x095ea7b3000000000000000000000000956624906911ddc739fe893cee1f80e5be9340400000000000000000000000000000000000000000000000008ac7230489e80000",
        "nonce": "0x9c",
        "chainId": "0xaa36a7"
      },
      "additionalContracts": [],
      "isFixedGasLimit": false
    },
    {
      "hash": "0x732239d41adbf69c40631ca7498321193ae950c1a5dee3d7241c1056fecab130",
      "transactionType": "CALL",
      "contractName": null,
      "contractAddress": "0x956624906911ddc739fe893cee1f80e5be934040",
      "function": "createLimitOrder((address,address,uint24,int24,address),bool,uint96,uint128)",
      "arguments": [
        "(0x8FAA958134e083c039F28bEf5d8412C5bE0Af6D2, 0xD8cF0Ac35566E7ce7cB63237046040761F65ae09, 3000, 60, 0x956624906911dDC739Fe893CeE1F80e5be934040)",
        "true",
        "10000000000000000000",
        "1010000000000000000"
      ],
      "transaction": {
        "from": "0xab4fe51ba4d5155b2e6842cad17148b798e4615e",
        "to": "0x956624906911ddc739fe893cee1f80e5be934040",
        "gas": "0x7449e",
        "value": "0x0",
        "input": "0x58a86a010000000000000000000000008faa958134e083c039f28bef5d8412c5be0af6d2000000000000000000000000d8cf0ac35566e7ce7cb63237046040761f65ae090000000000000000000000000000000000000000000000000000000000000bb8000000000000000000000000000000000000000000000000000000000000003c000000000000000000000000956624906911ddc739fe893cee1f80e5be93404000000000000000000000000000000000000000000000000000000000000000010000000000000000000000000000000000000000000000008ac7230489e800000000000000000000000000000000000000000000000000000e043da617250000",
        "nonce": "0x9d",
        "chainId": "0xaa36a7"
      },
      "additionalContracts": [],
      "isFixedGasLimit": false
    }
  ],
  "receipts": [
    {
      "status": "0x1",
      "cumulativeGasUsed": "0x642368",
      "logs": [
        {
          "address": "0x8faa958134e083c039f28bef5d8412c5be0af6d2",
          "topics": [
            "0xddf252ad1be2c89b69c2b068fc378daa952ba7f163c4a11628f55a4df523b3ef",
            "0x0000000000000000000000000000000000000000000000000000000000000000",
            "0x000000000000000000000000ab4fe51ba4d5155b2e6842cad17148b798e4615e"
          ],
          "data": "0x0000000000000000000000000000000000000000000000008ac7230489e80000",
          "blockHash": "0xffa7fc05bbb11d8ef83762d92fe3c7e27b04bc4124242c3100d73575f2fd726f",
          "blockNumber": "0x9ebd2f",
          "blockTimestamp": "0x69ac3fd4",
          "transactionHash": "0x8963c7d94c6347283ef81d3a502f41393d6e1c60476c5c0a6de748ac8d6c1edf",
          "transactionIndex": "0x53",
          "logIndex": "0x5b",
          "removed": false
        }
      ],
      "logsBloom": "0x80000000000000000000000000000000000000000000000000000000000000000000000000040000000000000000000000000000000000000000000000000000000000000000000000000008000000000000000000000000000000000000000000000000020010000000000000000800000100000000010000000010000000000000000000000000000000000000000000000000000000000000000000000000000000000000000000000000008000000000000000000000000000000000000000000002000000000000000000000000000000000000000000000000000020000000000000000000000000000000000000000000000000000000000000000000",
      "type": "0x2",
      "transactionHash": "0x8963c7d94c6347283ef81d3a502f41393d6e1c60476c5c0a6de748ac8d6c1edf",
      "transactionIndex": "0x53",
      "blockHash": "0xffa7fc05bbb11d8ef83762d92fe3c7e27b04bc4124242c3100d73575f2fd726f",
      "blockNumber": "0x9ebd2f",
      "gasUsed": "0x844c",
      "effectiveGasPrice": "0x155bce",
      "from": "0xab4fe51ba4d5155b2e6842cad17148b798e4615e",
      "to": "0x8faa958134e083c039f28bef5d8412c5be0af6d2",
      "contractAddress": null
    },
    {
      "status": "0x1",
      "cumulativeGasUsed": "0x6a5ac8",
      "logs": [
        {
          "address": "0x8faa958134e083c039f28bef5d8412c5be0af6d2",
          "topics": [
            "0x8c5be1e5ebec7d5bd14f71427d1e84f3dd0314c0f7b2291e5b200ac8c7c3b925",
            "0x000000000000000000000000ab4fe51ba4d5155b2e6842cad17148b798e4615e",
            "0x000000000000000000000000956624906911ddc739fe893cee1f80e5be934040"
          ],
          "data": "0x0000000000000000000000000000000000000000000000008ac7230489e80000",
          "blockHash": "0x62440c43da61c9c2abebf454213e1c0063f89a1844e362f3d2819b403a26b7cc",
          "blockNumber": "0x9ebd30",
          "blockTimestamp": "0x69ac3fe0",
          "transactionHash": "0xf0e7dc82c969e21753957282fe0fb275078b7d65c9977a2bfca713e86465ae66",
          "transactionIndex": "0x59",
          "logIndex": "0x73",
          "removed": false
        }
      ],
      "logsBloom": "0x80000000000000000000000000000000000000000000000000000000000000000000000000040000000000000000000000000000000000000000000000200000000020000000000000000000000000000000000000000000000000000000000000000000000010000000000000000000000100000000010000000000000000000000000000000000000000000000000000000000000000000000000000000000020000000000000000000000008000000000000000000000000000000000800000000000000000000000000000000000000000000000000000000000000000000010000000000000000000000000000080000000000000000000000000000000",
      "type": "0x2",
      "transactionHash": "0xf0e7dc82c969e21753957282fe0fb275078b7d65c9977a2bfca713e86465ae66",
      "transactionIndex": "0x59",
      "blockHash": "0x62440c43da61c9c2abebf454213e1c0063f89a1844e362f3d2819b403a26b7cc",
      "blockNumber": "0x9ebd30",
      "gasUsed": "0xb343",
      "effectiveGasPrice": "0x155bce",
      "from": "0xab4fe51ba4d5155b2e6842cad17148b798e4615e",
      "to": "0x8faa958134e083c039f28bef5d8412c5be0af6d2",
      "contractAddress": null
    },
    {
      "status": "0x1",
      "cumulativeGasUsed": "0x5ef45d",
      "logs": [
        {
          "address": "0x8faa958134e083c039f28bef5d8412c5be0af6d2",
          "topics": [
            "0xddf252ad1be2c89b69c2b068fc378daa952ba7f163c4a11628f55a4df523b3ef",
            "0x000000000000000000000000ab4fe51ba4d5155b2e6842cad17148b798e4615e",
            "0x000000000000000000000000956624906911ddc739fe893cee1f80e5be934040"
          ],
          "data": "0x0000000000000000000000000000000000000000000000008ac7230489e80000",
          "blockHash": "0xa13c04f807b9b667cf6f36f5ca791488a934245992f8632552c5cda45b533bd1",
          "blockNumber": "0x9ebd31",
          "blockTimestamp": "0x69ac3fec",
          "transactionHash": "0x732239d41adbf69c40631ca7498321193ae950c1a5dee3d7241c1056fecab130",
          "transactionIndex": "0x4f",
          "logIndex": "0x5d",
          "removed": false
        },
        {
          "address": "0x956624906911ddc739fe893cee1f80e5be934040",
          "topics": [
            "0x26319004cc83552ac9e9198e5d281d5a2787f53318a6263c8d2066afd9658af1",
            "0x0000000000000000000000000000000000000000000000000000000000000002",
            "0x000000000000000000000000ab4fe51ba4d5155b2e6842cad17148b798e4615e"
          ],
          "data": "0x00000000000000000000000000000000000000000000000000000000000000010000000000000000000000000000000000000000000000008ac7230489e800000000000000000000000000000000000000000000000000000e043da617250000",
          "blockHash": "0xa13c04f807b9b667cf6f36f5ca791488a934245992f8632552c5cda45b533bd1",
          "blockNumber": "0x9ebd31",
          "blockTimestamp": "0x69ac3fec",
          "transactionHash": "0x732239d41adbf69c40631ca7498321193ae950c1a5dee3d7241c1056fecab130",
          "transactionIndex": "0x4f",
          "logIndex": "0x5e",
          "removed": false
        }
      ],
      "logsBloom": "0x84000000000008000000000000000000000000000000000000000000000000000000000000040000000000000008000000000000000000000000000000000000000020000000000000000008000000000000000000000000000000000000000000000000000010000000000000000000000100000000010000000010000000010000000000000000000000000000000000000000000000000000000000000000000000000000000000000100008000000000000000000000000000000000800000000002000000000000000000000000008000000000000000000000000000004000000000000000000000000000000080000000008000000000000000000000",
      "type": "0x2",
      "transactionHash": "0x732239d41adbf69c40631ca7498321193ae950c1a5dee3d7241c1056fecab130",
      "transactionIndex": "0x4f",
      "blockHash": "0xa13c04f807b9b667cf6f36f5ca791488a934245992f8632552c5cda45b533bd1",
      "blockNumber": "0x9ebd31",
      "gasUsed": "0x5430f",
      "effectiveGasPrice": "0x155bce",
      "from": "0xab4fe51ba4d5155b2e6842cad17148b798e4615e",
      "to": "0x956624906911ddc739fe893cee1f80e5be934040",
      "contractAddress": null
    }
  ],
  "libraries": [],
  "pending": [],
  "returns": {},
  "timestamp": 1772896237644,
  "chain": 11155111,
  "commit": "ed184bb"
}