{
  "transactions": [
    {
      "hash": "0xe435d99607086f3971071cbeb13c1b60e5c67ce3d75b894f06e17b9021f8f83f",
      "transactionType": "CREATE",
      "contractName": "SwapRouterUnichain",
      "contractAddress": "0xbd9941df6eca4d622f37213281ae43bf8cba9111",
      "function": null,
      "arguments": [
        "0x1F98400000000000000000000000000000000004"
      ],
      "transaction": {
        "from": "0x8114cdc7ddea2be36435351db2115887daef5e12",
        "gas": "0xf2155",
        "value": "0x0",
        "input": "0x60c034608e57601f610d8c38819003918201601f19168301916001600160401b03831184841017609257808492602094604052833981010312608e57516001600160a01b0381168103608e576080523360a052604051610ce590816100a7823960805181818160940152818161012a015281816108040152610ae6015260a05181818161065e01526106d00152f35b5f80fd5b634e487b7160e01b5f52604160045260245ffdfe6080806040526004361015610012575f80fd5b5f905f3560e01c90816307a4cef714610682575080638da5cb5b1461061457806391dd7346146100bb5763dc4c90d31461004a575f80fd5b346100b857807ffffffffffffffffffffffffffffffffffffffffffffffffffffffffffffffffc3601126100b857602060405173ffffffffffffffffffffffffffffffffffffffff7f0000000000000000000000000000000000000000000000000000000000000000168152f35b80fd5b50346104fc5760207ffffffffffffffffffffffffffffffffffffffffffffffffffffffffffffffffc3601126104fc5760043567ffffffffffffffff81116104fc57366023820112156104fc57806004013567ffffffffffffffff81116104fc5781013660248201116104fc577f00000000000000000000000000000000000000000000000000000000000000009073ffffffffffffffffffffffffffffffffffffffff8216908133036105b65783900360e081126104fc5760a0136104fc576040519160a0830183811067ffffffffffffffff821117610589576040526101a560248501610976565b83526101b360448501610976565b9060208401918252606485013562ffffff811681036104fc576040850190815260848601358060020b81036104fc57606086019081526101f560a48801610976565b916080870192835260c48801359773ffffffffffffffffffffffffffffffffffffffff89168099036104fc5760e461022e9101356109d8565b6040516060810181811067ffffffffffffffff82111761058957899573ffffffffffffffffffffffffffffffffffffffff958692604052600184526020840194855262ffffff60408501966401000276a48852846040519a7ff3cd914c000000000000000000000000000000000000000000000000000000008c52511660048b0152848c511660248b0152511660448901525160020b60648801525116608486015251151560a48501525160c4840152511660e48201526101206101048201525f610124820152602081610144815f885af180156104f15761055a575b5061035261033173ffffffffffffffffffffffffffffffffffffffff8651163084610a31565b9173ffffffffffffffffffffffffffffffffffffffff845116903090610a31565b935f8212610530575b5f8512610500575b5f8213610451575b505084831361039a575b6103968560405190610388602083610997565b81526040519182918261092e565b0390f35b9073ffffffffffffffffffffffffffffffffffffffff859392511693813b1561044d576040517f0b0d9c0900000000000000000000000000000000000000000000000000000000815273ffffffffffffffffffffffffffffffffffffffff95861660048201529416602485015260448401919091528290606490829084905af180156104425761042d575b808080610375565b610438828092610997565b6100b8575f610425565b6040513d84823e3d90fd5b8380fd5b5173ffffffffffffffffffffffffffffffffffffffff16833b156104fc576040517f0b0d9c0900000000000000000000000000000000000000000000000000000000815273ffffffffffffffffffffffffffffffffffffffff9182166004820152908616602482015260448101919091525f8160648183875af180156104f1576104dc575b8061036b565b6104e99195505f90610997565b5f935f6104d6565b6040513d5f823e3d90fd5b5f80fd5b61052b73ffffffffffffffffffffffffffffffffffffffff84511687610525886109d8565b91610acb565b610363565b61055573ffffffffffffffffffffffffffffffffffffffff82511687610525856109d8565b61035b565b6020813d602011610581575b8161057360209383610997565b810103126104fc575161030b565b3d9150610566565b7f4e487b71000000000000000000000000000000000000000000000000000000005f52604160045260245ffd5b60646040517f08c379a000000000000000000000000000000000000000000000000000000000815260206004820152601060248201527f4f6e6c7920506f6f6c4d616e61676572000000000000000000000000000000006044820152fd5b346104fc575f7ffffffffffffffffffffffffffffffffffffffffffffffffffffffffffffffffc3601126104fc57602060405173ffffffffffffffffffffffffffffffffffffffff7f0000000000000000000000000000000000000000000000000000000000000000168152f35b346104fc577ffffffffffffffffffffffffffffffffffffffffffffffffffffffffffffffffc360160c081126104fc5760a0136104fc5773ffffffffffffffffffffffffffffffffffffffff7f00000000000000000000000000000000000000000000000000000000000000001633036108d25760405160043573ffffffffffffffffffffffffffffffffffffffff81168091036104fc57602082015260243573ffffffffffffffffffffffffffffffffffffffff81168091036104fc57604082015260443562ffffff81168091036104fc5760608201526064358060020b8091036104fc57608082015260843573ffffffffffffffffffffffffffffffffffffffff81168091036104fc57815f9160a06107ea9401523360c082015260a43560e082015260e081526107b761010082610997565b604051809381927f48c894910000000000000000000000000000000000000000000000000000000083526004830161092e565b03818373ffffffffffffffffffffffffffffffffffffffff7f0000000000000000000000000000000000000000000000000000000000000000165af180156104f15761083257005b3d805f833e6108418183610997565b8101906020818303126104fc5780519067ffffffffffffffff82116104fc570181601f820112156104fc57805167ffffffffffffffff811161058957604051926108b3601f83017fffffffffffffffffffffffffffffffffffffffffffffffffffffffffffffffe01660200185610997565b818452602082840101116104fc575f928160208094018483015e010152005b807f08c379a0000000000000000000000000000000000000000000000000000000006064925260206004820152600a60248201527f4f6e6c79206f776e6572000000000000000000000000000000000000000000006044820152fd5b7fffffffffffffffffffffffffffffffffffffffffffffffffffffffffffffffe0601f602060409481855280519182918282880152018686015e5f8582860101520116010190565b359073ffffffffffffffffffffffffffffffffffffffff821682036104fc57565b90601f7fffffffffffffffffffffffffffffffffffffffffffffffffffffffffffffffe0910116810190811067ffffffffffffffff82111761058957604052565b7f80000000000000000000000000000000000000000000000000000000000000008114610a04575f0390565b7f4e487b71000000000000000000000000000000000000000000000000000000005f52601160045260245ffd5b73ffffffffffffffffffffffffffffffffffffffff809381602094165f52168252602460405f2060405194859384927ff135baaa0000000000000000000000000000000000000000000000000000000084526004840152165afa9081156104f1575f91610a9c575090565b90506020813d602011610ac3575b81610ab760209383610997565b810103126104fc575190565b3d9150610aaa565b9092919273ffffffffffffffffffffffffffffffffffffffff7f00000000000000000000000000000000000000000000000000000000000000001690813b156104fc576040517fa584119400000000000000000000000000000000000000000000000000000000815273ffffffffffffffffffffffffffffffffffffffff5f9416908160048201525f8160248183885af180156104f157610c7d575b5060646020928573ffffffffffffffffffffffffffffffffffffffff93604051998a9586947f23b872dd00000000000000000000000000000000000000000000000000000000865216600485015287602485015260448401525af193841561044257829394610c39575b506020906004604051809481937f11da60b40000000000000000000000000000000000000000000000000000000083525af1801561044257610c11575050565b602090813d8311610c32575b610c278183610997565b810103126100b85750565b503d610c1d565b9091506020813d602011610c75575b81610c5560209383610997565b81010312610c7157518015158103610c71575081906020610bd1565b8280fd5b3d9150610c48565b73ffffffffffffffffffffffffffffffffffffffff919450602092610ca45f606493610997565b5f9592509250610b6756fea26469706673582212205858b57b8cc0d816d0d6ac8c6064bcac8cd0f168ee27df41967378c91cefd84464736f6c634300081a00330000000000000000000000001f98400000000000000000000000000000000004",
        "nonce": "0xd",
        "chainId": "0x82"
      },
      "additionalContracts": [],
      "isFixedGasLimit": false
    },
    {
      "hash": "0x450319bbdc8149181659af974dbae00bb52002d92014c9fde40686e0652eddac",
      "transactionType": "CALL",
      "contractName": null,
      "contractAddress": "0x078d782b760474a361dda0af3839290b0ef57ad6",
      "function": "approve(address,uint256)",
      "arguments": [
        "0xbd9941Df6ECA4d622f37213281aE43BF8cba9111",
        "115792089237316195423570985008687907853269984665640564039457584007913129639935"
      ],
      "transaction": {
        "from": "0x8114cdc7ddea2be36435351db2115887daef5e12",
        "to": "0x078d782b760474a361dda0af3839290b0ef57ad6",
        "gas": "0x13eb1",
        "value": "0x0",
        "input": "0x095ea7b3000000000000000000000000bd9941df6eca4d622f37213281ae43bf8cba9111ffffffffffffffffffffffffffffffffffffffffffffffffffffffffffffffff",
        "nonce": "0xe",
        "chainId": "0x82"
      },
      "additionalContracts": [],
      "isFixedGasLimit": false
    },
    {
      "hash": "0xd9e39c44b99bc8e492bb3c3d9d58398e80420413ff92663cd9ece89f5c2f0262",
      "transactionType": "CALL",
      "contractName": null,
      "contractAddress": "0x4200000000000000000000000000000000000006",
      "function": "approve(address,uint256)",
      "arguments": [
        "0xbd9941Df6ECA4d622f37213281aE43BF8cba9111",
        "115792089237316195423570985008687907853269984665640564039457584007913129639935"
      ],
      "transaction": {
        "from": "0x8114cdc7ddea2be36435351db2115887daef5e12",
        "to": "0x4200000000000000000000000000000000000006",
        "gas": "0x10972",
        "value": "0x0",
        "input": "0x095ea7b3000000000000000000000000bd9941df6eca4d622f37213281ae43bf8cba9111ffffffffffffffffffffffffffffffffffffffffffffffffffffffffffffffff",
        "nonce": "0xf",
        "chainId": "0x82"
      },
      "additionalContracts": [],
      "isFixedGasLimit": false
    },
    {
      "hash": "0xe9c6515075195d23f716f169841aa0b0bb47d8ad8200e301d9a8f4b7cfae1745",
      "transactionType": "CALL",
      "contractName": "SwapRouterUnichain",
      "contractAddress": "0xbd9941df6eca4d622f37213281ae43bf8cba9111",
      "function": "executeSwap((address,address,uint24,int24,address),uint256)",
      "arguments": [
        "(0x078D782b760474a361dDA0AF3839290b0EF57AD6, 0x4200000000000000000000000000000000000006, 0, 60, 0x9138F699F5F5AB19ed8271c3B143B229781A8040)",
        "500000"
      ],
      "transaction": {
        "from": "0x8114cdc7ddea2be36435351db2115887daef5e12",
        "to": "0xbd9941df6eca4d622f37213281ae43bf8cba9111",
        "gas": "0x58f7e",
        "value": "0x0",
        "input": "0x07a4cef7000000000000000000000000078d782b760474a361dda0af3839290b0ef57ad600000000000000000000000042000000000000000000000000000000000000060000000000000000000000000000000000000000000000000000000000000000000000000000000000000000000000000000000000000000000000000000003c0000000000000000000000009138f699f5f5ab19ed8271c3b143b229781a8040000000000000000000000000000000000000000000000000000000000007a120",
        "nonce": "0x10",
        "chainId": "0x82"
      },
      "additionalContracts": [],
      "isFixedGasLimit": false
    }
  ],
  "receipts": [
    {
      "status": "0x1",
      "cumulativeGasUsed": "0x126e47",
      "logs": [],
      "logsBloom": "0x00000000000000000000000000000000000000000000000000000000000000000000000000000000000000000000000000000000000000000000000000000000000000000000000000000000000000000000000000000000000000000000000000000000000000000000000000000000000000000000000000000000000000000000000000000000000000000000000000000000000000000000000000000000000000000000000000000000000000000000000000000000000000000000000000000000000000000000000000000000000000000000000000000000000000000000000000000000000000000000000000000000000000000000000000000000",
      "type": "0x2",
      "transactionHash": "0xe9c6515075195d23f716f169841aa0b0bb47d8ad8200e301d9a8f4b7cfae1745",
      "transactionIndex": "0x6",
      "blockHash": "0x02431f1008b445ddaf478b125ac771877c88321a604d85ff0ddb28cde20cdf9e",
      "blockNumber": "0x2a7032f",
      "gasUsed": "0xba37d",
      "effectiveGasPrice": "0x7a121",
      "blobGasUsed": "0xa05a0",
      "from": "0x8114cdc7ddea2be36435351db2115887daef5e12",
      "to": null,
      "contractAddress": "0xbd9941df6eca4d622f37213281ae43bf8cba9111",
      "daFootprintGasScalar": "0x190",
      "l1BaseFeeScalar": "0x7d0",
      "l1BlobBaseFee": "0x5a1d8b",
      "l1BlobBaseFeeScalar": "0xdbba0",
      "l1Fee": "0x34ca222ca",
      "l1GasPrice": "0x62c5591",
      "l1GasUsed": "0x66a2"
    },
    {
      "status": "0x1",
      "cumulativeGasUsed": "0x134830",
      "logs": [
        {
          "address": "0x078d782b760474a361dda0af3839290b0ef57ad6",
          "topics": [
            "0x8c5be1e5ebec7d5bd14f71427d1e84f3dd0314c0f7b2291e5b200ac8c7c3b925",
            "0x0000000000000000000000008114cdc7ddea2be36435351db2115887daef5e12",
            "0x000000000000000000000000bd9941df6eca4d622f37213281ae43bf8cba9111"
          ],
          "data": "0xffffffffffffffffffffffffffffffffffffffffffffffffffffffffffffffff",
          "blockHash": "0x02431f1008b445ddaf478b125ac771877c88321a604d85ff0ddb28cde20cdf9e",
          "blockNumber": "0x2a7032f",
          "blockTimestamp": "0x69d022f6",
          "transactionHash": "0xe435d99607086f3971071cbeb13c1b60e5c67ce3d75b894f06e17b9021f8f83f",
          "transactionIndex": "0x7",
          "logIndex": "0x4",
          "removed": false
        }
      ],
      "logsBloom": "0x00000000000000000000000000000000000000000000000000000000000000000000000000020000000002001000000000000000000000000000000000200000000000000000000000000000000000000000200000000000000000000000000000000000000000000000000000000000000000000000000000000000000000000000000000000000000000000000000000000000000040000000000000000000020000000000000000000000000000000000000000000000000000000000000000000000000000000000000000002000000000000000000000000000000000000010000000000000000000040000000000402000000000000000000000000000",
      "type": "0x2",
      "transactionHash": "0xe435d99607086f3971071cbeb13c1b60e5c67ce3d75b894f06e17b9021f8f83f",
      "transactionIndex": "0x7",
      "blockHash": "0x02431f1008b445ddaf478b125ac771877c88321a604d85ff0ddb28cde20cdf9e",
      "blockNumber": "0x2a7032f",
      "gasUsed": "0xd9e9",
      "effectiveGasPrice": "0x7a121",
      "blobGasUsed": "0x9c40",
      "from": "0x8114cdc7ddea2be36435351db2115887daef5e12",
      "to": "0x078d782b760474a361dda0af3839290b0ef57ad6",
      "contractAddress": null,
      "daFootprintGasScalar": "0x190",
      "l1BaseFeeScalar": "0x7d0",
      "l1BlobBaseFee": "0x5a1d8b",
      "l1BlobBaseFeeScalar": "0xdbba0",
      "l1Fee": "0x336f74ae",
      "l1GasPrice": "0x62c5591",
      "l1GasUsed": "0x640"
    },
    {
      "status": "0x1",
      "cumulativeGasUsed": "0x13fdb1",
      "logs": [
        {
          "address": "0x4200000000000000000000000000000000000006",
          "topics": [
            "0x8c5be1e5ebec7d5bd14f71427d1e84f3dd0314c0f7b2291e5b200ac8c7c3b925",
            "0x0000000000000000000000008114cdc7ddea2be36435351db2115887daef5e12",
            "0x000000000000000000000000bd9941df6eca4d622f37213281ae43bf8cba9111"
          ],
          "data": "0xffffffffffffffffffffffffffffffffffffffffffffffffffffffffffffffff",
          "blockHash": "0x02431f1008b445ddaf478b125ac771877c88321a604d85ff0ddb28cde20cdf9e",
          "blockNumber": "0x2a7032f",
          "blockTimestamp": "0x69d022f6",
          "transactionHash": "0xd9e39c44b99bc8e492bb3c3d9d58398e80420413ff92663cd9ece89f5c2f0262",
          "transactionIndex": "0x8",
          "logIndex": "0x5",
          "removed": false
        }
      ],
      "logsBloom": "0x00000000000000000000000000000000000000000000000000040000000000000000000000020000000002101000000000000000000000000000000000200000000000000000000000000000000000000000000000000000000000000000000000000000000000000000000000000000000000000000000000000000000000000000000000000000000000000000000000000000002040000000000000000000020000000000000000000000000000000000000000000000000000000000000000000000000000000000000000002000000000000000000000000000000000000010000000000000000000040000000000000000000000000000000000000000",
      "type": "0x2",
      "transactionHash": "0xd9e39c44b99bc8e492bb3c3d9d58398e80420413ff92663cd9ece89f5c2f0262",
      "transactionIndex": "0x8",
      "blockHash": "0x02431f1008b445ddaf478b125ac771877c88321a604d85ff0ddb28cde20cdf9e",
      "blockNumber": "0x2a7032f",
      "gasUsed": "0xb581",
      "effectiveGasPrice": "0x7a121",
      "blobGasUsed": "0x9c40",
      "from": "0x8114cdc7ddea2be36435351db2115887daef5e12",
      "to": "0x4200000000000000000000000000000000000006",
      "contractAddress": null,
      "daFootprintGasScalar": "0x190",
      "l1BaseFeeScalar": "0x7d0",
      "l1BlobBaseFee": "0x5a1d8b",
      "l1BlobBaseFeeScalar": "0xdbba0",
      "l1Fee": "0x336f74ae",
      "l1GasPrice": "0x62c5591",
      "l1GasUsed": "0x640"
    },
    {
      "status": "0x1",
      "cumulativeGasUsed": "0x180447",
      "logs": [
        {
          "address": "0x1f98400000000000000000000000000000000004",
          "topics": [
            "0x40e9cecb9f5f1f1c5b9c97dec2917b7ee92e57ba5563708daca94dd84ad7112f",
            "0x0c8e31465c4023ec1f6c0becd753cf2a955051b2c6c502d1adb204d2595331fc",
            "0x000000000000000000000000bd9941df6eca4d622f37213281ae43bf8cba9111"
          ],
          "data": "0xfffffffffffffffffffffffffffffffffffffffffffffffffffffffffff85ee00000000000000000000000000000000000000000000000000000692f5d9f8cb700000000000000000000000000000000000028f850827970c334a53d75359edb00000000000000000000000000000000000000000000000000000002540be400000000000000000000000000000000000000000000000000000000000002d3510000000000000000000000000000000000000000000000000000000000000000",
          "blockHash": "0x02431f1008b445ddaf478b125ac771877c88321a604d85ff0ddb28cde20cdf9e",
          "blockNumber": "0x2a7032f",
          "blockTimestamp": "0x69d022f6",
          "transactionHash": "0x450319bbdc8149181659af974dbae00bb52002d92014c9fde40686e0652eddac",
          "transactionIndex": "0x9",
          "logIndex": "0x6",
          "removed": false
        },
        {
          "address": "0x1f98400000000000000000000000000000000004",
          "topics": [
            "0x40e9cecb9f5f1f1c5b9c97dec2917b7ee92e57ba5563708daca94dd84ad7112f",
            "0x0c8e31465c4023ec1f6c0becd753cf2a955051b2c6c502d1adb204d2595331fc",
            "0x0000000000000000000000009138f699f5f5ab19ed8271c3b143b229781a8040"
          ],
          "data": "0x000000000000000000000000000000000000000000000000000000000000b15afffffffffffffffffffffffffffffffffffffffffffffffffffffb3affdec7ff0000000000000000000000000000000000002b04baef65e999c413e6ee4519ff00000000000000000000000000000000000000000000000000000002540be400000000000000000000000000000000000000000000000000000000000002d7210000000000000000000000000000000000000000000000000000000000000000",
          "blockHash": "0x02431f1008b445ddaf478b125ac771877c88321a604d85ff0ddb28cde20cdf9e",
          "blockNumber": "0x2a7032f",
          "blockTimestamp": "0x69d022f6",
          "transactionHash": "0x450319bbdc8149181659af974dbae00bb52002d92014c9fde40686e0652eddac",
          "transactionIndex": "0x9",
          "logIndex": "0x7",
          "removed": false
        },
        {
          "address": "0x4200000000000000000000000000000000000006",
          "topics": [
            "0xddf252ad1be2c89b69c2b068fc378daa952ba7f163c4a11628f55a4df523b3ef",
            "0x0000000000000000000000009138f699f5f5ab19ed8271c3b143b229781a8040",
            "0x0000000000000000000000001f98400000000000000000000000000000000004"
          ],
          "data": "0x000000000000000000000000000000000000000000000000000004c500213801",
          "blockHash": "0x02431f1008b445ddaf478b125ac771877c88321a604d85ff0ddb28cde20cdf9e",
          "blockNumber": "0x2a7032f",
          "blockTimestamp": "0x69d022f6",
          "transactionHash": "0x450319bbdc8149181659af974dbae00bb52002d92014c9fde40686e0652eddac",
          "transactionIndex": "0x9",
          "logIndex": "0x8",
          "removed": false
        },
        {
          "address": "0x078d782b760474a361dda0af3839290b0ef57ad6",
          "topics": [
            "0xddf252ad1be2c89b69c2b068fc378daa952ba7f163c4a11628f55a4df523b3ef",
            "0x0000000000000000000000001f98400000000000000000000000000000000004",
            "0x0000000000000000000000008114cdc7ddea2be36435351db2115887daef5e12"
          ],
          "data": "0x000000000000000000000000000000000000000000000000000000000000b144",
          "blockHash": "0x02431f1008b445ddaf478b125ac771877c88321a604d85ff0ddb28cde20cdf9e",
          "blockNumber": "0x2a7032f",
          "blockTimestamp": "0x69d022f6",
          "transactionHash": "0x450319bbdc8149181659af974dbae00bb52002d92014c9fde40686e0652eddac",
          "transactionIndex": "0x9",
          "logIndex": "0x9",
          "removed": false
        },
        {
          "address": "0x078d782b760474a361dda0af3839290b0ef57ad6",
          "topics": [
            "0xddf252ad1be2c89b69c2b068fc378daa952ba7f163c4a11628f55a4df523b3ef",
            "0x0000000000000000000000001f98400000000000000000000000000000000004",
            "0x0000000000000000000000009138f699f5f5ab19ed8271c3b143b229781a8040"
          ],
          "data": "0x0000000000000000000000000000000000000000000000000000000000000016",
          "blockHash": "0x02431f1008b445ddaf478b125ac771877c88321a604d85ff0ddb28cde20cdf9e",
          "blockNumber": "0x2a7032f",
          "blockTimestamp": "0x69d022f6",
          "transactionHash": "0x450319bbdc8149181659af974dbae00bb52002d92014c9fde40686e0652eddac",
          "transactionIndex": "0x9",
          "logIndex": "0xa",
          "removed": false
        },
        {
          "address": "0x9138f699f5f5ab19ed8271c3b143b229781a8040",
          "topics": [
            "0xf1d6c8ee14081f641e2073a1064d870f135f1001a301c6b14a7b9655672fec11",
            "0x0000000000000000000000000000000000000000000000000000000000000000",
            "0x000000000000000000000000078d782b760474a361dda0af3839290b0ef57ad6"
          ],
          "data": "0x0000000000000000000000000000000000000000000000000000000000000016",
          "blockHash": "0x02431f1008b445ddaf478b125ac771877c88321a604d85ff0ddb28cde20cdf9e",
          "blockNumber": "0x2a7032f",
          "blockTimestamp": "0x69d022f6",
          "transactionHash": "0x450319bbdc8149181659af974dbae00bb52002d92014c9fde40686e0652eddac",
          "transactionIndex": "0x9",
          "logIndex": "0xb",
          "removed": false
        },
        {
          "address": "0x4200000000000000000000000000000000000006",
          "topics": [
            "0xddf252ad1be2c89b69c2b068fc378daa952ba7f163c4a11628f55a4df523b3ef",
            "0x0000000000000000000000009138f699f5f5ab19ed8271c3b143b229781a8040",
            "0x0000000000000000000000008114cdc7ddea2be36435351db2115887daef5e12"
          ],
          "data": "0x0000000000000000000000000000000000000000000000000000562e105907ff",
          "blockHash": "0x02431f1008b445ddaf478b125ac771877c88321a604d85ff0ddb28cde20cdf9e",
          "blockNumber": "0x2a7032f",
          "blockTimestamp": "0x69d022f6",
          "transactionHash": "0x450319bbdc8149181659af974dbae00bb52002d92014c9fde40686e0652eddac",
          "transactionIndex": "0x9",
          "logIndex": "0xc",
          "removed": false
        },
        {
          "address": "0x9138f699f5f5ab19ed8271c3b143b229781a8040",
          "topics": [
            "0x2e22da0df0a2378dcccd637d72017e86a9701780ae19894d045a3b71ec018d95",
            "0x0000000000000000000000000000000000000000000000000000000000000000",
            "0x0000000000000000000000008114cdc7ddea2be36435351db2115887daef5e12"
          ],
          "data": "0x000000000000000000000000000000000000000000000000000004c500213801000000000000000000000000000000000000000000000000000000000000b1440000000000000000000000000000000000000000005afe68f380e4381facc9d7",
          "blockHash": "0x02431f1008b445ddaf478b125ac771877c88321a604d85ff0ddb28cde20cdf9e",
          "blockNumber": "0x2a7032f",
          "blockTimestamp": "0x69d022f6",
          "transactionHash": "0x450319bbdc8149181659af974dbae00bb52002d92014c9fde40686e0652eddac",
          "transactionIndex": "0x9",
          "logIndex": "0xd",
          "removed": false
        },
        {
          "address": "0x078d782b760474a361dda0af3839290b0ef57ad6",
          "topics": [
            "0xddf252ad1be2c89b69c2b068fc378daa952ba7f163c4a11628f55a4df523b3ef",
            "0x0000000000000000000000008114cdc7ddea2be36435351db2115887daef5e12",
            "0x0000000000000000000000001f98400000000000000000000000000000000004"
          ],
          "data": "0x000000000000000000000000000000000000000000000000000000000007a120",
          "blockHash": "0x02431f1008b445ddaf478b125ac771877c88321a604d85ff0ddb28cde20cdf9e",
          "blockNumber": "0x2a7032f",
          "blockTimestamp": "0x69d022f6",
          "transactionHash": "0x450319bbdc8149181659af974dbae00bb52002d92014c9fde40686e0652eddac",
          "transactionIndex": "0x9",
          "logIndex": "0xe",
          "removed": false
        },
        {
          "address": "0x4200000000000000000000000000000000000006",
          "topics": [
            "0xddf252ad1be2c89b69c2b068fc378daa952ba7f163c4a11628f55a4df523b3ef",
            "0x0000000000000000000000001f98400000000000000000000000000000000004",
            "0x0000000000000000000000008114cdc7ddea2be36435351db2115887daef5e12"
          ],
          "data": "0x0000000000000000000000000000000000000000000000000000692f5d9f8cb7",
          "blockHash": "0x02431f1008b445ddaf478b125ac771877c88321a604d85ff0ddb28cde20cdf9e",
          "blockNumber": "0x2a7032f",
          "blockTimestamp": "0x69d022f6",
          "transactionHash": "0x450319bbdc8149181659af974dbae00bb52002d92014c9fde40686e0652eddac",
          "transactionIndex": "0x9",
          "logIndex": "0xf",
          "removed": false
        }
      ],
      "logsBloom": "0x00000000000000000000000000000000000000000040000000040200000000000000000000020000000002101000000000000000040000000000040000000000000000000000000000000008000000000400200000000820000000000000100000000000020402000000000000000800000080000800000000000010020000000001010000000000000000000000000000000000082040000000000000000020000000008000000000400000100008000000000000000000000000000000000000000002000000000000000040002000000000000000000002000000000020040000000000000000004000040000000000402008000000200000000000000000",
      "type": "0x2",
      "transactionHash": "0x450319bbdc8149181659af974dbae00bb52002d92014c9fde40686e0652eddac",
      "transactionIndex": "0x9",
      "blockHash": "0x02431f1008b445ddaf478b125ac771877c88321a604d85ff0ddb28cde20cdf9e",
      "blockNumber": "0x2a7032f",
      "gasUsed": "0x40696",
      "effectiveGasPrice": "0x7a121",
      "blobGasUsed": "0xbd10",
      "from": "0x8114cdc7ddea2be36435351db2115887daef5e12",
      "to": "0xbd9941df6eca4d622f37213281ae43bf8cba9111",
      "contractAddress": null,
      "daFootprintGasScalar": "0x190",
      "l1BaseFeeScalar": "0x7d0",
      "l1BlobBaseFee": "0x5a1d8b",
      "l1BlobBaseFeeScalar": "0xdbba0",
      "l1Fee": "0x3e6d2161",
      "l1GasPrice": "0x62c5591",
      "l1GasUsed": "0x795"
    }
  ],
  "libraries": [],
  "pending": [],
  "returns": {},
  "timestamp": 1775248118244,
  "chain": 130,
  "commit": "df15e7d"
}